{
  "_format": "hh-sol-artifact-1",
  "contractName": "CrowdFunding",
  "sourceName": "contracts/CrowdFunding.sol",
  "abi": [
    {
      "inputs": [],
      "stateMutability": "nonpayable",
      "type": "constructor"
    },
    {
      "inputs": [],
      "name": "CampaignActive",
      "type": "error"
    },
    {
      "inputs": [],
      "name": "CampaignEnded",
      "type": "error"
    },
    {
      "inputs": [],
      "name": "CampaignNotFound",
      "type": "error"
    },
    {
      "inputs": [],
      "name": "CampaignNotPublished",
      "type": "error"
    },
    {
      "inputs": [],
      "name": "DeadlinePassed",
      "type": "error"
    },
    {
      "inputs": [
        {
          "internalType": "address",
          "name": "sender",
          "type": "address"
        },
        {
          "internalType": "uint256",
          "name": "tokenId",
          "type": "uint256"
        },
        {
          "internalType": "address",
          "name": "owner",
          "type": "address"
        }
      ],
      "name": "ERC721IncorrectOwner",
      "type": "error"
    },
    {
      "inputs": [
        {
          "internalType": "address",
          "name": "operator",
          "type": "address"
        },
        {
          "internalType": "uint256",
          "name": "tokenId",
          "type": "uint256"
        }
      ],
      "name": "ERC721InsufficientApproval",
      "type": "error"
    },
    {
      "inputs": [
        {
          "internalType": "address",
          "name": "approver",
          "type": "address"
        }
      ],
      "name": "ERC721InvalidApprover",
      "type": "error"
    },
    {
      "inputs": [
        {
          "internalType": "address",
          "name": "operator",
          "type": "address"
        }
      ],
      "name": "ERC721InvalidOperator",
      "type": "error"
    },
    {
      "inputs": [
        {
          "internalType": "address",
          "name": "owner",
          "type": "address"
        }
      ],
      "name": "ERC721InvalidOwner",
      "type": "error"
    },
    {
      "inputs": [
        {
          "internalType": "address",
          "name": "receiver",
          "type": "address"
        }
      ],
      "name": "ERC721InvalidReceiver",
      "type": "error"
    },
    {
      "inputs": [
        {
          "internalType": "address",
          "name": "sender",
          "type": "address"
        }
      ],
      "name": "ERC721InvalidSender",
      "type": "error"
    },
    {
      "inputs": [
        {
          "internalType": "uint256",
          "name": "tokenId",
          "type": "uint256"
        }
      ],
      "name": "ERC721NonexistentToken",
      "type": "error"
    },
    {
      "inputs": [],
      "name": "InsufficientBalance",
      "type": "error"
    },
    {
      "inputs": [],
      "name": "InvalidCategory",
      "type": "error"
    },
    {
      "inputs": [],
      "name": "InvalidDeadline",
      "type": "error"
    },
    {
      "inputs": [],
      "name": "InvalidTarget",
      "type": "error"
    },
    {
      "inputs": [],
      "name": "NoDonationsMade",
      "type": "error"
    },
    {
      "inputs": [],
      "name": "NotCampaignOwner",
      "type": "error"
    },
    {
      "inputs": [],
      "name": "NotDraftStatus",
      "type": "error"
    },
    {
      "inputs": [
        {
          "internalType": "address",
          "name": "owner",
          "type": "address"
        }
      ],
      "name": "OwnableInvalidOwner",
      "type": "error"
    },
    {
      "inputs": [
        {
          "internalType": "address",
          "name": "account",
          "type": "address"
        }
      ],
      "name": "OwnableUnauthorizedAccount",
      "type": "error"
    },
    {
      "inputs": [],
      "name": "WithdrawalFailed",
      "type": "error"
    },
    {
      "inputs": [],
      "name": "WithdrawalNotAllowed",
      "type": "error"
    },
    {
      "inputs": [],
      "name": "ZeroDonation",
      "type": "error"
    },
    {
      "anonymous": false,
      "inputs": [
        {
          "indexed": true,
          "internalType": "address",
          "name": "owner",
          "type": "address"
        },
        {
          "indexed": true,
          "internalType": "address",
          "name": "approved",
          "type": "address"
        },
        {
          "indexed": true,
          "internalType": "uint256",
          "name": "tokenId",
          "type": "uint256"
        }
      ],
      "name": "Approval",
      "type": "event"
    },
    {
      "anonymous": false,
      "inputs": [
        {
          "indexed": true,
          "internalType": "address",
          "name": "owner",
          "type": "address"
        },
        {
          "indexed": true,
          "internalType": "address",
          "name": "operator",
          "type": "address"
        },
        {
          "indexed": false,
          "internalType": "bool",
          "name": "approved",
          "type": "bool"
        }
      ],
      "name": "ApprovalForAll",
      "type": "event"
    },
    {
      "anonymous": false,
      "inputs": [
        {
          "indexed": false,
          "internalType": "uint256",
          "name": "id",
          "type": "uint256"
        },
        {
          "indexed": false,
          "internalType": "address",
          "name": "owner",
          "type": "address"
        }
      ],
      "name": "CampaignCancelled",
      "type": "event"
    },
    {
      "anonymous": false,
      "inputs": [
        {
          "indexed": true,
          "internalType": "uint256",
          "name": "id",
          "type": "uint256"
        },
        {
          "indexed": true,
          "internalType": "address",
          "name": "owner",
          "type": "address"
        },
        {
          "indexed": false,
          "internalType": "string",
          "name": "title",
          "type": "string"
        },
        {
          "indexed": false,
          "internalType": "uint256",
          "name": "target",
          "type": "uint256"
        },
        {
          "indexed": false,
          "internalType": "uint256",
          "name": "deadline",
          "type": "uint256"
        },
        {
          "indexed": false,
          "internalType": "enum CrowdFunding.Category",
          "name": "category",
          "type": "uint8"
        }
      ],
      "name": "CampaignCreated",
      "type": "event"
    },
    {
      "anonymous": false,
      "inputs": [
        {
          "indexed": false,
          "internalType": "uint256",
          "name": "id",
          "type": "uint256"
        },
        {
          "indexed": false,
          "internalType": "address",
          "name": "donator",
          "type": "address"
        },
        {
          "indexed": false,
          "internalType": "uint256",
          "name": "amount",
          "type": "uint256"
        }
      ],
      "name": "CampaignDonated",
      "type": "event"
    },
    {
      "anonymous": false,
      "inputs": [
        {
          "indexed": true,
          "internalType": "uint256",
          "name": "id",
          "type": "uint256"
        },
        {
          "indexed": true,
          "internalType": "address",
          "name": "owner",
          "type": "address"
        }
      ],
      "name": "CampaignPublished",
      "type": "event"
    },
    {
      "anonymous": false,
      "inputs": [
        {
          "indexed": false,
          "internalType": "uint256",
          "name": "id",
          "type": "uint256"
        }
      ],
      "name": "CampaignUpdated",
      "type": "event"
    },
    {
      "anonymous": false,
      "inputs": [
        {
          "indexed": false,
          "internalType": "uint256",
          "name": "id",
          "type": "uint256"
        },
        {
          "indexed": false,
          "internalType": "address",
          "name": "owner",
          "type": "address"
        },
        {
          "indexed": false,
          "internalType": "uint256",
          "name": "amount",
          "type": "uint256"
        }
      ],
      "name": "FundsWithdrawn",
      "type": "event"
    },
    {
      "anonymous": false,
      "inputs": [
        {
          "indexed": true,
          "internalType": "address",
          "name": "previousOwner",
          "type": "address"
        },
        {
          "indexed": true,
          "internalType": "address",
          "name": "newOwner",
          "type": "address"
        }
      ],
      "name": "OwnershipTransferred",
      "type": "event"
    },
    {
      "anonymous": false,
      "inputs": [
        {
          "indexed": true,
          "internalType": "address",
          "name": "from",
          "type": "address"
        },
        {
          "indexed": true,
          "internalType": "address",
          "name": "to",
          "type": "address"
        },
        {
          "indexed": true,
          "internalType": "uint256",
          "name": "tokenId",
          "type": "uint256"
        }
      ],
      "name": "Transfer",
      "type": "event"
    },
    {
      "inputs": [
        {
          "internalType": "address",
          "name": "to",
          "type": "address"
        },
        {
          "internalType": "uint256",
          "name": "tokenId",
          "type": "uint256"
        }
      ],
      "name": "approve",
      "outputs": [],
      "stateMutability": "nonpayable",
      "type": "function"
    },
    {
      "inputs": [
        {
          "internalType": "address",
          "name": "owner",
          "type": "address"
        }
      ],
      "name": "balanceOf",
      "outputs": [
        {
          "internalType": "uint256",
          "name": "",
          "type": "uint256"
        }
      ],
      "stateMutability": "view",
      "type": "function"
    },
    {
      "inputs": [],
      "name": "campaignCount",
      "outputs": [
        {
          "internalType": "uint256",
          "name": "",
          "type": "uint256"
        }
      ],
      "stateMutability": "view",
      "type": "function"
    },
    {
      "inputs": [
        {
          "internalType": "uint256",
          "name": "",
          "type": "uint256"
        },
        {
          "internalType": "address",
          "name": "",
          "type": "address"
        }
      ],
      "name": "campaignDonors",
      "outputs": [
        {
          "internalType": "uint128",
          "name": "amount",
          "type": "uint128"
        },
        {
          "internalType": "uint64",
          "name": "timestamp",
          "type": "uint64"
        },
        {
          "internalType": "bool",
          "name": "hasDonated",
          "type": "bool"
        },
        {
          "internalType": "uint16",
          "name": "noOfDonations",
          "type": "uint16"
        }
      ],
      "stateMutability": "view",
      "type": "function"
    },
    {
      "inputs": [
        {
          "internalType": "uint256",
          "name": "",
          "type": "uint256"
        }
      ],
      "name": "campaigns",
      "outputs": [
        {
          "internalType": "uint256",
          "name": "id",
          "type": "uint256"
        },
        {
          "internalType": "address",
          "name": "owner",
          "type": "address"
        },
        {
          "internalType": "string",
          "name": "title",
          "type": "string"
        },
        {
          "internalType": "string",
          "name": "description",
          "type": "string"
        },
        {
          "internalType": "uint256",
          "name": "target",
          "type": "uint256"
        },
        {
          "internalType": "uint256",
          "name": "deadline",
          "type": "uint256"
        },
        {
          "internalType": "uint256",
          "name": "amountCollected",
          "type": "uint256"
        },
        {
          "internalType": "uint256",
          "name": "withdrawnAmount",
          "type": "uint256"
        },
        {
          "internalType": "string",
          "name": "image",
          "type": "string"
        },
        {
          "internalType": "enum CrowdFunding.Category",
          "name": "category",
          "type": "uint8"
        },
        {
          "internalType": "enum CrowdFunding.CampaignStatus",
          "name": "status",
          "type": "uint8"
        },
        {
          "internalType": "uint256",
          "name": "donorCount",
          "type": "uint256"
        },
        {
          "internalType": "bool",
          "name": "allowFlexibleWithdrawal",
          "type": "bool"
        }
      ],
      "stateMutability": "view",
      "type": "function"
    },
    {
      "inputs": [
        {
          "internalType": "uint256",
          "name": "_id",
          "type": "uint256"
        }
      ],
      "name": "cancelDraftCampaign",
      "outputs": [],
      "stateMutability": "nonpayable",
      "type": "function"
    },
    {
      "inputs": [
        {
          "components": [
            {
              "internalType": "string",
              "name": "title",
              "type": "string"
            },
            {
              "internalType": "string",
              "name": "description",
              "type": "string"
            },
            {
              "internalType": "uint256",
              "name": "target",
              "type": "uint256"
            },
            {
              "internalType": "uint256",
              "name": "deadline",
              "type": "uint256"
            },
            {
              "internalType": "string",
              "name": "image",
              "type": "string"
            },
            {
              "internalType": "enum CrowdFunding.Category",
              "name": "category",
              "type": "uint8"
            },
            {
              "internalType": "bool",
              "name": "publishImmediately",
              "type": "bool"
            },
            {
              "internalType": "bool",
              "name": "allowFlexibleWithdrawal",
              "type": "bool"
            }
          ],
          "internalType": "struct CrowdFunding.CampaignInput",
          "name": "input",
          "type": "tuple"
        }
      ],
      "name": "createCampaign",
      "outputs": [
        {
          "internalType": "uint256",
          "name": "",
          "type": "uint256"
        }
      ],
      "stateMutability": "nonpayable",
      "type": "function"
    },
    {
      "inputs": [
        {
          "internalType": "uint256",
          "name": "_id",
          "type": "uint256"
        }
      ],
      "name": "donateToCampaign",
      "outputs": [],
      "stateMutability": "payable",
      "type": "function"
    },
    {
      "inputs": [],
      "name": "getActiveCampaigns",
      "outputs": [
        {
          "components": [
            {
              "internalType": "uint256",
              "name": "id",
              "type": "uint256"
            },
            {
              "internalType": "address",
              "name": "owner",
              "type": "address"
            },
            {
              "internalType": "string",
              "name": "title",
              "type": "string"
            },
            {
              "internalType": "string",
              "name": "description",
              "type": "string"
            },
            {
              "internalType": "uint256",
              "name": "target",
              "type": "uint256"
            },
            {
              "internalType": "uint256",
              "name": "deadline",
              "type": "uint256"
            },
            {
              "internalType": "uint256",
              "name": "amountCollected",
              "type": "uint256"
            },
            {
              "internalType": "uint256",
              "name": "withdrawnAmount",
              "type": "uint256"
            },
            {
              "internalType": "string",
              "name": "image",
              "type": "string"
            },
            {
              "internalType": "enum CrowdFunding.Category",
              "name": "category",
              "type": "uint8"
            },
            {
              "internalType": "enum CrowdFunding.CampaignStatus",
              "name": "status",
              "type": "uint8"
            },
            {
              "internalType": "uint256",
              "name": "donorCount",
              "type": "uint256"
            },
            {
              "internalType": "bool",
              "name": "allowFlexibleWithdrawal",
              "type": "bool"
            }
          ],
          "internalType": "struct CrowdFunding.Campaign[]",
          "name": "",
          "type": "tuple[]"
        }
      ],
      "stateMutability": "view",
      "type": "function"
    },
    {
      "inputs": [
        {
          "internalType": "uint256",
          "name": "tokenId",
          "type": "uint256"
        }
      ],
      "name": "getApproved",
      "outputs": [
        {
          "internalType": "address",
          "name": "",
          "type": "address"
        }
      ],
      "stateMutability": "view",
      "type": "function"
    },
    {
      "inputs": [
        {
          "internalType": "uint256",
          "name": "_id",
          "type": "uint256"
        },
        {
          "internalType": "bool",
          "name": "publishedOnly",
          "type": "bool"
        }
      ],
      "name": "getCampaign",
      "outputs": [
        {
          "components": [
            {
              "internalType": "uint256",
              "name": "id",
              "type": "uint256"
            },
            {
              "internalType": "address",
              "name": "owner",
              "type": "address"
            },
            {
              "internalType": "string",
              "name": "title",
              "type": "string"
            },
            {
              "internalType": "string",
              "name": "description",
              "type": "string"
            },
            {
              "internalType": "uint256",
              "name": "target",
              "type": "uint256"
            },
            {
              "internalType": "uint256",
              "name": "deadline",
              "type": "uint256"
            },
            {
              "internalType": "uint256",
              "name": "amountCollected",
              "type": "uint256"
            },
            {
              "internalType": "uint256",
              "name": "withdrawnAmount",
              "type": "uint256"
            },
            {
              "internalType": "string",
              "name": "image",
              "type": "string"
            },
            {
              "internalType": "enum CrowdFunding.Category",
              "name": "category",
              "type": "uint8"
            },
            {
              "internalType": "enum CrowdFunding.CampaignStatus",
              "name": "status",
              "type": "uint8"
            },
            {
              "internalType": "uint256",
              "name": "donorCount",
              "type": "uint256"
            },
            {
              "internalType": "bool",
              "name": "allowFlexibleWithdrawal",
              "type": "bool"
            }
          ],
          "internalType": "struct CrowdFunding.Campaign",
          "name": "",
          "type": "tuple"
        }
      ],
      "stateMutability": "view",
      "type": "function"
    },
    {
      "inputs": [],
      "name": "getCampaigns",
      "outputs": [
        {
          "components": [
            {
              "internalType": "uint256",
              "name": "id",
              "type": "uint256"
            },
            {
              "internalType": "address",
              "name": "owner",
              "type": "address"
            },
            {
              "internalType": "string",
              "name": "title",
              "type": "string"
            },
            {
              "internalType": "string",
              "name": "description",
              "type": "string"
            },
            {
              "internalType": "uint256",
              "name": "target",
              "type": "uint256"
            },
            {
              "internalType": "uint256",
              "name": "deadline",
              "type": "uint256"
            },
            {
              "internalType": "uint256",
              "name": "amountCollected",
              "type": "uint256"
            },
            {
              "internalType": "uint256",
              "name": "withdrawnAmount",
              "type": "uint256"
            },
            {
              "internalType": "string",
              "name": "image",
              "type": "string"
            },
            {
              "internalType": "enum CrowdFunding.Category",
              "name": "category",
              "type": "uint8"
            },
            {
              "internalType": "enum CrowdFunding.CampaignStatus",
              "name": "status",
              "type": "uint8"
            },
            {
              "internalType": "uint256",
              "name": "donorCount",
              "type": "uint256"
            },
            {
              "internalType": "bool",
              "name": "allowFlexibleWithdrawal",
              "type": "bool"
            }
          ],
          "internalType": "struct CrowdFunding.Campaign[]",
          "name": "",
          "type": "tuple[]"
        }
      ],
      "stateMutability": "view",
      "type": "function"
    },
    {
      "inputs": [
        {
          "internalType": "enum CrowdFunding.Category",
          "name": "_category",
          "type": "uint8"
        }
      ],
      "name": "getCampaignsByCategory",
      "outputs": [
        {
          "components": [
            {
              "internalType": "uint256",
              "name": "id",
              "type": "uint256"
            },
            {
              "internalType": "address",
              "name": "owner",
              "type": "address"
            },
            {
              "internalType": "string",
              "name": "title",
              "type": "string"
            },
            {
              "internalType": "string",
              "name": "description",
              "type": "string"
            },
            {
              "internalType": "uint256",
              "name": "target",
              "type": "uint256"
            },
            {
              "internalType": "uint256",
              "name": "deadline",
              "type": "uint256"
            },
            {
              "internalType": "uint256",
              "name": "amountCollected",
              "type": "uint256"
            },
            {
              "internalType": "uint256",
              "name": "withdrawnAmount",
              "type": "uint256"
            },
            {
              "internalType": "string",
              "name": "image",
              "type": "string"
            },
            {
              "internalType": "enum CrowdFunding.Category",
              "name": "category",
              "type": "uint8"
            },
            {
              "internalType": "enum CrowdFunding.CampaignStatus",
              "name": "status",
              "type": "uint8"
            },
            {
              "internalType": "uint256",
              "name": "donorCount",
              "type": "uint256"
            },
            {
              "internalType": "bool",
              "name": "allowFlexibleWithdrawal",
              "type": "bool"
            }
          ],
          "internalType": "struct CrowdFunding.Campaign[]",
          "name": "",
          "type": "tuple[]"
        }
      ],
      "stateMutability": "view",
      "type": "function"
    },
    {
      "inputs": [
        {
          "internalType": "uint256",
          "name": "_id",
          "type": "uint256"
        }
      ],
      "name": "getDonorCount",
      "outputs": [
        {
          "internalType": "uint256",
          "name": "",
          "type": "uint256"
        }
      ],
      "stateMutability": "view",
      "type": "function"
    },
    {
      "inputs": [
        {
          "internalType": "uint256",
          "name": "_id",
          "type": "uint256"
        },
        {
          "internalType": "address",
          "name": "_donor",
          "type": "address"
        }
      ],
      "name": "getDonorInfo",
      "outputs": [
        {
          "internalType": "uint256",
          "name": "amount",
          "type": "uint256"
        },
        {
          "internalType": "uint256",
          "name": "timestamp",
          "type": "uint256"
        },
        {
          "internalType": "uint16",
          "name": "noOfDonations",
          "type": "uint16"
        }
      ],
      "stateMutability": "view",
      "type": "function"
    },
    {
      "inputs": [
        {
          "components": [
            {
              "internalType": "uint256",
              "name": "offset",
              "type": "uint256"
            },
            {
              "internalType": "uint256",
              "name": "limit",
              "type": "uint256"
            }
          ],
          "internalType": "struct CrowdFunding.PaginationParams",
          "name": "params",
          "type": "tuple"
        }
      ],
      "name": "getPublishedCampaigns",
      "outputs": [
        {
          "components": [
            {
              "internalType": "uint256",
              "name": "id",
              "type": "uint256"
            },
            {
              "internalType": "address",
              "name": "owner",
              "type": "address"
            },
            {
              "internalType": "string",
              "name": "title",
              "type": "string"
            },
            {
              "internalType": "string",
              "name": "description",
              "type": "string"
            },
            {
              "internalType": "uint256",
              "name": "target",
              "type": "uint256"
            },
            {
              "internalType": "uint256",
              "name": "deadline",
              "type": "uint256"
            },
            {
              "internalType": "uint256",
              "name": "amountCollected",
              "type": "uint256"
            },
            {
              "internalType": "uint256",
              "name": "withdrawnAmount",
              "type": "uint256"
            },
            {
              "internalType": "string",
              "name": "image",
              "type": "string"
            },
            {
              "internalType": "enum CrowdFunding.Category",
              "name": "category",
              "type": "uint8"
            },
            {
              "internalType": "enum CrowdFunding.CampaignStatus",
              "name": "status",
              "type": "uint8"
            },
            {
              "internalType": "uint256",
              "name": "donorCount",
              "type": "uint256"
            },
            {
              "internalType": "bool",
              "name": "allowFlexibleWithdrawal",
              "type": "bool"
            }
          ],
          "internalType": "struct CrowdFunding.Campaign[]",
          "name": "_campaigns",
          "type": "tuple[]"
        },
        {
          "internalType": "uint256",
          "name": "total",
          "type": "uint256"
        }
      ],
      "stateMutability": "view",
      "type": "function"
    },
    {
      "inputs": [],
      "name": "getPublishedCampaigns2",
      "outputs": [
        {
          "components": [
            {
              "internalType": "uint256",
              "name": "id",
              "type": "uint256"
            },
            {
              "internalType": "address",
              "name": "owner",
              "type": "address"
            },
            {
              "internalType": "string",
              "name": "title",
              "type": "string"
            },
            {
              "internalType": "string",
              "name": "description",
              "type": "string"
            },
            {
              "internalType": "uint256",
              "name": "target",
              "type": "uint256"
            },
            {
              "internalType": "uint256",
              "name": "deadline",
              "type": "uint256"
            },
            {
              "internalType": "uint256",
              "name": "amountCollected",
              "type": "uint256"
            },
            {
              "internalType": "uint256",
              "name": "withdrawnAmount",
              "type": "uint256"
            },
            {
              "internalType": "string",
              "name": "image",
              "type": "string"
            },
            {
              "internalType": "enum CrowdFunding.Category",
              "name": "category",
              "type": "uint8"
            },
            {
              "internalType": "enum CrowdFunding.CampaignStatus",
              "name": "status",
              "type": "uint8"
            },
            {
              "internalType": "uint256",
              "name": "donorCount",
              "type": "uint256"
            },
            {
              "internalType": "bool",
              "name": "allowFlexibleWithdrawal",
              "type": "bool"
            }
          ],
          "internalType": "struct CrowdFunding.Campaign[]",
          "name": "",
          "type": "tuple[]"
        }
      ],
      "stateMutability": "view",
      "type": "function"
    },
    {
      "inputs": [
        {
          "internalType": "uint256",
          "name": "_id",
          "type": "uint256"
        }
      ],
      "name": "getRemainingBalance",
      "outputs": [
        {
          "internalType": "uint256",
          "name": "",
          "type": "uint256"
        }
      ],
      "stateMutability": "view",
      "type": "function"
    },
    {
      "inputs": [
        {
          "internalType": "address",
          "name": "_owner",
          "type": "address"
        }
      ],
      "name": "getUserDraftCampaigns",
      "outputs": [
        {
          "components": [
            {
              "internalType": "uint256",
              "name": "id",
              "type": "uint256"
            },
            {
              "internalType": "address",
              "name": "owner",
              "type": "address"
            },
            {
              "internalType": "string",
              "name": "title",
              "type": "string"
            },
            {
              "internalType": "string",
              "name": "description",
              "type": "string"
            },
            {
              "internalType": "uint256",
              "name": "target",
              "type": "uint256"
            },
            {
              "internalType": "uint256",
              "name": "deadline",
              "type": "uint256"
            },
            {
              "internalType": "uint256",
              "name": "amountCollected",
              "type": "uint256"
            },
            {
              "internalType": "uint256",
              "name": "withdrawnAmount",
              "type": "uint256"
            },
            {
              "internalType": "string",
              "name": "image",
              "type": "string"
            },
            {
              "internalType": "enum CrowdFunding.Category",
              "name": "category",
              "type": "uint8"
            },
            {
              "internalType": "enum CrowdFunding.CampaignStatus",
              "name": "status",
              "type": "uint8"
            },
            {
              "internalType": "uint256",
              "name": "donorCount",
              "type": "uint256"
            },
            {
              "internalType": "bool",
              "name": "allowFlexibleWithdrawal",
              "type": "bool"
            }
          ],
          "internalType": "struct CrowdFunding.Campaign[]",
          "name": "",
          "type": "tuple[]"
        }
      ],
      "stateMutability": "view",
      "type": "function"
    },
    {
      "inputs": [
        {
          "internalType": "address",
          "name": "owner",
          "type": "address"
        },
        {
          "internalType": "address",
          "name": "operator",
          "type": "address"
        }
      ],
      "name": "isApprovedForAll",
      "outputs": [
        {
          "internalType": "bool",
          "name": "",
          "type": "bool"
        }
      ],
      "stateMutability": "view",
      "type": "function"
    },
    {
      "inputs": [],
      "name": "name",
      "outputs": [
        {
          "internalType": "string",
          "name": "",
          "type": "string"
        }
      ],
      "stateMutability": "view",
      "type": "function"
    },
    {
      "inputs": [],
      "name": "owner",
      "outputs": [
        {
          "internalType": "address",
          "name": "",
          "type": "address"
        }
      ],
      "stateMutability": "view",
      "type": "function"
    },
    {
      "inputs": [
        {
          "internalType": "uint256",
          "name": "tokenId",
          "type": "uint256"
        }
      ],
      "name": "ownerOf",
      "outputs": [
        {
          "internalType": "address",
          "name": "",
          "type": "address"
        }
      ],
      "stateMutability": "view",
      "type": "function"
    },
    {
      "inputs": [
        {
          "internalType": "uint256",
          "name": "_id",
          "type": "uint256"
        }
      ],
      "name": "publishCampaign",
      "outputs": [],
      "stateMutability": "nonpayable",
      "type": "function"
    },
    {
      "inputs": [],
      "name": "renounceOwnership",
      "outputs": [],
      "stateMutability": "nonpayable",
      "type": "function"
    },
    {
      "inputs": [
        {
          "internalType": "address",
          "name": "from",
          "type": "address"
        },
        {
          "internalType": "address",
          "name": "to",
          "type": "address"
        },
        {
          "internalType": "uint256",
          "name": "tokenId",
          "type": "uint256"
        }
      ],
      "name": "safeTransferFrom",
      "outputs": [],
      "stateMutability": "nonpayable",
      "type": "function"
    },
    {
      "inputs": [
        {
          "internalType": "address",
          "name": "from",
          "type": "address"
        },
        {
          "internalType": "address",
          "name": "to",
          "type": "address"
        },
        {
          "internalType": "uint256",
          "name": "tokenId",
          "type": "uint256"
        },
        {
          "internalType": "bytes",
          "name": "data",
          "type": "bytes"
        }
      ],
      "name": "safeTransferFrom",
      "outputs": [],
      "stateMutability": "nonpayable",
      "type": "function"
    },
    {
      "inputs": [
        {
          "internalType": "address",
          "name": "operator",
          "type": "address"
        },
        {
          "internalType": "bool",
          "name": "approved",
          "type": "bool"
        }
      ],
      "name": "setApprovalForAll",
      "outputs": [],
      "stateMutability": "nonpayable",
      "type": "function"
    },
    {
      "inputs": [
        {
          "internalType": "bytes4",
          "name": "interfaceId",
          "type": "bytes4"
        }
      ],
      "name": "supportsInterface",
      "outputs": [
        {
          "internalType": "bool",
          "name": "",
          "type": "bool"
        }
      ],
      "stateMutability": "view",
      "type": "function"
    },
    {
      "inputs": [],
      "name": "symbol",
      "outputs": [
        {
          "internalType": "string",
          "name": "",
          "type": "string"
        }
      ],
      "stateMutability": "view",
      "type": "function"
    },
    {
      "inputs": [
        {
          "internalType": "uint256",
          "name": "tokenId",
          "type": "uint256"
        }
      ],
      "name": "tokenURI",
      "outputs": [
        {
          "internalType": "string",
          "name": "",
          "type": "string"
        }
      ],
      "stateMutability": "view",
      "type": "function"
    },
    {
      "inputs": [
        {
          "internalType": "address",
          "name": "from",
          "type": "address"
        },
        {
          "internalType": "address",
          "name": "to",
          "type": "address"
        },
        {
          "internalType": "uint256",
          "name": "tokenId",
          "type": "uint256"
        }
      ],
      "name": "transferFrom",
      "outputs": [],
      "stateMutability": "nonpayable",
      "type": "function"
    },
    {
      "inputs": [
        {
          "internalType": "address",
          "name": "newOwner",
          "type": "address"
        }
      ],
      "name": "transferOwnership",
      "outputs": [],
      "stateMutability": "nonpayable",
      "type": "function"
    },
    {
      "inputs": [
        {
          "components": [
            {
              "internalType": "uint256",
              "name": "id",
              "type": "uint256"
            },
            {
              "internalType": "string",
              "name": "title",
              "type": "string"
            },
            {
              "internalType": "string",
              "name": "description",
              "type": "string"
            },
            {
              "internalType": "uint256",
              "name": "target",
              "type": "uint256"
            },
            {
              "internalType": "uint256",
              "name": "deadline",
              "type": "uint256"
            },
            {
              "internalType": "string",
              "name": "image",
              "type": "string"
            },
            {
              "internalType": "enum CrowdFunding.Category",
              "name": "category",
              "type": "uint8"
            }
          ],
          "internalType": "struct CrowdFunding.CampaignUpdateInput",
          "name": "input",
          "type": "tuple"
        }
      ],
      "name": "updateDraftCampaign",
      "outputs": [],
      "stateMutability": "nonpayable",
      "type": "function"
    },
    {
      "inputs": [
        {
          "internalType": "uint256",
          "name": "_id",
          "type": "uint256"
        }
      ],
      "name": "withdrawCampaignFunds",
      "outputs": [],
      "stateMutability": "nonpayable",
      "type": "function"
    }
  ],
  "bytecode": "0x60806040523461038f57604080519081016001600160401b0381118282101761029c576040908152600c82526b43726f776446756e64696e6760a01b602083015280519081016001600160401b0381118282101761029c57604052600581526410d493d5d160da1b602082015281516001600160401b03811161029c57600054600181811c91168015610385575b602082101461027c57601f8111610321575b50602092601f82116001146102bd57928192936000926102b2575b50508160011b916000199060031b1c1916176000555b80516001600160401b03811161029c57600154600181811c91168015610292575b602082101461027c57601f8111610217575b50602091601f82116001146101b3579181926000926101a8575b50508160011b916000199060031b1c1916176001555b33156101925760068054336001600160a01b03198216811790925560405191906001600160a01b03167f8be0079c531659141344cd1fd0a4f28419497f9722a3daafe3b4186f6b6457e0600080a36000600955612fbd90816103958239f35b631e4fbdf760e01b600052600060045260246000fd5b01519050388061011d565b601f198216926001600052806000209160005b8581106101ff575083600195106101e6575b505050811b01600155610133565b015160001960f88460031b161c191690553880806101d8565b919260206001819286850151815501940192016101c6565b60016000527fb10e2d527612073b26eecdfd717e6a320cf44b4afac2b0732d9fcbe2b7fa0cf6601f830160051c81019160208410610272575b601f0160051c01905b8181106102665750610103565b60008155600101610259565b9091508190610250565b634e487b7160e01b600052602260045260246000fd5b90607f16906100f1565b634e487b7160e01b600052604160045260246000fd5b0151905038806100ba565b601f1982169360008052806000209160005b86811061030957508360019596106102f0575b505050811b016000556100d0565b015160001960f88460031b161c191690553880806102e2565b919260206001819286850151815501940192016102cf565b600080527f290decd9548b62a8d60345a988386fc84ba6bc95484008f6362f93160ef3e563601f830160051c8101916020841061037b575b601f0160051c01905b81811061036f575061009f565b60008155600101610362565b9091508190610359565b90607f169061008d565b600080fdfe608080604052600436101561001357600080fd5b600090813560e01c90816301ffc9a7146126cd5750806306fdde0314612645578063081812fc14612608578063095ea7b3146125205780630cfc1e731461230c57806314169e2a146121bb578063141961bc146120a357806323b872dd1461208b57806342842e0e1461206157806342a4fda814611eb55780634fa4479a14611e3c57806350c4984c1461194f5780635943c705146119225780635a722f211461177a5780635f4175351461153e5780636352211e1461150d57806370a08231146114ba578063715018a61461145d5780637274e30d1461143f57806378e94dd2146114035780638afbe73314610ea15780638da5cb5b14610e7857806395d89b4114610d95578063a22cb46514610cf1578063a6b0363314610bc1578063b222f8aa14610ab9578063b88d4fde14610a25578063c362b15614610822578063c87b56dd146107ca578063d224d9ec14610677578063d93df3a1146103fb578063e2205ecf14610356578063e985e9c5146102fc578063f0a603bc1461022e5763f2fde38b146101a257600080fd5b3461022b57602036600319011261022b576101bb61277b565b6101c3612f5e565b6001600160a01b0316801561021757600680546001600160a01b0319811683179091556001600160a01b03167f8be0079c531659141344cd1fd0a4f28419497f9722a3daafe3b4186f6b6457e0600080a380f35b631e4fbdf760e01b82526004829052602482fd5b80fd5b503461022b57602036600319011261022b57600435808252600860205260408220600101546001600160a01b031633036102ed57808252600860205260ff600960408420015460081c1660038110156102d9576102ca57808252600860205260408220600901805461ff00191661010017905533907f0a7083224233fc5630db51d4d433adf417be6f67e2f466bf1329565a341580a68380a380f35b63ac49f26560e01b8252600482fd5b634e487b7160e01b83526021600452602483fd5b632552cded60e11b8252600482fd5b503461022b57604036600319011261022b57604061031861277b565b91610321612796565b9260018060a01b031681526005602052209060018060a01b0316600052602052602060ff604060002054166040519015158152f35b503461022b57602036600319011261022b57600435808252600860205260408220600101546001600160a01b031633036102ed57808252600860205260ff600960408420015460081c1660038110156102d9576102ca576040817f844c792f3d122ddfe76f9173cd5b48de3087f78395e0f62b94f9d471c991dcb2928452600860205260098285200161020061ff00198254161790558151908152336020820152a180f35b503461022b57602036600319011261022b576004356006811015918261022b576009549080805b8381106105f1575061043390612b31565b928194825b8481106104595760405160208082528190610455908201896128a5565b0390f35b8084526008602052604084206009015460ff16826105dd5760068110156105dd578314806105b5575b61048f575b600101610438565b95868452600860205260408420604051906104a982612938565b8054825260018101546001600160a01b031660208301526104cc6002820161298b565b60408301526104dd6003820161298b565b606083015260048101546080830152600581015460a0830152600681015460c0830152600781015460e08301526105166008820161298b565b610100830152600981015460ff811660068110156105a15761012084015260081c60ff16600381101561058d57610140830152600a810154610160830152600b015460ff16151561018082015260019161058591610574828a612b81565b5261057f8189612b81565b50612a93565b969050610487565b634e487b7160e01b87526021600452602487fd5b634e487b7160e01b88526021600452602488fd5b50808452600860205260ff600960408620015460081c1660038110156105dd57600114610482565b634e487b7160e01b85526021600452602485fd5b8083526008602052604083206009015460ff16866106635760068110156106635785148061063b575b610627575b600101610422565b90610633600191612a93565b91905061061f565b50808352600860205260ff600960408520015460081c1660038110156106635760011461061a565b634e487b7160e01b84526021600452602484fd5b503461022b57604036600319011261022b5760043590610695612a69565b9161069e612acf565b506009548110156107bb57815260086020526040812091604051926106c284612938565b8054845260018101546001600160a01b031660208501526106e56002820161298b565b60408501526106f66003820161298b565b606085015260048101546080850152600581015460a0850152600681015460c0850152600781015460e085015261072f6008820161298b565b610100850152600981015460ff811660068110156105dd5761012086015260081c60ff1690600382101561066357600b60ff9183610140880152600a8101546101608801520154161515610180850152816107af575b506107a05760405160208082528190610455908201856127dc565b639109fdd160e01b8152600490fd5b60019150141538610785565b6337f9b70b60e11b8252600482fd5b503461022b57602036600319011261022b576107e7600435612f27565b50806040516107f760208261296a565b525061045560405161080a60208261296a565b6000815260405191829160208352602083019061273a565b503461022b578060031936011261022b5760095481805b8281106109c4575061084a90612b31565b9082805b82811061086b5760405160208082528190610455908201876128a5565b808252600860205260ff600960408420015460081c1660038110156102d957600114806109ac575b6108a0575b60010161084e565b93848252600860205260408220604051906108ba82612938565b8054825260018101546001600160a01b031660208301526108dd6002820161298b565b60408301526108ee6003820161298b565b606083015260048101546080830152600581015460a0830152600681015460c0830152600781015460e08301526109276008820161298b565b610100830152600981015460ff811660068110156109985761012084015260081c60ff1660038110156105dd57610140830152600a810154610160830152600b015460ff161515610180820152600191610990916109858288612b81565b5261057f8187612b81565b949050610898565b634e487b7160e01b86526021600452602486fd5b50808252600860205260056040832001544210610893565b808452600860205260ff600960408620015460081c1660038110156105dd5760011480610a0d575b6109f9575b600101610839565b90610a05600191612a93565b9190506109f1565b508084526008602052600560408520015442106109ec565b503461022b57608036600319011261022b57610a3f61277b565b610a47612796565b90606435906001600160401b038211610ab55736602383011215610ab55781600401359284610a7585612a78565b93610a83604051958661296a565b8585523660248783010111610ab15785610aae96602460209301838801378501015260443591612e08565b80f35b5080fd5b8380fd5b503461022b57604036600319011261022b57600435610ad6612796565b90600954811015610bb25782526007602052604082209060018060a01b03168252602052604081209060405191608083018381106001600160401b03821117610b9e57604052546001600160801b038116835260208301916001600160401b038260801c16835260ff8260c01c16158015604086015261ffff606086019360c81c168352610b90575061ffff6001600160401b036001600160801b0360609551169351169151169060405192835260208301526040820152f35b6285968560e71b8152600490fd5b634e487b7160e01b83526041600452602483fd5b6337f9b70b60e11b8352600483fd5b503461022b578060031936011261022b57600954610bde81612b31565b91805b828110610bfe5760405160208082528190610455908201876128a5565b80825260086020526040822060405190610c1782612938565b8054825260018101546001600160a01b03166020830152610c3a6002820161298b565b6040830152610c4b6003820161298b565b606083015260048101546080830152600581015460a0830152600681015460c0830152600781015460e0830152610c846008820161298b565b610100830152600981015460ff811660068110156109985761012084015260081c60ff1660038110156105dd57610140830152600a810154610160830152600b015460ff16151561018082015260019190610cdf8287612b81565b52610cea8186612b81565b5001610be1565b503461022b57604036600319011261022b57610d0b61277b565b610d13612a69565b6001600160a01b03909116908115610d8157338352600560205260408320828452602052610d5081604085209060ff801983541691151516179055565b60405190151581527f17307eab39ab6107e8899845ad3d59bd9653f200f220920489ca2b5937696c3160203392a380f35b630b61174360e31b83526004829052602483fd5b503461022b578060031936011261022b57604051908060015490610db8826128fe565b8085529160018116908115610e515750600114610df4575b61045584610de08186038261296a565b60405191829160208352602083019061273a565b600181527fb10e2d527612073b26eecdfd717e6a320cf44b4afac2b0732d9fcbe2b7fa0cf6939250905b808210610e3757509091508101602001610de082610dd0565b919260018160209254838588010152019101909291610e1e565b60ff191660208087019190915292151560051b85019092019250610de09150839050610dd0565b503461022b578060031936011261022b576006546040516001600160a01b039091168152602090f35b503461022b57602036600319011261022b576004356001600160401b038111610ab1578060040161010060031983360301126113ff5760448201359081156113f0576064830135428111156113e15760a48401359160068310156113dd57600560ff8416116113ce576009548087526008602052604087208181556001810180546001600160a01b031916331790559095610f3c8380612db1565b60028401916001600160401b038211611238578190610f5b84546128fe565b601f811161137e575b508b90601f8311600114611318578c9261130d575b50508160011b916000199060031b1c19161790555b610f9b6024820184612db1565b60038401916001600160401b038211611238578190610fba84546128fe565b601f81116112bd575b508b90601f8311600114611257578c9261124c575b50508160011b916000199060031b1c19161790555b8560048301558360058301558760068301558760078301556110126084820184612db1565b60088401916001600160401b03821161123857819061103184546128fe565b601f81116111e8575b508b90601f8311600114611182578c92611177575b50508160011b916000199060031b1c19161790555b600982016110728682612de3565b61107e60c48301612dfb565b156111715760015b600381101561115d57602099946110fd61114295600b6110ea60e48e9c98886111119861ff007fedf7acc766086eb7115234d49cc6c7dc174ac9db5fac309cde9fa65a8fd516bc9f9b549160081b169061ff0019161790558b600a86015501612dfb565b91019060ff801983541691151516179055565b611108600954612a93565b60095580612db1565b97909488604051966080885281608089015260a088013760a0898701015289850152604084015260608301906127ac565b3393601f01601f1916810181900360a00190a3604051908152f35b634e487b7160e01b8a52602160045260248afd5b88611086565b01359050388061104f565b848d5260208d20925090601f1984168d5b8181106111d057509084600195949392106111b6575b505050811b019055611064565b0135600019600384901b60f8161c191690553880806111a9565b91936020600181928787013581550195019201611193565b909150838c5260208c20601f840160051c8101916020851061122e575b90601f859493920160051c01905b818110611220575061103a565b8d8155849350600101611213565b9091508190611205565b634e487b7160e01b8b52604160045260248bfd5b013590503880610fd8565b848d5260208d20925090601f1984168d5b8181106112a5575090846001959493921061128b575b505050811b019055610fed565b0135600019600384901b60f8161c1916905538808061127e565b91936020600181928787013581550195019201611268565b909150838c5260208c20601f840160051c81019160208510611303575b90601f859493920160051c01905b8181106112f55750610fc3565b8d81558493506001016112e8565b90915081906112da565b013590503880610f79565b848d5260208d20925090601f1984168d5b818110611366575090846001959493921061134c575b505050811b019055610f8e565b0135600019600384901b60f8161c1916905538808061133f565b91936020600181928787013581550195019201611329565b909150838c5260208c20601f840160051c810191602085106113c4575b90601f859493920160051c01905b8181106113b65750610f64565b8d81558493506001016113a9565b909150819061139b565b636b3ac97b60e11b8652600486fd5b8580fd5b631da7447960e21b8552600485fd5b63416aebb560e11b8452600484fd5b8280fd5b503461022b57602036600319011261022b576114376040602092600435815260088452206007600682015491015490612bab565b604051908152f35b503461022b578060031936011261022b576020600954604051908152f35b503461022b578060031936011261022b57611476612f5e565b600680546001600160a01b0319811690915581906001600160a01b03167f8be0079c531659141344cd1fd0a4f28419497f9722a3daafe3b4186f6b6457e08280a380f35b503461022b57602036600319011261022b576001600160a01b036114dc61277b565b1680156114f9578160409160209352600383522054604051908152f35b6322718ad960e21b82526004829052602482fd5b503461022b57602036600319011261022b57602061152c600435612f27565b6040516001600160a01b039091168152f35b503461022b57604036600319011261022b576009548180805b838110611737575060243591600435826115718583612bb8565b11611725575b61158084612b31565b928294835b8781108061171c575b156116f957808552600860205260ff600960408720015460081c166003811015610998576001146115c8575b6115c390612a93565b611585565b97838110156115e6575b6115de6115c391612a93565b9890506115ba565b958885526008602052604085206040519061160082612938565b8054825260018101546001600160a01b031660208301526116236002820161298b565b60408301526116346003820161298b565b606083015260048101546080830152600581015460a0830152600681015460c0830152600781015460e083015261166d6008820161298b565b610100830152600981015460ff811660068110156116e55761012084015260081c60ff1660038110156105a157928260ff600b6116dc946115c3976101406115de980152600a81015461016085015201541615156101808201526116d1828b612b81565b5261057f818a612b81565b979150506115d2565b634e487b7160e01b89526021600452602489fd5b61171286846040519283926040845260408401906128a5565b9060208301520390f35b5081871061158e565b92506117318383612bab565b92611577565b808352600860205260ff600960408520015460081c16600381101561066357600114611766575b600101611557565b90611772600191612a93565b91905061175e565b503461022b578060031936011261022b5760095481805b8281106118df57506117a290612b31565b9082805b8281106117c35760405160208082528190610455908201876128a5565b808252600860205260ff600960408420015460081c1660038110156102d9576001146117f2575b6001016117a6565b938482526008602052604082206040519061180c82612938565b8054825260018101546001600160a01b0316602083015261182f6002820161298b565b60408301526118406003820161298b565b606083015260048101546080830152600581015460a0830152600681015460c0830152600781015460e08301526118796008820161298b565b610100830152600981015460ff811660068110156109985761012084015260081c60ff1660038110156105dd57610140830152600a810154610160830152600b015460ff1615156101808201526001916118d7916109858288612b81565b9490506117ea565b808452600860205260ff600960408620015460081c1660038110156105dd5760011461190e575b600101611791565b9061191a600191612a93565b919050611906565b503461022b57602036600319011261022b57600a6040602092600435815260088452200154604051908152f35b503461022b57602036600319011261022b576004356001600160401b038111610ab157806004019060e060031982360301126113ff578135808452600860205260408420600101549092906001600160a01b03163303611e2d57828452600860205260ff600960408620015460081c1660038110156105dd57611e1e576064820135908115611e0f5760848301359242841115611e005760c4810135936006851015611dfc57600560ff861611611ded5785875260086020526040872093611a1a6024840185612db1565b60028701916001600160401b038211611238578190611a3984546128fe565b601f8111611d9d575b508b90601f8311600114611d37578c92611d2c575b50508160011b916000199060031b1c19161790555b611a796044840185612db1565b60038701916001600160401b03821161123857611a9683546128fe565b601f8111611ce7575b508a908b601f8411600114611c78579260a49694928192611ae99a99979592611c6d575b50508160011b916000199060031b1c19161790555b600487015560058601550190612db1565b60088301916001600160401b038211611c5957611b0683546128fe565b601f8111611c14575b508690601f8311600114611b845793611b6f9383602097946009947feb99199fa768b75351d1d205616eb313e8775bf75ad483f1a9c5dc947d9aa1059a988c92611b79575b50508160011b916000199060031b1c19161790555b01612de3565b604051908152a180f35b013590503880611b54565b8388526020882091601f198416895b818110611bfc5750846009947feb99199fa768b75351d1d205616eb313e8775bf75ad483f1a9c5dc947d9aa1059a9894611b6f989460209b9860019510611be2575b505050811b019055611b69565b0135600019600384901b60f8161c19169055388080611bd5565b91936020600181928787013581550195019201611b93565b83885260208820601f840160051c81019160208510611c4f575b601f0160051c01905b818110611c445750611b0f565b888155600101611c37565b9091508190611c2e565b634e487b7160e01b87526041600452602487fd5b013590503880611ac3565b50838c5260208c2091601f1984168d5b818110611ccf5750926001928592611ae99b9a989660a49a989610611cb5575b505050811b019055611ad8565b0135600019600384901b60f8161c19169055388080611ca8565b91936020600181928787013581550195019201611c88565b838c5260208c20601f840160051c81019160208510611d22575b601f0160051c01905b818110611d175750611a9f565b8c8155600101611d0a565b9091508190611d01565b013590503880611a57565b848d5260208d20925090601f1984168d5b818110611d855750908460019594939210611d6b575b505050811b019055611a6c565b0135600019600384901b60f8161c19169055388080611d5e565b91936020600181928787013581550195019201611d48565b909150838c5260208c20601f840160051c81019160208510611de3575b90601f859493920160051c01905b818110611dd55750611a42565b8d8155849350600101611dc8565b9091508190611dba565b636b3ac97b60e11b8752600487fd5b8680fd5b631da7447960e21b8652600486fd5b63416aebb560e11b8552600485fd5b63ac49f26560e01b8452600484fd5b632552cded60e11b8452600484fd5b503461022b57604036600319011261022b576040608091611e5b612796565b600435825260076020528282209060018060a01b03168252602052205461ffff604051916001600160801b03811683526001600160401b0381851c16602084015260ff8160c01c161515604084015260c81c166060820152f35b50602036600319011261022b576004356009548110156107bb5780825260086020526040822034156120525760ff600982015460081c16600381101561066357600103612043576005810154421015612034578183526007602090815260408085203386529091528320805460c01c60ff161561201f575b80546001600160801b0334166001600160801b03821601906001600160801b03821161200b576001600160801b03600160c01b92169066ffffffffffffff60c81b16176001600160401b0360801b4260801b16171761ffff8160c81c1661ffff811461200b5761ffff60c81b19909116600190910160c81b61ffff60c81b1617905560060180547fab9c35171e39c1e9e36544edfe4e6f20d5ebcb0daefd9c2ea9a533e991fd608792612005929091611fe7903490612bb8565b90556040805191825233602083015234908201529081906060820190565b0390a180f35b634e487b7160e01b86526011600452602486fd5b600a820161202d8154612a93565b9055611f2d565b63154eb81560e21b8352600483fd5b639109fdd160e01b8352600483fd5b636370392160e11b8352600483fd5b503461022b57610aae61207336612a2f565b906040519261208360208561296a565b858452612e08565b503461022b57610aae61209d36612a2f565b91612bf5565b503461022b57602036600319011261022b576004358152600860205260409020805460018201546001600160a01b0316916120e06002820161298b565b6120ec6003830161298b565b9160048101546005820154906006830154600784015490600885016121109061298b565b93600986015497600a87015496600b015460ff16976040519b8c9b8c5260208c015260408b016101a090526101a08b016121499161273a565b8a810360608c015261215a9161273a565b9360808a015260a089015260c088015260e08701528581036101008701526121819161273a565b92612193610120860160ff83166127ac565b61014085019060081c60ff16906121a9916127cf565b61016084015215156101808301520390f35b503461022b57602036600319011261022b57600435906009548210156122fd57818152600860205260408120600101546001600160a01b031633036122ee578181526008602052604081206006810154600782019161221c83548093612bab565b9283156122df578360ff600b84015416156122b9575b61223e90600194612bb8565b90550192828080808560018060a01b038954165af161225b612bc5565b50156122aa579254604080519485526001600160a01b039091166020850152830152907ff440aec6b52895984d061d622e6edeba6210f7c3e059be920663140c084560d7908060608101612005565b6327fcd9d160e01b8352600483fd5b50909160058301544211156122d057919083612232565b63b4469b3560e01b8552600485fd5b631e9acf1760e31b8552600485fd5b632552cded60e11b8152600490fd5b6337f9b70b60e11b8152600490fd5b503461022b57602036600319011261022b5761232661277b565b6009546001600160a01b03909116919081805b8281106124b8575061234a90612b31565b918093815b83811061236c5760405160208082528190610455908201886128a5565b808352600860205260408320600101546001600160a01b0316821480612492575b61239a575b60010161234f565b94858352600860205260408320604051906123b482612938565b8054825260018101546001600160a01b031660208301526123d76002820161298b565b60408301526123e86003820161298b565b606083015260048101546080830152600581015460a0830152600681015460c0830152600781015460e08301526124216008820161298b565b610100830152600981015460ff8116600681101561058d5761012084015260081c60ff16600381101561099857610140830152600a810154610160830152600b015460ff16151561018082015260019161248a9161247f8289612b81565b5261057f8188612b81565b959050612392565b50808352600860205260ff600960408520015460081c166003811015610663571561238d565b808452600860205260408420600101546001600160a01b03168514806124fa575b6124e6575b600101612339565b906124f2600191612a93565b9190506124de565b50808452600860205260ff600960408620015460081c1660038110156105dd57156124d9565b503461022b57604036600319011261022b5761253a61277b565b60243561254681612f27565b331515806125f5575b806125ca575b6125b75781906001600160a01b0384811691167f8c5be1e5ebec7d5bd14f71427d1e84f3dd0314c0f7b2291e5b200ac8c7c3b9258680a4825260046020526040822080546001600160a01b0319166001600160a01b0390921691909117905580f35b63a9fbf51f60e01b845233600452602484fd5b506001600160a01b038116845260056020908152604080862033875290915284205460ff1615612555565b506001600160a01b03811633141561254f565b503461022b57602036600319011261022b5760209060043561262981612f27565b50815260048252604060018060a01b0391205416604051908152f35b503461022b578060031936011261022b576040519080805490612667826128fe565b8085529160018116908115610e51575060011461268e5761045584610de08186038261296a565b80805260208120939250905b8082106126b357509091508101602001610de082610dd0565b91926001816020925483858801015201910190929161269a565b905034610ab1576020366003190112610ab15760043563ffffffff60e01b81168091036113ff57602092506380ac58cd60e01b8114908115612729575b8115612718575b5015158152f35b6301ffc9a760e01b14905038612711565b635b5e139f60e01b8114915061270a565b919082519283825260005b848110612766575050826000602080949584010152601f8019910116010190565b80602080928401015182828601015201612745565b600435906001600160a01b038216820361279157565b600080fd5b602435906001600160a01b038216820361279157565b9060068210156127b95752565b634e487b7160e01b600052602160045260246000fd5b9060038210156127b95752565b908151815260018060a01b0360208301511660208201526101808061286661282a61281860408701516101a060408801526101a087019061273a565b6060870151868203606088015261273a565b6080860151608086015260a086015160a086015260c086015160c086015260e086015160e086015261010086015185820361010087015261273a565b9361287b6101208201516101208601906127ac565b61288f6101408201516101408601906127cf565b6101608101516101608501520151151591015290565b9080602083519182815201916020808360051b8301019401926000915b8383106128d157505050505090565b90919293946020806128ef600193601f1986820301875289516127dc565b970193019301919392906128c2565b90600182811c9216801561292e575b602083101461291857565b634e487b7160e01b600052602260045260246000fd5b91607f169161290d565b6101a081019081106001600160401b0382111761295457604052565b634e487b7160e01b600052604160045260246000fd5b90601f801991011681019081106001600160401b0382111761295457604052565b906040519182600082549261299f846128fe565b8084529360018116908115612a0d57506001146129c6575b506129c49250038361296a565b565b90506000929192526020600020906000915b8183106129f15750509060206129c492820101386129b7565b60209193508060019154838589010152019101909184926129d8565b9050602092506129c494915060ff191682840152151560051b820101386129b7565b6060906003190112612791576004356001600160a01b038116810361279157906024356001600160a01b0381168103612791579060443590565b60243590811515820361279157565b6001600160401b03811161295457601f01601f191660200190565b6000198114612aa25760010190565b634e487b7160e01b600052601160045260246000fd5b6001600160401b0381116129545760051b60200190565b60405190612adc82612938565b600061018083828152826020820152606060408201526060808201528260808201528260a08201528260c08201528260e082015260606101008201528261012082015282610140820152826101608201520152565b90612b3b82612ab8565b612b48604051918261296a565b8281528092612b59601f1991612ab8565b019060005b828110612b6a57505050565b602090612b75612acf565b82828501015201612b5e565b8051821015612b955760209160051b010190565b634e487b7160e01b600052603260045260246000fd5b91908203918211612aa257565b91908201809211612aa257565b3d15612bf0573d90612bd682612a78565b91612be4604051938461296a565b82523d6000602084013e565b606090565b6001600160a01b0390911691908215612d9b576000828152600260205260409020546001600160a01b031692829033151580612d00575b5084612cc2575b8060005260036020526040600020600181540190558160005260026020526040600020816bffffffffffffffffffffffff60a01b825416179055847fddf252ad1be2c89b69c2b068fc378daa952ba7f163c4a11628f55a4df523b3ef600080a46001600160a01b0316808303612ca857505050565b6364283d7b60e01b60005260045260245260445260646000fd5b81600052600460205260406000206bffffffffffffffffffffffff60a01b815416905584600052600360205260406000206000198154019055612c33565b90915080612d48575b15612d1657829038612c2c565b8284612d3057637e27328960e01b60005260045260246000fd5b63177e802f60e01b6000523360045260245260446000fd5b503384148015612d78575b80612d0957506000838152600460205260409020546001600160a01b03163314612d09565b50600084815260056020908152604080832033845290915290205460ff16612d53565b633250574960e11b600052600060045260246000fd5b903590601e198136030182121561279157018035906001600160401b0382116127915760200191813603831361279157565b9060068110156127b95760ff80198354169116179055565b3580151581036127915790565b9291612e15818386612bf5565b813b612e22575b50505050565b604051630a85bd0160e11b81523360048201526001600160a01b0394851660248201526044810191909152608060648201529216919060209082908190612e6d90608483019061273a565b03816000865af18091600091612ee4575b5090612eaf5750612e8d612bc5565b80519081612eaa5782633250574960e11b60005260045260246000fd5b602001fd5b6001600160e01b03191663757a42ff60e11b01612ed0575038808080612e1c565b633250574960e11b60005260045260246000fd5b6020813d602011612f1f575b81612efd6020938361296a565b81010312610ab15751906001600160e01b03198216820361022b575038612e7e565b3d9150612ef0565b6000818152600260205260409020546001600160a01b0316908115612f4a575090565b637e27328960e01b60005260045260246000fd5b6006546001600160a01b03163303612f7257565b63118cdaa760e01b6000523360045260246000fdfea2646970667358221220b053ddc220be417cc17c7950a125ab972a152d796533bf4110f55b6d24563fb164736f6c634300081b0033",
  "linkReferences": {},
  "deployedLinkReferences": {}
}