{
  "_format": "hh-sol-artifact-1",
  "contractName": "CrowdFunding",
  "sourceName": "contracts/CrowdFunding.sol",
  "abi": [
    {
      "inputs": [],
      "stateMutability": "nonpayable",
      "type": "constructor"
    },
    {
      "inputs": [],
      "name": "CampaignActive",
      "type": "error"
    },
    {
      "inputs": [],
      "name": "CampaignEnded",
      "type": "error"
    },
    {
      "inputs": [],
      "name": "CampaignNotFound",
      "type": "error"
    },
    {
      "inputs": [],
      "name": "CampaignNotPublished",
      "type": "error"
    },
    {
      "inputs": [],
      "name": "DeadlinePassed",
      "type": "error"
    },
    {
      "inputs": [
        {
          "internalType": "address",
          "name": "sender",
          "type": "address"
        },
        {
          "internalType": "uint256",
          "name": "tokenId",
          "type": "uint256"
        },
        {
          "internalType": "address",
          "name": "owner",
          "type": "address"
        }
      ],
      "name": "ERC721IncorrectOwner",
      "type": "error"
    },
    {
      "inputs": [
        {
          "internalType": "address",
          "name": "operator",
          "type": "address"
        },
        {
          "internalType": "uint256",
          "name": "tokenId",
          "type": "uint256"
        }
      ],
      "name": "ERC721InsufficientApproval",
      "type": "error"
    },
    {
      "inputs": [
        {
          "internalType": "address",
          "name": "approver",
          "type": "address"
        }
      ],
      "name": "ERC721InvalidApprover",
      "type": "error"
    },
    {
      "inputs": [
        {
          "internalType": "address",
          "name": "operator",
          "type": "address"
        }
      ],
      "name": "ERC721InvalidOperator",
      "type": "error"
    },
    {
      "inputs": [
        {
          "internalType": "address",
          "name": "owner",
          "type": "address"
        }
      ],
      "name": "ERC721InvalidOwner",
      "type": "error"
    },
    {
      "inputs": [
        {
          "internalType": "address",
          "name": "receiver",
          "type": "address"
        }
      ],
      "name": "ERC721InvalidReceiver",
      "type": "error"
    },
    {
      "inputs": [
        {
          "internalType": "address",
          "name": "sender",
          "type": "address"
        }
      ],
      "name": "ERC721InvalidSender",
      "type": "error"
    },
    {
      "inputs": [
        {
          "internalType": "uint256",
          "name": "tokenId",
          "type": "uint256"
        }
      ],
      "name": "ERC721NonexistentToken",
      "type": "error"
    },
    {
      "inputs": [],
      "name": "ImageRequired",
      "type": "error"
    },
    {
      "inputs": [],
      "name": "InsufficientBalance",
      "type": "error"
    },
    {
      "inputs": [],
      "name": "InvalidCategory",
      "type": "error"
    },
    {
      "inputs": [],
      "name": "InvalidDeadline",
      "type": "error"
    },
    {
      "inputs": [],
      "name": "InvalidTarget",
      "type": "error"
    },
    {
      "inputs": [],
      "name": "NoDonationsMade",
      "type": "error"
    },
    {
      "inputs": [],
      "name": "NotCampaignOwner",
      "type": "error"
    },
    {
      "inputs": [],
      "name": "NotDraftStatus",
      "type": "error"
    },
    {
      "inputs": [
        {
          "internalType": "address",
          "name": "owner",
          "type": "address"
        }
      ],
      "name": "OwnableInvalidOwner",
      "type": "error"
    },
    {
      "inputs": [
        {
          "internalType": "address",
          "name": "account",
          "type": "address"
        }
      ],
      "name": "OwnableUnauthorizedAccount",
      "type": "error"
    },
    {
      "inputs": [],
      "name": "WithdrawalFailed",
      "type": "error"
    },
    {
      "inputs": [],
      "name": "WithdrawalNotAllowed",
      "type": "error"
    },
    {
      "inputs": [],
      "name": "ZeroDonation",
      "type": "error"
    },
    {
      "anonymous": false,
      "inputs": [
        {
          "indexed": true,
          "internalType": "address",
          "name": "owner",
          "type": "address"
        },
        {
          "indexed": true,
          "internalType": "address",
          "name": "approved",
          "type": "address"
        },
        {
          "indexed": true,
          "internalType": "uint256",
          "name": "tokenId",
          "type": "uint256"
        }
      ],
      "name": "Approval",
      "type": "event"
    },
    {
      "anonymous": false,
      "inputs": [
        {
          "indexed": true,
          "internalType": "address",
          "name": "owner",
          "type": "address"
        },
        {
          "indexed": true,
          "internalType": "address",
          "name": "operator",
          "type": "address"
        },
        {
          "indexed": false,
          "internalType": "bool",
          "name": "approved",
          "type": "bool"
        }
      ],
      "name": "ApprovalForAll",
      "type": "event"
    },
    {
      "anonymous": false,
      "inputs": [
        {
          "indexed": false,
          "internalType": "uint256",
          "name": "id",
          "type": "uint256"
        },
        {
          "indexed": false,
          "internalType": "address",
          "name": "owner",
          "type": "address"
        }
      ],
      "name": "CampaignCancelled",
      "type": "event"
    },
    {
      "anonymous": false,
      "inputs": [
        {
          "indexed": true,
          "internalType": "uint256",
          "name": "id",
          "type": "uint256"
        },
        {
          "indexed": true,
          "internalType": "address",
          "name": "owner",
          "type": "address"
        },
        {
          "indexed": false,
          "internalType": "string",
          "name": "title",
          "type": "string"
        },
        {
          "indexed": false,
          "internalType": "uint256",
          "name": "target",
          "type": "uint256"
        },
        {
          "indexed": false,
          "internalType": "uint256",
          "name": "deadline",
          "type": "uint256"
        },
        {
          "indexed": false,
          "internalType": "enum CrowdFunding.Category",
          "name": "category",
          "type": "uint8"
        }
      ],
      "name": "CampaignCreated",
      "type": "event"
    },
    {
      "anonymous": false,
      "inputs": [
        {
          "indexed": false,
          "internalType": "uint256",
          "name": "id",
          "type": "uint256"
        },
        {
          "indexed": false,
          "internalType": "address",
          "name": "donator",
          "type": "address"
        },
        {
          "indexed": false,
          "internalType": "uint256",
          "name": "amount",
          "type": "uint256"
        }
      ],
      "name": "CampaignDonated",
      "type": "event"
    },
    {
      "anonymous": false,
      "inputs": [
        {
          "indexed": true,
          "internalType": "uint256",
          "name": "id",
          "type": "uint256"
        },
        {
          "indexed": true,
          "internalType": "address",
          "name": "owner",
          "type": "address"
        }
      ],
      "name": "CampaignPublished",
      "type": "event"
    },
    {
      "anonymous": false,
      "inputs": [
        {
          "indexed": false,
          "internalType": "uint256",
          "name": "id",
          "type": "uint256"
        }
      ],
      "name": "CampaignUpdated",
      "type": "event"
    },
    {
      "anonymous": false,
      "inputs": [
        {
          "indexed": false,
          "internalType": "uint256",
          "name": "id",
          "type": "uint256"
        },
        {
          "indexed": false,
          "internalType": "address",
          "name": "owner",
          "type": "address"
        },
        {
          "indexed": false,
          "internalType": "uint256",
          "name": "amount",
          "type": "uint256"
        }
      ],
      "name": "FundsWithdrawn",
      "type": "event"
    },
    {
      "anonymous": false,
      "inputs": [
        {
          "indexed": true,
          "internalType": "address",
          "name": "previousOwner",
          "type": "address"
        },
        {
          "indexed": true,
          "internalType": "address",
          "name": "newOwner",
          "type": "address"
        }
      ],
      "name": "OwnershipTransferred",
      "type": "event"
    },
    {
      "anonymous": false,
      "inputs": [
        {
          "indexed": true,
          "internalType": "address",
          "name": "from",
          "type": "address"
        },
        {
          "indexed": true,
          "internalType": "address",
          "name": "to",
          "type": "address"
        },
        {
          "indexed": true,
          "internalType": "uint256",
          "name": "tokenId",
          "type": "uint256"
        }
      ],
      "name": "Transfer",
      "type": "event"
    },
    {
      "inputs": [
        {
          "internalType": "address",
          "name": "to",
          "type": "address"
        },
        {
          "internalType": "uint256",
          "name": "tokenId",
          "type": "uint256"
        }
      ],
      "name": "approve",
      "outputs": [],
      "stateMutability": "nonpayable",
      "type": "function"
    },
    {
      "inputs": [
        {
          "internalType": "address",
          "name": "owner",
          "type": "address"
        }
      ],
      "name": "balanceOf",
      "outputs": [
        {
          "internalType": "uint256",
          "name": "",
          "type": "uint256"
        }
      ],
      "stateMutability": "view",
      "type": "function"
    },
    {
      "inputs": [],
      "name": "campaignCount",
      "outputs": [
        {
          "internalType": "uint256",
          "name": "",
          "type": "uint256"
        }
      ],
      "stateMutability": "view",
      "type": "function"
    },
    {
      "inputs": [
        {
          "internalType": "uint256",
          "name": "",
          "type": "uint256"
        },
        {
          "internalType": "address",
          "name": "",
          "type": "address"
        }
      ],
      "name": "campaignDonors",
      "outputs": [
        {
          "internalType": "uint128",
          "name": "amount",
          "type": "uint128"
        },
        {
          "internalType": "uint64",
          "name": "timestamp",
          "type": "uint64"
        },
        {
          "internalType": "bool",
          "name": "hasDonated",
          "type": "bool"
        },
        {
          "internalType": "uint16",
          "name": "noOfDonations",
          "type": "uint16"
        }
      ],
      "stateMutability": "view",
      "type": "function"
    },
    {
      "inputs": [
        {
          "internalType": "uint256",
          "name": "",
          "type": "uint256"
        }
      ],
      "name": "campaigns",
      "outputs": [
        {
          "internalType": "uint256",
          "name": "id",
          "type": "uint256"
        },
        {
          "internalType": "address",
          "name": "owner",
          "type": "address"
        },
        {
          "internalType": "string",
          "name": "title",
          "type": "string"
        },
        {
          "internalType": "string",
          "name": "description",
          "type": "string"
        },
        {
          "internalType": "uint256",
          "name": "target",
          "type": "uint256"
        },
        {
          "internalType": "uint256",
          "name": "deadline",
          "type": "uint256"
        },
        {
          "internalType": "uint256",
          "name": "amountCollected",
          "type": "uint256"
        },
        {
          "internalType": "uint256",
          "name": "withdrawnAmount",
          "type": "uint256"
        },
        {
          "internalType": "string",
          "name": "image",
          "type": "string"
        },
        {
          "internalType": "enum CrowdFunding.Category",
          "name": "category",
          "type": "uint8"
        },
        {
          "internalType": "enum CrowdFunding.CampaignStatus",
          "name": "status",
          "type": "uint8"
        },
        {
          "internalType": "uint256",
          "name": "donorCount",
          "type": "uint256"
        },
        {
          "internalType": "bool",
          "name": "allowFlexibleWithdrawal",
          "type": "bool"
        }
      ],
      "stateMutability": "view",
      "type": "function"
    },
    {
      "inputs": [
        {
          "internalType": "uint256",
          "name": "_id",
          "type": "uint256"
        }
      ],
      "name": "cancelDraftCampaign",
      "outputs": [],
      "stateMutability": "nonpayable",
      "type": "function"
    },
    {
      "inputs": [
        {
          "components": [
            {
              "internalType": "string",
              "name": "title",
              "type": "string"
            },
            {
              "internalType": "string",
              "name": "description",
              "type": "string"
            },
            {
              "internalType": "uint256",
              "name": "target",
              "type": "uint256"
            },
            {
              "internalType": "uint256",
              "name": "deadline",
              "type": "uint256"
            },
            {
              "internalType": "string",
              "name": "image",
              "type": "string"
            },
            {
              "internalType": "enum CrowdFunding.Category",
              "name": "category",
              "type": "uint8"
            },
            {
              "internalType": "bool",
              "name": "allowFlexibleWithdrawal",
              "type": "bool"
            }
          ],
          "internalType": "struct CrowdFunding.CampaignInput",
          "name": "input",
          "type": "tuple"
        }
      ],
      "name": "createDraft",
      "outputs": [
        {
          "internalType": "uint256",
          "name": "",
          "type": "uint256"
        }
      ],
      "stateMutability": "nonpayable",
      "type": "function"
    },
    {
      "inputs": [
        {
          "components": [
            {
              "internalType": "string",
              "name": "title",
              "type": "string"
            },
            {
              "internalType": "string",
              "name": "description",
              "type": "string"
            },
            {
              "internalType": "uint256",
              "name": "target",
              "type": "uint256"
            },
            {
              "internalType": "uint256",
              "name": "deadline",
              "type": "uint256"
            },
            {
              "internalType": "string",
              "name": "image",
              "type": "string"
            },
            {
              "internalType": "enum CrowdFunding.Category",
              "name": "category",
              "type": "uint8"
            },
            {
              "internalType": "bool",
              "name": "allowFlexibleWithdrawal",
              "type": "bool"
            }
          ],
          "internalType": "struct CrowdFunding.CampaignInput",
          "name": "input",
          "type": "tuple"
        }
      ],
      "name": "createPublishedCampaign",
      "outputs": [
        {
          "internalType": "uint256",
          "name": "",
          "type": "uint256"
        }
      ],
      "stateMutability": "nonpayable",
      "type": "function"
    },
    {
      "inputs": [
        {
          "internalType": "uint256",
          "name": "_id",
          "type": "uint256"
        }
      ],
      "name": "donateToCampaign",
      "outputs": [],
      "stateMutability": "payable",
      "type": "function"
    },
    {
      "inputs": [],
      "name": "getActiveCampaigns",
      "outputs": [
        {
          "components": [
            {
              "internalType": "uint256",
              "name": "id",
              "type": "uint256"
            },
            {
              "internalType": "address",
              "name": "owner",
              "type": "address"
            },
            {
              "internalType": "string",
              "name": "title",
              "type": "string"
            },
            {
              "internalType": "string",
              "name": "description",
              "type": "string"
            },
            {
              "internalType": "uint256",
              "name": "target",
              "type": "uint256"
            },
            {
              "internalType": "uint256",
              "name": "deadline",
              "type": "uint256"
            },
            {
              "internalType": "uint256",
              "name": "amountCollected",
              "type": "uint256"
            },
            {
              "internalType": "uint256",
              "name": "withdrawnAmount",
              "type": "uint256"
            },
            {
              "internalType": "string",
              "name": "image",
              "type": "string"
            },
            {
              "internalType": "enum CrowdFunding.Category",
              "name": "category",
              "type": "uint8"
            },
            {
              "internalType": "enum CrowdFunding.CampaignStatus",
              "name": "status",
              "type": "uint8"
            },
            {
              "internalType": "uint256",
              "name": "donorCount",
              "type": "uint256"
            },
            {
              "internalType": "bool",
              "name": "allowFlexibleWithdrawal",
              "type": "bool"
            }
          ],
          "internalType": "struct CrowdFunding.Campaign[]",
          "name": "",
          "type": "tuple[]"
        }
      ],
      "stateMutability": "view",
      "type": "function"
    },
    {
      "inputs": [
        {
          "internalType": "uint256",
          "name": "tokenId",
          "type": "uint256"
        }
      ],
      "name": "getApproved",
      "outputs": [
        {
          "internalType": "address",
          "name": "",
          "type": "address"
        }
      ],
      "stateMutability": "view",
      "type": "function"
    },
    {
      "inputs": [
        {
          "internalType": "uint256",
          "name": "_id",
          "type": "uint256"
        },
        {
          "internalType": "bool",
          "name": "publishedOnly",
          "type": "bool"
        }
      ],
      "name": "getCampaign",
      "outputs": [
        {
          "components": [
            {
              "internalType": "uint256",
              "name": "id",
              "type": "uint256"
            },
            {
              "internalType": "address",
              "name": "owner",
              "type": "address"
            },
            {
              "internalType": "string",
              "name": "title",
              "type": "string"
            },
            {
              "internalType": "string",
              "name": "description",
              "type": "string"
            },
            {
              "internalType": "uint256",
              "name": "target",
              "type": "uint256"
            },
            {
              "internalType": "uint256",
              "name": "deadline",
              "type": "uint256"
            },
            {
              "internalType": "uint256",
              "name": "amountCollected",
              "type": "uint256"
            },
            {
              "internalType": "uint256",
              "name": "withdrawnAmount",
              "type": "uint256"
            },
            {
              "internalType": "string",
              "name": "image",
              "type": "string"
            },
            {
              "internalType": "enum CrowdFunding.Category",
              "name": "category",
              "type": "uint8"
            },
            {
              "internalType": "enum CrowdFunding.CampaignStatus",
              "name": "status",
              "type": "uint8"
            },
            {
              "internalType": "uint256",
              "name": "donorCount",
              "type": "uint256"
            },
            {
              "internalType": "bool",
              "name": "allowFlexibleWithdrawal",
              "type": "bool"
            }
          ],
          "internalType": "struct CrowdFunding.Campaign",
          "name": "",
          "type": "tuple"
        }
      ],
      "stateMutability": "view",
      "type": "function"
    },
    {
      "inputs": [],
      "name": "getCampaigns",
      "outputs": [
        {
          "components": [
            {
              "internalType": "uint256",
              "name": "id",
              "type": "uint256"
            },
            {
              "internalType": "address",
              "name": "owner",
              "type": "address"
            },
            {
              "internalType": "string",
              "name": "title",
              "type": "string"
            },
            {
              "internalType": "string",
              "name": "description",
              "type": "string"
            },
            {
              "internalType": "uint256",
              "name": "target",
              "type": "uint256"
            },
            {
              "internalType": "uint256",
              "name": "deadline",
              "type": "uint256"
            },
            {
              "internalType": "uint256",
              "name": "amountCollected",
              "type": "uint256"
            },
            {
              "internalType": "uint256",
              "name": "withdrawnAmount",
              "type": "uint256"
            },
            {
              "internalType": "string",
              "name": "image",
              "type": "string"
            },
            {
              "internalType": "enum CrowdFunding.Category",
              "name": "category",
              "type": "uint8"
            },
            {
              "internalType": "enum CrowdFunding.CampaignStatus",
              "name": "status",
              "type": "uint8"
            },
            {
              "internalType": "uint256",
              "name": "donorCount",
              "type": "uint256"
            },
            {
              "internalType": "bool",
              "name": "allowFlexibleWithdrawal",
              "type": "bool"
            }
          ],
          "internalType": "struct CrowdFunding.Campaign[]",
          "name": "",
          "type": "tuple[]"
        }
      ],
      "stateMutability": "view",
      "type": "function"
    },
    {
      "inputs": [
        {
          "internalType": "enum CrowdFunding.Category",
          "name": "_category",
          "type": "uint8"
        }
      ],
      "name": "getCampaignsByCategory",
      "outputs": [
        {
          "components": [
            {
              "internalType": "uint256",
              "name": "id",
              "type": "uint256"
            },
            {
              "internalType": "address",
              "name": "owner",
              "type": "address"
            },
            {
              "internalType": "string",
              "name": "title",
              "type": "string"
            },
            {
              "internalType": "string",
              "name": "description",
              "type": "string"
            },
            {
              "internalType": "uint256",
              "name": "target",
              "type": "uint256"
            },
            {
              "internalType": "uint256",
              "name": "deadline",
              "type": "uint256"
            },
            {
              "internalType": "uint256",
              "name": "amountCollected",
              "type": "uint256"
            },
            {
              "internalType": "uint256",
              "name": "withdrawnAmount",
              "type": "uint256"
            },
            {
              "internalType": "string",
              "name": "image",
              "type": "string"
            },
            {
              "internalType": "enum CrowdFunding.Category",
              "name": "category",
              "type": "uint8"
            },
            {
              "internalType": "enum CrowdFunding.CampaignStatus",
              "name": "status",
              "type": "uint8"
            },
            {
              "internalType": "uint256",
              "name": "donorCount",
              "type": "uint256"
            },
            {
              "internalType": "bool",
              "name": "allowFlexibleWithdrawal",
              "type": "bool"
            }
          ],
          "internalType": "struct CrowdFunding.Campaign[]",
          "name": "",
          "type": "tuple[]"
        }
      ],
      "stateMutability": "view",
      "type": "function"
    },
    {
      "inputs": [
        {
          "internalType": "uint256",
          "name": "_id",
          "type": "uint256"
        }
      ],
      "name": "getDonorCount",
      "outputs": [
        {
          "internalType": "uint256",
          "name": "",
          "type": "uint256"
        }
      ],
      "stateMutability": "view",
      "type": "function"
    },
    {
      "inputs": [
        {
          "internalType": "uint256",
          "name": "_id",
          "type": "uint256"
        },
        {
          "internalType": "address",
          "name": "_donor",
          "type": "address"
        }
      ],
      "name": "getDonorInfo",
      "outputs": [
        {
          "internalType": "uint256",
          "name": "amount",
          "type": "uint256"
        },
        {
          "internalType": "uint256",
          "name": "timestamp",
          "type": "uint256"
        },
        {
          "internalType": "uint16",
          "name": "noOfDonations",
          "type": "uint16"
        }
      ],
      "stateMutability": "view",
      "type": "function"
    },
    {
      "inputs": [
        {
          "components": [
            {
              "internalType": "uint256",
              "name": "offset",
              "type": "uint256"
            },
            {
              "internalType": "uint256",
              "name": "limit",
              "type": "uint256"
            }
          ],
          "internalType": "struct CrowdFunding.PaginationParams",
          "name": "params",
          "type": "tuple"
        }
      ],
      "name": "getPublishedCampaigns",
      "outputs": [
        {
          "components": [
            {
              "internalType": "uint256",
              "name": "id",
              "type": "uint256"
            },
            {
              "internalType": "address",
              "name": "owner",
              "type": "address"
            },
            {
              "internalType": "string",
              "name": "title",
              "type": "string"
            },
            {
              "internalType": "string",
              "name": "description",
              "type": "string"
            },
            {
              "internalType": "uint256",
              "name": "target",
              "type": "uint256"
            },
            {
              "internalType": "uint256",
              "name": "deadline",
              "type": "uint256"
            },
            {
              "internalType": "uint256",
              "name": "amountCollected",
              "type": "uint256"
            },
            {
              "internalType": "uint256",
              "name": "withdrawnAmount",
              "type": "uint256"
            },
            {
              "internalType": "string",
              "name": "image",
              "type": "string"
            },
            {
              "internalType": "enum CrowdFunding.Category",
              "name": "category",
              "type": "uint8"
            },
            {
              "internalType": "enum CrowdFunding.CampaignStatus",
              "name": "status",
              "type": "uint8"
            },
            {
              "internalType": "uint256",
              "name": "donorCount",
              "type": "uint256"
            },
            {
              "internalType": "bool",
              "name": "allowFlexibleWithdrawal",
              "type": "bool"
            }
          ],
          "internalType": "struct CrowdFunding.Campaign[]",
          "name": "_campaigns",
          "type": "tuple[]"
        },
        {
          "internalType": "uint256",
          "name": "total",
          "type": "uint256"
        }
      ],
      "stateMutability": "view",
      "type": "function"
    },
    {
      "inputs": [],
      "name": "getPublishedCampaigns2",
      "outputs": [
        {
          "components": [
            {
              "internalType": "uint256",
              "name": "id",
              "type": "uint256"
            },
            {
              "internalType": "address",
              "name": "owner",
              "type": "address"
            },
            {
              "internalType": "string",
              "name": "title",
              "type": "string"
            },
            {
              "internalType": "string",
              "name": "description",
              "type": "string"
            },
            {
              "internalType": "uint256",
              "name": "target",
              "type": "uint256"
            },
            {
              "internalType": "uint256",
              "name": "deadline",
              "type": "uint256"
            },
            {
              "internalType": "uint256",
              "name": "amountCollected",
              "type": "uint256"
            },
            {
              "internalType": "uint256",
              "name": "withdrawnAmount",
              "type": "uint256"
            },
            {
              "internalType": "string",
              "name": "image",
              "type": "string"
            },
            {
              "internalType": "enum CrowdFunding.Category",
              "name": "category",
              "type": "uint8"
            },
            {
              "internalType": "enum CrowdFunding.CampaignStatus",
              "name": "status",
              "type": "uint8"
            },
            {
              "internalType": "uint256",
              "name": "donorCount",
              "type": "uint256"
            },
            {
              "internalType": "bool",
              "name": "allowFlexibleWithdrawal",
              "type": "bool"
            }
          ],
          "internalType": "struct CrowdFunding.Campaign[]",
          "name": "",
          "type": "tuple[]"
        }
      ],
      "stateMutability": "view",
      "type": "function"
    },
    {
      "inputs": [
        {
          "internalType": "uint256",
          "name": "_id",
          "type": "uint256"
        }
      ],
      "name": "getRemainingBalance",
      "outputs": [
        {
          "internalType": "uint256",
          "name": "",
          "type": "uint256"
        }
      ],
      "stateMutability": "view",
      "type": "function"
    },
    {
      "inputs": [
        {
          "internalType": "address",
          "name": "_owner",
          "type": "address"
        }
      ],
      "name": "getUserActiveCampaigns",
      "outputs": [
        {
          "components": [
            {
              "internalType": "uint256",
              "name": "id",
              "type": "uint256"
            },
            {
              "internalType": "address",
              "name": "owner",
              "type": "address"
            },
            {
              "internalType": "string",
              "name": "title",
              "type": "string"
            },
            {
              "internalType": "string",
              "name": "description",
              "type": "string"
            },
            {
              "internalType": "uint256",
              "name": "target",
              "type": "uint256"
            },
            {
              "internalType": "uint256",
              "name": "deadline",
              "type": "uint256"
            },
            {
              "internalType": "uint256",
              "name": "amountCollected",
              "type": "uint256"
            },
            {
              "internalType": "uint256",
              "name": "withdrawnAmount",
              "type": "uint256"
            },
            {
              "internalType": "string",
              "name": "image",
              "type": "string"
            },
            {
              "internalType": "enum CrowdFunding.Category",
              "name": "category",
              "type": "uint8"
            },
            {
              "internalType": "enum CrowdFunding.CampaignStatus",
              "name": "status",
              "type": "uint8"
            },
            {
              "internalType": "uint256",
              "name": "donorCount",
              "type": "uint256"
            },
            {
              "internalType": "bool",
              "name": "allowFlexibleWithdrawal",
              "type": "bool"
            }
          ],
          "internalType": "struct CrowdFunding.Campaign[]",
          "name": "",
          "type": "tuple[]"
        }
      ],
      "stateMutability": "view",
      "type": "function"
    },
    {
      "inputs": [
        {
          "internalType": "address",
          "name": "_owner",
          "type": "address"
        }
      ],
      "name": "getUserCampaigns",
      "outputs": [
        {
          "components": [
            {
              "internalType": "uint256",
              "name": "id",
              "type": "uint256"
            },
            {
              "internalType": "address",
              "name": "owner",
              "type": "address"
            },
            {
              "internalType": "string",
              "name": "title",
              "type": "string"
            },
            {
              "internalType": "string",
              "name": "description",
              "type": "string"
            },
            {
              "internalType": "uint256",
              "name": "target",
              "type": "uint256"
            },
            {
              "internalType": "uint256",
              "name": "deadline",
              "type": "uint256"
            },
            {
              "internalType": "uint256",
              "name": "amountCollected",
              "type": "uint256"
            },
            {
              "internalType": "uint256",
              "name": "withdrawnAmount",
              "type": "uint256"
            },
            {
              "internalType": "string",
              "name": "image",
              "type": "string"
            },
            {
              "internalType": "enum CrowdFunding.Category",
              "name": "category",
              "type": "uint8"
            },
            {
              "internalType": "enum CrowdFunding.CampaignStatus",
              "name": "status",
              "type": "uint8"
            },
            {
              "internalType": "uint256",
              "name": "donorCount",
              "type": "uint256"
            },
            {
              "internalType": "bool",
              "name": "allowFlexibleWithdrawal",
              "type": "bool"
            }
          ],
          "internalType": "struct CrowdFunding.Campaign[]",
          "name": "",
          "type": "tuple[]"
        }
      ],
      "stateMutability": "view",
      "type": "function"
    },
    {
      "inputs": [
        {
          "internalType": "address",
          "name": "_owner",
          "type": "address"
        }
      ],
      "name": "getUserDraftCampaigns",
      "outputs": [
        {
          "components": [
            {
              "internalType": "uint256",
              "name": "id",
              "type": "uint256"
            },
            {
              "internalType": "address",
              "name": "owner",
              "type": "address"
            },
            {
              "internalType": "string",
              "name": "title",
              "type": "string"
            },
            {
              "internalType": "string",
              "name": "description",
              "type": "string"
            },
            {
              "internalType": "uint256",
              "name": "target",
              "type": "uint256"
            },
            {
              "internalType": "uint256",
              "name": "deadline",
              "type": "uint256"
            },
            {
              "internalType": "uint256",
              "name": "amountCollected",
              "type": "uint256"
            },
            {
              "internalType": "uint256",
              "name": "withdrawnAmount",
              "type": "uint256"
            },
            {
              "internalType": "string",
              "name": "image",
              "type": "string"
            },
            {
              "internalType": "enum CrowdFunding.Category",
              "name": "category",
              "type": "uint8"
            },
            {
              "internalType": "enum CrowdFunding.CampaignStatus",
              "name": "status",
              "type": "uint8"
            },
            {
              "internalType": "uint256",
              "name": "donorCount",
              "type": "uint256"
            },
            {
              "internalType": "bool",
              "name": "allowFlexibleWithdrawal",
              "type": "bool"
            }
          ],
          "internalType": "struct CrowdFunding.Campaign[]",
          "name": "",
          "type": "tuple[]"
        }
      ],
      "stateMutability": "view",
      "type": "function"
    },
    {
      "inputs": [
        {
          "internalType": "address",
          "name": "_owner",
          "type": "address"
        }
      ],
      "name": "getUserPublishedCampaigns",
      "outputs": [
        {
          "components": [
            {
              "internalType": "uint256",
              "name": "id",
              "type": "uint256"
            },
            {
              "internalType": "address",
              "name": "owner",
              "type": "address"
            },
            {
              "internalType": "string",
              "name": "title",
              "type": "string"
            },
            {
              "internalType": "string",
              "name": "description",
              "type": "string"
            },
            {
              "internalType": "uint256",
              "name": "target",
              "type": "uint256"
            },
            {
              "internalType": "uint256",
              "name": "deadline",
              "type": "uint256"
            },
            {
              "internalType": "uint256",
              "name": "amountCollected",
              "type": "uint256"
            },
            {
              "internalType": "uint256",
              "name": "withdrawnAmount",
              "type": "uint256"
            },
            {
              "internalType": "string",
              "name": "image",
              "type": "string"
            },
            {
              "internalType": "enum CrowdFunding.Category",
              "name": "category",
              "type": "uint8"
            },
            {
              "internalType": "enum CrowdFunding.CampaignStatus",
              "name": "status",
              "type": "uint8"
            },
            {
              "internalType": "uint256",
              "name": "donorCount",
              "type": "uint256"
            },
            {
              "internalType": "bool",
              "name": "allowFlexibleWithdrawal",
              "type": "bool"
            }
          ],
          "internalType": "struct CrowdFunding.Campaign[]",
          "name": "",
          "type": "tuple[]"
        }
      ],
      "stateMutability": "view",
      "type": "function"
    },
    {
      "inputs": [
        {
          "internalType": "address",
          "name": "owner",
          "type": "address"
        },
        {
          "internalType": "address",
          "name": "operator",
          "type": "address"
        }
      ],
      "name": "isApprovedForAll",
      "outputs": [
        {
          "internalType": "bool",
          "name": "",
          "type": "bool"
        }
      ],
      "stateMutability": "view",
      "type": "function"
    },
    {
      "inputs": [],
      "name": "name",
      "outputs": [
        {
          "internalType": "string",
          "name": "",
          "type": "string"
        }
      ],
      "stateMutability": "view",
      "type": "function"
    },
    {
      "inputs": [],
      "name": "owner",
      "outputs": [
        {
          "internalType": "address",
          "name": "",
          "type": "address"
        }
      ],
      "stateMutability": "view",
      "type": "function"
    },
    {
      "inputs": [
        {
          "internalType": "uint256",
          "name": "tokenId",
          "type": "uint256"
        }
      ],
      "name": "ownerOf",
      "outputs": [
        {
          "internalType": "address",
          "name": "",
          "type": "address"
        }
      ],
      "stateMutability": "view",
      "type": "function"
    },
    {
      "inputs": [
        {
          "internalType": "uint256",
          "name": "_id",
          "type": "uint256"
        }
      ],
      "name": "publishCampaign",
      "outputs": [],
      "stateMutability": "nonpayable",
      "type": "function"
    },
    {
      "inputs": [],
      "name": "renounceOwnership",
      "outputs": [],
      "stateMutability": "nonpayable",
      "type": "function"
    },
    {
      "inputs": [
        {
          "internalType": "address",
          "name": "from",
          "type": "address"
        },
        {
          "internalType": "address",
          "name": "to",
          "type": "address"
        },
        {
          "internalType": "uint256",
          "name": "tokenId",
          "type": "uint256"
        }
      ],
      "name": "safeTransferFrom",
      "outputs": [],
      "stateMutability": "nonpayable",
      "type": "function"
    },
    {
      "inputs": [
        {
          "internalType": "address",
          "name": "from",
          "type": "address"
        },
        {
          "internalType": "address",
          "name": "to",
          "type": "address"
        },
        {
          "internalType": "uint256",
          "name": "tokenId",
          "type": "uint256"
        },
        {
          "internalType": "bytes",
          "name": "data",
          "type": "bytes"
        }
      ],
      "name": "safeTransferFrom",
      "outputs": [],
      "stateMutability": "nonpayable",
      "type": "function"
    },
    {
      "inputs": [
        {
          "internalType": "address",
          "name": "operator",
          "type": "address"
        },
        {
          "internalType": "bool",
          "name": "approved",
          "type": "bool"
        }
      ],
      "name": "setApprovalForAll",
      "outputs": [],
      "stateMutability": "nonpayable",
      "type": "function"
    },
    {
      "inputs": [
        {
          "internalType": "bytes4",
          "name": "interfaceId",
          "type": "bytes4"
        }
      ],
      "name": "supportsInterface",
      "outputs": [
        {
          "internalType": "bool",
          "name": "",
          "type": "bool"
        }
      ],
      "stateMutability": "view",
      "type": "function"
    },
    {
      "inputs": [],
      "name": "symbol",
      "outputs": [
        {
          "internalType": "string",
          "name": "",
          "type": "string"
        }
      ],
      "stateMutability": "view",
      "type": "function"
    },
    {
      "inputs": [
        {
          "internalType": "uint256",
          "name": "tokenId",
          "type": "uint256"
        }
      ],
      "name": "tokenURI",
      "outputs": [
        {
          "internalType": "string",
          "name": "",
          "type": "string"
        }
      ],
      "stateMutability": "view",
      "type": "function"
    },
    {
      "inputs": [
        {
          "internalType": "address",
          "name": "from",
          "type": "address"
        },
        {
          "internalType": "address",
          "name": "to",
          "type": "address"
        },
        {
          "internalType": "uint256",
          "name": "tokenId",
          "type": "uint256"
        }
      ],
      "name": "transferFrom",
      "outputs": [],
      "stateMutability": "nonpayable",
      "type": "function"
    },
    {
      "inputs": [
        {
          "internalType": "address",
          "name": "newOwner",
          "type": "address"
        }
      ],
      "name": "transferOwnership",
      "outputs": [],
      "stateMutability": "nonpayable",
      "type": "function"
    },
    {
      "inputs": [
        {
          "components": [
            {
              "internalType": "uint256",
              "name": "id",
              "type": "uint256"
            },
            {
              "internalType": "string",
              "name": "title",
              "type": "string"
            },
            {
              "internalType": "string",
              "name": "description",
              "type": "string"
            },
            {
              "internalType": "uint256",
              "name": "target",
              "type": "uint256"
            },
            {
              "internalType": "uint256",
              "name": "deadline",
              "type": "uint256"
            },
            {
              "internalType": "string",
              "name": "image",
              "type": "string"
            },
            {
              "internalType": "enum CrowdFunding.Category",
              "name": "category",
              "type": "uint8"
            }
          ],
          "internalType": "struct CrowdFunding.CampaignUpdateInput",
          "name": "input",
          "type": "tuple"
        }
      ],
      "name": "updateDraftCampaign",
      "outputs": [],
      "stateMutability": "nonpayable",
      "type": "function"
    },
    {
      "inputs": [
        {
          "internalType": "uint256",
          "name": "_id",
          "type": "uint256"
        }
      ],
      "name": "withdrawCampaignFunds",
      "outputs": [],
      "stateMutability": "nonpayable",
      "type": "function"
    }
  ],
  "bytecode": "0x6080604052600060095534801561001557600080fd5b50336040518060400160405280600c81526020016b43726f776446756e64696e6760a01b8152506040518060400160405280600581526020016410d493d5d160da1b815250816000908161006991906101a7565b50600161007682826101a7565b5050506001600160a01b0381166100a757604051631e4fbdf760e01b81526000600482015260240160405180910390fd5b6100b0816100b6565b50610265565b600680546001600160a01b038381166001600160a01b0319831681179093556040519116919082907f8be0079c531659141344cd1fd0a4f28419497f9722a3daafe3b4186f6b6457e090600090a35050565b634e487b7160e01b600052604160045260246000fd5b600181811c9082168061013257607f821691505b60208210810361015257634e487b7160e01b600052602260045260246000fd5b50919050565b601f8211156101a257806000526020600020601f840160051c8101602085101561017f5750805b601f840160051c820191505b8181101561019f576000815560010161018b565b50505b505050565b81516001600160401b038111156101c0576101c0610108565b6101d4816101ce845461011e565b84610158565b6020601f82116001811461020857600083156101f05750848201515b600019600385901b1c1916600184901b17845561019f565b600084815260208120601f198516915b828110156102385787850151825560209485019460019092019101610218565b50848210156102565786840151600019600387901b60f8161c191681555b50505050600190811b01905550565b615126806102746000396000f3fe6080604052600436106102305760003560e01c8063715018a61161012e578063b314df87116100ab578063d93df3a11161006f578063d93df3a11461075a578063e2205ecf1461077a578063e985e9c51461079a578063f0a603bc146107ba578063f2fde38b146107da57600080fd5b8063b314df87146106b8578063b88d4fde146106d8578063c362b156146106f8578063c87b56dd1461070d578063d224d9ec1461072d57600080fd5b806395d89b41116100f257806395d89b411461060f578063a1e5084c14610624578063a22cb46514610644578063a6b0363314610664578063b222f8aa1461067957600080fd5b8063715018a6146105865780637274e30d1461059b578063746920a8146105b157806378e94dd2146105d15780638da5cb5b146105f157600080fd5b806342a4fda8116101bc5780635a722f21116101805780635a722f21146104e35780635eb918a6146104f85780635f417535146105185780636352211e1461054657806370a082311461056657600080fd5b806342a4fda8146103ac5780634fa4479a146103bf57806350c4984c14610465578063517dbc5c146104855780635943c705146104b357600080fd5b80630cfc1e73116102035780630cfc1e73146102e657806314169e2a14610313578063141961bc1461033357806323b872dd1461036c57806342842e0e1461038c57600080fd5b806301ffc9a71461023557806306fdde031461026a578063081812fc1461028c578063095ea7b3146102c4575b600080fd5b34801561024157600080fd5b506102556102503660046147fd565b6107fa565b60405190151581526020015b60405180910390f35b34801561027657600080fd5b5061027f61084c565b604051610261919061486a565b34801561029857600080fd5b506102ac6102a736600461487d565b6108de565b6040516001600160a01b039091168152602001610261565b3480156102d057600080fd5b506102e46102df3660046148b2565b610907565b005b3480156102f257600080fd5b506103066103013660046148dc565b610916565b6040516102619190614a74565b34801561031f57600080fd5b506102e461032e36600461487d565b610d33565b34801561033f57600080fd5b5061035361034e36600461487d565b610ef5565b6040516102619d9c9b9a99989796959493929190614a87565b34801561037857600080fd5b506102e4610387366004614b38565b611100565b34801561039857600080fd5b506102e46103a7366004614b38565b611190565b6102e46103ba36600461487d565b6111b0565b3480156103cb57600080fd5b506104296103da366004614b75565b60076020908152600092835260408084209091529082529020546001600160801b03811690600160801b81046001600160401b031690600160c01b810460ff1690600160c81b900461ffff1684565b604080516001600160801b0390951685526001600160401b0390931660208501529015159183019190915261ffff166060820152608001610261565b34801561047157600080fd5b506102e4610480366004614bb3565b6113ae565b34801561049157600080fd5b506104a56104a0366004614bb3565b6115a9565b604051908152602001610261565b3480156104bf57600080fd5b506104a56104ce36600461487d565b6000908152600860205260409020600a015490565b3480156104ef57600080fd5b506103066117cd565b34801561050457600080fd5b506103066105133660046148dc565b611b99565b34801561052457600080fd5b50610538610533366004614be7565b611fc3565b604051610261929190614c02565b34801561055257600080fd5b506102ac61056136600461487d565b6123de565b34801561057257600080fd5b506104a56105813660046148dc565b6123e9565b34801561059257600080fd5b506102e4612431565b3480156105a757600080fd5b506104a560095481565b3480156105bd57600080fd5b506103066105cc3660046148dc565b612445565b3480156105dd57600080fd5b506104a56105ec36600461487d565b6128a7565b3480156105fd57600080fd5b506006546001600160a01b03166102ac565b34801561061b57600080fd5b5061027f6128d0565b34801561063057600080fd5b5061030661063f3660046148dc565b6128df565b34801561065057600080fd5b506102e461065f366004614c34565b612c9b565b34801561067057600080fd5b50610306612ca6565b34801561068557600080fd5b50610699610694366004614b75565b612fd8565b60408051938452602084019290925261ffff1690820152606001610261565b3480156106c457600080fd5b506104a56106d3366004614bb3565b6130bf565b3480156106e457600080fd5b506102e46106f3366004614c74565b61326a565b34801561070457600080fd5b50610306613282565b34801561071957600080fd5b5061027f61072836600461487d565b61367f565b34801561073957600080fd5b5061074d610748366004614d55565b6136f3565b6040516102619190614d78565b34801561076657600080fd5b50610306610775366004614d8b565b613a04565b34801561078657600080fd5b506102e461079536600461487d565b613e4b565b3480156107a657600080fd5b506102556107b5366004614dac565b613f2d565b3480156107c657600080fd5b506102e46107d536600461487d565b613f5b565b3480156107e657600080fd5b506102e46107f53660046148dc565b614067565b60006001600160e01b031982166380ac58cd60e01b148061082b57506001600160e01b03198216635b5e139f60e01b145b8061084657506301ffc9a760e01b6001600160e01b03198316145b92915050565b60606000805461085b90614dd6565b80601f016020809104026020016040519081016040528092919081815260200182805461088790614dd6565b80156108d45780601f106108a9576101008083540402835291602001916108d4565b820191906000526020600020905b8154815290600101906020018083116108b757829003601f168201915b5050505050905090565b60006108e9826140a5565b506000828152600460205260409020546001600160a01b0316610846565b6109128282336140de565b5050565b60606000805b600954811015610996576000818152600860205260409020600101546001600160a01b03858116911614801561097b575060008082815260086020526040902060090154610100900460ff166002811115610979576109796148f7565b145b1561098e578161098a81614e20565b9250505b60010161091c565b506000816001600160401b038111156109b1576109b1614c5e565b6040519080825280602002602001820160405280156109ea57816020015b6109d7614765565b8152602001906001900390816109cf5790505b5090506000805b600954811015610d29576000818152600860205260409020600101546001600160a01b038781169116148015610a50575060008082815260086020526040902060090154610100900460ff166002811115610a4e57610a4e6148f7565b145b15610d215760008181526008602090815260409182902082516101a0810184528154815260018201546001600160a01b0316928101929092526002810180549293919291840191610aa090614dd6565b80601f0160208091040260200160405190810160405280929190818152602001828054610acc90614dd6565b8015610b195780601f10610aee57610100808354040283529160200191610b19565b820191906000526020600020905b815481529060010190602001808311610afc57829003601f168201915b50505050508152602001600382018054610b3290614dd6565b80601f0160208091040260200160405190810160405280929190818152602001828054610b5e90614dd6565b8015610bab5780601f10610b8057610100808354040283529160200191610bab565b820191906000526020600020905b815481529060010190602001808311610b8e57829003601f168201915b5050505050815260200160048201548152602001600582015481526020016006820154815260200160078201548152602001600882018054610bec90614dd6565b80601f0160208091040260200160405190810160405280929190818152602001828054610c1890614dd6565b8015610c655780601f10610c3a57610100808354040283529160200191610c65565b820191906000526020600020905b815481529060010190602001808311610c4857829003601f168201915b5050509183525050600982015460209091019060ff166005811115610c8c57610c8c6148f7565b6005811115610c9d57610c9d6148f7565b81526020016009820160019054906101000a900460ff166002811115610cc557610cc56148f7565b6002811115610cd657610cd66148f7565b8152600a8201546020820152600b9091015460ff1615156040909101528351849084908110610d0757610d07614e39565b60200260200101819052508180610d1d90614e20565b9250505b6001016109f1565b5090949350505050565b806009548110610d56576040516337f9b70b60e11b815260040160405180910390fd5b60008281526008602052604090206001015482906001600160a01b03163314610d9257604051632552cded60e11b815260040160405180910390fd5b600083815260086020526040812060078101546006820154919291610db79190614e4f565b905080600003610dda57604051631e9acf1760e31b815260040160405180910390fd5b600b82015460ff16610e0a5781600501544211610e0a5760405163b4469b3560e01b815260040160405180910390fd5b600081905080836007016000828254610e239190614e62565b909155505060018301546040516000916001600160a01b03169083908381818185875af1925050503d8060008114610e77576040519150601f19603f3d011682016040523d82523d6000602084013e610e7c565b606091505b5050905080610e9e576040516327fcd9d160e01b815260040160405180910390fd5b6001840154604080518981526001600160a01b03909216602083015281018390527ff440aec6b52895984d061d622e6edeba6210f7c3e059be920663140c084560d79060600160405180910390a150505050505050565b60086020526000908152604090208054600182015460028301805492936001600160a01b0390921692610f2790614dd6565b80601f0160208091040260200160405190810160405280929190818152602001828054610f5390614dd6565b8015610fa05780601f10610f7557610100808354040283529160200191610fa0565b820191906000526020600020905b815481529060010190602001808311610f8357829003601f168201915b505050505090806003018054610fb590614dd6565b80601f0160208091040260200160405190810160405280929190818152602001828054610fe190614dd6565b801561102e5780601f106110035761010080835404028352916020019161102e565b820191906000526020600020905b81548152906001019060200180831161101157829003601f168201915b50505050509080600401549080600501549080600601549080600701549080600801805461105b90614dd6565b80601f016020809104026020016040519081016040528092919081815260200182805461108790614dd6565b80156110d45780601f106110a9576101008083540402835291602001916110d4565b820191906000526020600020905b8154815290600101906020018083116110b757829003601f168201915b5050506009840154600a850154600b90950154939460ff8083169561010090930481169450909250168d565b6001600160a01b03821661112f57604051633250574960e11b8152600060048201526024015b60405180910390fd5b600061113c8383336140eb565b9050836001600160a01b0316816001600160a01b03161461118a576040516364283d7b60e01b81526001600160a01b0380861660048301526024820184905282166044820152606401611126565b50505050565b6111ab8383836040518060200160405280600081525061326a565b505050565b8060095481106111d3576040516337f9b70b60e11b815260040160405180910390fd5b60008281526008602052604081209034900361120257604051636370392160e11b815260040160405180910390fd5b60016009820154610100900460ff166002811115611222576112226148f7565b1461124057604051639109fdd160e01b815260040160405180910390fd5b428160050154116112645760405163154eb81560e21b815260040160405180910390fd5b600083815260076020908152604080832033845290915290208054600160c01b900460ff166112a557600a8201805490600061129f83614e20565b91905055505b8054349082906000906112c29084906001600160801b0316614e75565b82546001600160801b039182166101009390930a928302919092021990911617905550805460ff60c01b196001600160401b034216600160801b021668ffffffffffffffffff60801b1990911617600160c01b1780825561ffff600160c81b9091041681601961133183614e94565b91906101000a81548161ffff021916908361ffff16021790555050348260060160008282546113609190614e62565b90915550506040805185815233602082015234918101919091527fab9c35171e39c1e9e36544edfe4e6f20d5ebcb0daefd9c2ea9a533e991fd6087906060015b60405180910390a150505050565b80356000818152600860205260409020600101546001600160a01b031633146113ea57604051632552cded60e11b815260040160405180910390fd5b813560008082815260086020526040902060090154610100900460ff166002811115611418576114186148f7565b146114365760405163ac49f26560e01b815260040160405180910390fd5b826060013560000361145b5760405163416aebb560e11b815260040160405180910390fd5b4283608001351161147f57604051631da7447960e21b815260040160405180910390fd5b600561149160e0850160c08601614d8b565b60058111156114a2576114a26148f7565b60ff1611156114c457604051636b3ac97b60e11b815260040160405180910390fd5b82356000908152600860209081526040909120906114e490850185614eb5565b60028301916114f4919083614f49565b506115026040850185614eb5565b6003830191611512919083614f49565b50606084013560048201556080840135600582015561153460a0850185614eb5565b6008830191611544919083614f49565b5061155560e0850160c08601614d8b565b60098201805460ff19166001836005811115611573576115736148f7565b0217905550604051843581527feb99199fa768b75351d1d205616eb313e8775bf75ad483f1a9c5dc947d9aa105906020016113a0565b600081604001356000036115d05760405163416aebb560e11b815260040160405180910390fd5b428260600135116115f457604051631da7447960e21b815260040160405180910390fd5b600561160660c0840160a08501614d8b565b6005811115611617576116176148f7565b60ff16111561163957604051636b3ac97b60e11b815260040160405180910390fd5b60095460008181526008602052604090208181556001810180546001600160a01b0319163317905561166b8480614eb5565b600283019161167b919083614f49565b506116896020850185614eb5565b6003830191611699919083614f49565b50604084013560048201556060840135600582015560006006820181905560078201556116c96080850185614eb5565b60088301916116d9919083614f49565b506116ea60c0850160a08601614d8b565b60098201805460ff19166001836005811115611708576117086148f7565b02179055506009810180546000919061ff001916610100835b02179055506000600a82015561173d60e0850160c08601615008565b600b8201805460ff19169115159190911790556009805490600061176083614e20565b90915550339050827fedf7acc766086eb7115234d49cc6c7dc174ac9db5fac309cde9fa65a8fd516bc6117938780614eb5565b604089013560608a01356117ad60c08c0160a08d01614d8b565b6040516117be959493929190615023565b60405180910390a35092915050565b60606000805b600954811015611825576001600082815260086020526040902060090154610100900460ff16600281111561180a5761180a6148f7565b0361181d578161181981614e20565b9250505b6001016117d3565b506000816001600160401b0381111561184057611840614c5e565b60405190808252806020026020018201604052801561187957816020015b611866614765565b81526020019060019003908161185e5790505b5090506000805b600954811015611b90576001600082815260086020526040902060090154610100900460ff1660028111156118b7576118b76148f7565b03611b885760008181526008602090815260409182902082516101a0810184528154815260018201546001600160a01b031692810192909252600281018054929391929184019161190790614dd6565b80601f016020809104026020016040519081016040528092919081815260200182805461193390614dd6565b80156119805780601f1061195557610100808354040283529160200191611980565b820191906000526020600020905b81548152906001019060200180831161196357829003601f168201915b5050505050815260200160038201805461199990614dd6565b80601f01602080910402602001604051908101604052809291908181526020018280546119c590614dd6565b8015611a125780601f106119e757610100808354040283529160200191611a12565b820191906000526020600020905b8154815290600101906020018083116119f557829003601f168201915b5050505050815260200160048201548152602001600582015481526020016006820154815260200160078201548152602001600882018054611a5390614dd6565b80601f0160208091040260200160405190810160405280929190818152602001828054611a7f90614dd6565b8015611acc5780601f10611aa157610100808354040283529160200191611acc565b820191906000526020600020905b815481529060010190602001808311611aaf57829003601f168201915b5050509183525050600982015460209091019060ff166005811115611af357611af36148f7565b6005811115611b0457611b046148f7565b81526020016009820160019054906101000a900460ff166002811115611b2c57611b2c6148f7565b6002811115611b3d57611b3d6148f7565b8152600a8201546020820152600b9091015460ff1615156040909101528351849084908110611b6e57611b6e614e39565b60200260200101819052508180611b8490614e20565b9250505b600101611880565b50909392505050565b60606000805b600954811015611c1a576000818152600860205260409020600101546001600160a01b038581169116148015611bff57506001600082815260086020526040902060090154610100900460ff166002811115611bfd57611bfd6148f7565b145b15611c125781611c0e81614e20565b9250505b600101611b9f565b506000816001600160401b03811115611c3557611c35614c5e565b604051908082528060200260200182016040528015611c6e57816020015b611c5b614765565b815260200190600190039081611c535790505b5090506000805b60095481108015611c8557508382105b15610d29576000818152600860205260409020600101546001600160a01b038781169116148015611ce057506001600082815260086020526040902060090154610100900460ff166002811115611cde57611cde6148f7565b145b15611fb15760008181526008602090815260409182902082516101a0810184528154815260018201546001600160a01b0316928101929092526002810180549293919291840191611d3090614dd6565b80601f0160208091040260200160405190810160405280929190818152602001828054611d5c90614dd6565b8015611da95780601f10611d7e57610100808354040283529160200191611da9565b820191906000526020600020905b815481529060010190602001808311611d8c57829003601f168201915b50505050508152602001600382018054611dc290614dd6565b80601f0160208091040260200160405190810160405280929190818152602001828054611dee90614dd6565b8015611e3b5780601f10611e1057610100808354040283529160200191611e3b565b820191906000526020600020905b815481529060010190602001808311611e1e57829003601f168201915b5050505050815260200160048201548152602001600582015481526020016006820154815260200160078201548152602001600882018054611e7c90614dd6565b80601f0160208091040260200160405190810160405280929190818152602001828054611ea890614dd6565b8015611ef55780601f10611eca57610100808354040283529160200191611ef5565b820191906000526020600020905b815481529060010190602001808311611ed857829003601f168201915b5050509183525050600982015460209091019060ff166005811115611f1c57611f1c6148f7565b6005811115611f2d57611f2d6148f7565b81526020016009820160019054906101000a900460ff166002811115611f5557611f556148f7565b6002811115611f6657611f666148f7565b8152600a8201546020820152600b9091015460ff1615156040909101528351849084908110611f9757611f97614e39565b60200260200101819052508180611fad90614e20565b9250505b80611fbb81614e20565b915050611c75565b6060600080805b60095481101561201c576001600082815260086020526040902060090154610100900460ff166002811115612001576120016148f7565b03612014578261201081614e20565b9350505b600101611fca565b5060208401358261202e828735614e62565b11156120425761203f853584614e4f565b90505b806001600160401b0381111561205a5761205a614c5e565b60405190808252806020026020018201604052801561209357816020015b612080614765565b8152602001906001900390816120785790505b5093506000805b600954811080156120aa57508282105b156123d5576001600082815260086020526040902060090154610100900460ff1660028111156120dc576120dc6148f7565b036123c357863584106123b55760008181526008602090815260409182902082516101a0810184528154815260018201546001600160a01b031692810192909252600281018054929391929184019161213490614dd6565b80601f016020809104026020016040519081016040528092919081815260200182805461216090614dd6565b80156121ad5780601f10612182576101008083540402835291602001916121ad565b820191906000526020600020905b81548152906001019060200180831161219057829003601f168201915b505050505081526020016003820180546121c690614dd6565b80601f01602080910402602001604051908101604052809291908181526020018280546121f290614dd6565b801561223f5780601f106122145761010080835404028352916020019161223f565b820191906000526020600020905b81548152906001019060200180831161222257829003601f168201915b505050505081526020016004820154815260200160058201548152602001600682015481526020016007820154815260200160088201805461228090614dd6565b80601f01602080910402602001604051908101604052809291908181526020018280546122ac90614dd6565b80156122f95780601f106122ce576101008083540402835291602001916122f9565b820191906000526020600020905b8154815290600101906020018083116122dc57829003601f168201915b5050509183525050600982015460209091019060ff166005811115612320576123206148f7565b6005811115612331576123316148f7565b81526020016009820160019054906101000a900460ff166002811115612359576123596148f7565b600281111561236a5761236a6148f7565b8152600a8201546020820152600b9091015460ff161515604090910152865187908490811061239b5761239b614e39565b602002602001018190525081806123b190614e20565b9250505b836123bf81614e20565b9450505b806123cd81614e20565b91505061209a565b50505050915091565b6000610846826140a5565b60006001600160a01b038216612415576040516322718ad960e21b815260006004820152602401611126565b506001600160a01b031660009081526003602052604090205490565b6124396141e4565b6124436000614211565b565b60606000805b6009548110156124e2576000818152600860205260409020600101546001600160a01b0385811691161480156124ab57506001600082815260086020526040902060090154610100900460ff1660028111156124a9576124a96148f7565b145b80156124c7575060008181526008602052604090206005015442105b156124da57816124d681614e20565b9250505b60010161244b565b506000816001600160401b038111156124fd576124fd614c5e565b60405190808252806020026020018201604052801561253657816020015b612523614765565b81526020019060019003908161251b5790505b5090506000805b6009548110801561254d57508382105b15610d29576000818152600860205260409020600101546001600160a01b0387811691161480156125a857506001600082815260086020526040902060090154610100900460ff1660028111156125a6576125a66148f7565b145b80156125c4575060008181526008602052604090206005015442105b156128955760008181526008602090815260409182902082516101a0810184528154815260018201546001600160a01b031692810192909252600281018054929391929184019161261490614dd6565b80601f016020809104026020016040519081016040528092919081815260200182805461264090614dd6565b801561268d5780601f106126625761010080835404028352916020019161268d565b820191906000526020600020905b81548152906001019060200180831161267057829003601f168201915b505050505081526020016003820180546126a690614dd6565b80601f01602080910402602001604051908101604052809291908181526020018280546126d290614dd6565b801561271f5780601f106126f45761010080835404028352916020019161271f565b820191906000526020600020905b81548152906001019060200180831161270257829003601f168201915b505050505081526020016004820154815260200160058201548152602001600682015481526020016007820154815260200160088201805461276090614dd6565b80601f016020809104026020016040519081016040528092919081815260200182805461278c90614dd6565b80156127d95780601f106127ae576101008083540402835291602001916127d9565b820191906000526020600020905b8154815290600101906020018083116127bc57829003601f168201915b5050509183525050600982015460209091019060ff166005811115612800576128006148f7565b6005811115612811576128116148f7565b81526020016009820160019054906101000a900460ff166002811115612839576128396148f7565b600281111561284a5761284a6148f7565b8152600a8201546020820152600b9091015460ff161515604090910152835184908490811061287b5761287b614e39565b6020026020010181905250818061289190614e20565b9250505b8061289f81614e20565b91505061253d565b6000818152600860205260408120600781015460068201546128c99190614e4f565b9392505050565b60606001805461085b90614dd6565b60606000805b600954811015612929576000818152600860205260409020600101546001600160a01b03808616911603612921578161291d81614e20565b9250505b6001016128e5565b506000816001600160401b0381111561294457612944614c5e565b60405190808252806020026020018201604052801561297d57816020015b61296a614765565b8152602001906001900390816129625790505b5090506000805b6009548110801561299457508382105b15610d29576000818152600860205260409020600101546001600160a01b03808816911603612c895760008181526008602090815260409182902082516101a0810184528154815260018201546001600160a01b0316928101929092526002810180549293919291840191612a0890614dd6565b80601f0160208091040260200160405190810160405280929190818152602001828054612a3490614dd6565b8015612a815780601f10612a5657610100808354040283529160200191612a81565b820191906000526020600020905b815481529060010190602001808311612a6457829003601f168201915b50505050508152602001600382018054612a9a90614dd6565b80601f0160208091040260200160405190810160405280929190818152602001828054612ac690614dd6565b8015612b135780601f10612ae857610100808354040283529160200191612b13565b820191906000526020600020905b815481529060010190602001808311612af657829003601f168201915b5050505050815260200160048201548152602001600582015481526020016006820154815260200160078201548152602001600882018054612b5490614dd6565b80601f0160208091040260200160405190810160405280929190818152602001828054612b8090614dd6565b8015612bcd5780601f10612ba257610100808354040283529160200191612bcd565b820191906000526020600020905b815481529060010190602001808311612bb057829003601f168201915b5050509183525050600982015460209091019060ff166005811115612bf457612bf46148f7565b6005811115612c0557612c056148f7565b81526020016009820160019054906101000a900460ff166002811115612c2d57612c2d6148f7565b6002811115612c3e57612c3e6148f7565b8152600a8201546020820152600b9091015460ff1615156040909101528351849084908110612c6f57612c6f614e39565b60200260200101819052508180612c8590614e20565b9250505b80612c9381614e20565b915050612984565b610912338383614263565b606060006009546001600160401b03811115612cc457612cc4614c5e565b604051908082528060200260200182016040528015612cfd57816020015b612cea614765565b815260200190600190039081612ce25790505b50905060005b600954811015612fd25760008181526008602090815260409182902082516101a0810184528154815260018201546001600160a01b0316928101929092526002810180549293919291840191612d5890614dd6565b80601f0160208091040260200160405190810160405280929190818152602001828054612d8490614dd6565b8015612dd15780601f10612da657610100808354040283529160200191612dd1565b820191906000526020600020905b815481529060010190602001808311612db457829003601f168201915b50505050508152602001600382018054612dea90614dd6565b80601f0160208091040260200160405190810160405280929190818152602001828054612e1690614dd6565b8015612e635780601f10612e3857610100808354040283529160200191612e63565b820191906000526020600020905b815481529060010190602001808311612e4657829003601f168201915b5050505050815260200160048201548152602001600582015481526020016006820154815260200160078201548152602001600882018054612ea490614dd6565b80601f0160208091040260200160405190810160405280929190818152602001828054612ed090614dd6565b8015612f1d5780601f10612ef257610100808354040283529160200191612f1d565b820191906000526020600020905b815481529060010190602001808311612f0057829003601f168201915b5050509183525050600982015460209091019060ff166005811115612f4457612f446148f7565b6005811115612f5557612f556148f7565b81526020016009820160019054906101000a900460ff166002811115612f7d57612f7d6148f7565b6002811115612f8e57612f8e6148f7565b8152600a8201546020820152600b9091015460ff1615156040909101528251839083908110612fbf57612fbf614e39565b6020908102919091010152600101612d03565b50919050565b6000806000846009548110613000576040516337f9b70b60e11b815260040160405180910390fd5b60008681526007602090815260408083206001600160a01b0389168452825291829020825160808101845290546001600160801b0381168252600160801b81046001600160401b031692820192909252600160c01b820460ff161515928101839052600160c81b90910461ffff16606082015290613090576040516285968560e71b815260040160405180910390fd5b805160208201516060909201516001600160801b03909116986001600160401b03909216975095509350505050565b600081604001356000036130e65760405163416aebb560e11b815260040160405180910390fd5b4282606001351161310a57604051631da7447960e21b815260040160405180910390fd5b600561311c60c0840160a08501614d8b565b600581111561312d5761312d6148f7565b60ff16111561314f57604051636b3ac97b60e11b815260040160405180910390fd5b61315c6080830183614eb5565b905060000361317e5760405163cac4011f60e01b815260040160405180910390fd5b60095460008181526008602052604090208181556001810180546001600160a01b031916331790556131b08480614eb5565b60028301916131c0919083614f49565b506131ce6020850185614eb5565b60038301916131de919083614f49565b506040840135600482015560608401356005820155600060068201819055600782015561320e6080850185614eb5565b600883019161321e919083614f49565b5061322f60c0850160a08601614d8b565b60098201805460ff1916600183600581111561324d5761324d6148f7565b02179055506009810180546001919061ff00191661010083611721565b613275848484611100565b61118a3385858585614302565b60606000805b6009548110156132f7576001600082815260086020526040902060090154610100900460ff1660028111156132bf576132bf6148f7565b1480156132dc575060008181526008602052604090206005015442105b156132ef57816132eb81614e20565b9250505b600101613288565b506000816001600160401b0381111561331257613312614c5e565b60405190808252806020026020018201604052801561334b57816020015b613338614765565b8152602001906001900390816133305790505b5090506000805b600954811015611b90576001600082815260086020526040902060090154610100900460ff166002811115613389576133896148f7565b1480156133a6575060008181526008602052604090206005015442105b156136775760008181526008602090815260409182902082516101a0810184528154815260018201546001600160a01b03169281019290925260028101805492939192918401916133f690614dd6565b80601f016020809104026020016040519081016040528092919081815260200182805461342290614dd6565b801561346f5780601f106134445761010080835404028352916020019161346f565b820191906000526020600020905b81548152906001019060200180831161345257829003601f168201915b5050505050815260200160038201805461348890614dd6565b80601f01602080910402602001604051908101604052809291908181526020018280546134b490614dd6565b80156135015780601f106134d657610100808354040283529160200191613501565b820191906000526020600020905b8154815290600101906020018083116134e457829003601f168201915b505050505081526020016004820154815260200160058201548152602001600682015481526020016007820154815260200160088201805461354290614dd6565b80601f016020809104026020016040519081016040528092919081815260200182805461356e90614dd6565b80156135bb5780601f10613590576101008083540402835291602001916135bb565b820191906000526020600020905b81548152906001019060200180831161359e57829003601f168201915b5050509183525050600982015460209091019060ff1660058111156135e2576135e26148f7565b60058111156135f3576135f36148f7565b81526020016009820160019054906101000a900460ff16600281111561361b5761361b6148f7565b600281111561362c5761362c6148f7565b8152600a8201546020820152600b9091015460ff161515604090910152835184908490811061365d5761365d614e39565b6020026020010181905250818061367390614e20565b9250505b600101613352565b606061368a826140a5565b5060006136a260408051602081019091526000815290565b905060008151116136c257604051806020016040528060008152506128c9565b806136cc8461442d565b6040516020016136dd929190615071565b6040516020818303038152906040529392505050565b6136fb614765565b82600954811061371e576040516337f9b70b60e11b815260040160405180910390fd5b600084815260086020908152604080832081516101a0810183528154815260018201546001600160a01b031693810193909352600281018054919284019161376590614dd6565b80601f016020809104026020016040519081016040528092919081815260200182805461379190614dd6565b80156137de5780601f106137b3576101008083540402835291602001916137de565b820191906000526020600020905b8154815290600101906020018083116137c157829003601f168201915b505050505081526020016003820180546137f790614dd6565b80601f016020809104026020016040519081016040528092919081815260200182805461382390614dd6565b80156138705780601f1061384557610100808354040283529160200191613870565b820191906000526020600020905b81548152906001019060200180831161385357829003601f168201915b50505050508152602001600482015481526020016005820154815260200160068201548152602001600782015481526020016008820180546138b190614dd6565b80601f01602080910402602001604051908101604052809291908181526020018280546138dd90614dd6565b801561392a5780601f106138ff5761010080835404028352916020019161392a565b820191906000526020600020905b81548152906001019060200180831161390d57829003601f168201915b5050509183525050600982015460209091019060ff166005811115613951576139516148f7565b6005811115613962576139626148f7565b81526020016009820160019054906101000a900460ff16600281111561398a5761398a6148f7565b600281111561399b5761399b6148f7565b8152600a8201546020820152600b9091015460ff16151560409091015290508380156139de5750600181610140015160028111156139db576139db6148f7565b14155b156139fc57604051639109fdd160e01b815260040160405180910390fd5b949350505050565b60606000805b600954811015613a9e57836005811115613a2657613a266148f7565b60008281526008602052604090206009015460ff166005811115613a4c57613a4c6148f7565b148015613a8357506001600082815260086020526040902060090154610100900460ff166002811115613a8157613a816148f7565b145b15613a965781613a9281614e20565b9250505b600101613a0a565b506000816001600160401b03811115613ab957613ab9614c5e565b604051908082528060200260200182016040528015613af257816020015b613adf614765565b815260200190600190039081613ad75790505b5090506000805b600954811015610d2957856005811115613b1557613b156148f7565b60008281526008602052604090206009015460ff166005811115613b3b57613b3b6148f7565b148015613b7257506001600082815260086020526040902060090154610100900460ff166002811115613b7057613b706148f7565b145b15613e435760008181526008602090815260409182902082516101a0810184528154815260018201546001600160a01b0316928101929092526002810180549293919291840191613bc290614dd6565b80601f0160208091040260200160405190810160405280929190818152602001828054613bee90614dd6565b8015613c3b5780601f10613c1057610100808354040283529160200191613c3b565b820191906000526020600020905b815481529060010190602001808311613c1e57829003601f168201915b50505050508152602001600382018054613c5490614dd6565b80601f0160208091040260200160405190810160405280929190818152602001828054613c8090614dd6565b8015613ccd5780601f10613ca257610100808354040283529160200191613ccd565b820191906000526020600020905b815481529060010190602001808311613cb057829003601f168201915b5050505050815260200160048201548152602001600582015481526020016006820154815260200160078201548152602001600882018054613d0e90614dd6565b80601f0160208091040260200160405190810160405280929190818152602001828054613d3a90614dd6565b8015613d875780601f10613d5c57610100808354040283529160200191613d87565b820191906000526020600020905b815481529060010190602001808311613d6a57829003601f168201915b5050509183525050600982015460209091019060ff166005811115613dae57613dae6148f7565b6005811115613dbf57613dbf6148f7565b81526020016009820160019054906101000a900460ff166002811115613de757613de76148f7565b6002811115613df857613df86148f7565b8152600a8201546020820152600b9091015460ff1615156040909101528351849084908110613e2957613e29614e39565b60200260200101819052508180613e3f90614e20565b9250505b600101613af9565b60008181526008602052604090206001015481906001600160a01b03163314613e8757604051632552cded60e11b815260040160405180910390fd5b8160008082815260086020526040902060090154610100900460ff166002811115613eb457613eb46148f7565b14613ed25760405163ac49f26560e01b815260040160405180910390fd5b60008381526008602052604090206009810180546002919061ff001916610100830217905550604080518581523360208201527f844c792f3d122ddfe76f9173cd5b48de3087f78395e0f62b94f9d471c991dcb291016113a0565b6001600160a01b03918216600090815260056020908152604080832093909416825291909152205460ff1690565b60008181526008602052604090206001015481906001600160a01b03163314613f9757604051632552cded60e11b815260040160405180910390fd5b8160008082815260086020526040902060090154610100900460ff166002811115613fc457613fc46148f7565b14613fe25760405163ac49f26560e01b815260040160405180910390fd5b6000838152600860208190526040909120908101805461400190614dd6565b90506000036140235760405163cac4011f60e01b815260040160405180910390fd5b60098101805461ff001916610100179055604051339085907f0a7083224233fc5630db51d4d433adf417be6f67e2f466bf1329565a341580a690600090a350505050565b61406f6141e4565b6001600160a01b03811661409957604051631e4fbdf760e01b815260006004820152602401611126565b6140a281614211565b50565b6000818152600260205260408120546001600160a01b03168061084657604051637e27328960e01b815260048101849052602401611126565b6111ab83838360016144c0565b6000828152600260205260408120546001600160a01b0390811690831615614118576141188184866145c6565b6001600160a01b03811615614156576141356000856000806144c0565b6001600160a01b038116600090815260036020526040902080546000190190555b6001600160a01b03851615614185576001600160a01b0385166000908152600360205260409020805460010190555b60008481526002602052604080822080546001600160a01b0319166001600160a01b0389811691821790925591518793918516917fddf252ad1be2c89b69c2b068fc378daa952ba7f163c4a11628f55a4df523b3ef91a4949350505050565b6006546001600160a01b031633146124435760405163118cdaa760e01b8152336004820152602401611126565b600680546001600160a01b038381166001600160a01b0319831681179093556040519116919082907f8be0079c531659141344cd1fd0a4f28419497f9722a3daafe3b4186f6b6457e090600090a35050565b6001600160a01b03821661429557604051630b61174360e31b81526001600160a01b0383166004820152602401611126565b6001600160a01b03838116600081815260056020908152604080832094871680845294825291829020805460ff191686151590811790915591519182527f17307eab39ab6107e8899845ad3d59bd9653f200f220920489ca2b5937696c31910160405180910390a3505050565b6001600160a01b0383163b1561442657604051630a85bd0160e11b81526001600160a01b0384169063150b7a02906143449088908890879087906004016150a0565b6020604051808303816000875af192505050801561437f575060408051601f3d908101601f1916820190925261437c918101906150d3565b60015b6143e8573d8080156143ad576040519150601f19603f3d011682016040523d82523d6000602084013e6143b2565b606091505b5080516000036143e057604051633250574960e11b81526001600160a01b0385166004820152602401611126565b805181602001fd5b6001600160e01b03198116630a85bd0160e11b1461442457604051633250574960e11b81526001600160a01b0385166004820152602401611126565b505b5050505050565b6060600061443a8361462a565b60010190506000816001600160401b0381111561445957614459614c5e565b6040519080825280601f01601f191660200182016040528015614483576020820181803683370190505b5090508181016020015b600019016f181899199a1a9b1b9c1cb0b131b232b360811b600a86061a8153600a850494508461448d575b509392505050565b80806144d457506001600160a01b03821615155b156145965760006144e4846140a5565b90506001600160a01b038316158015906145105750826001600160a01b0316816001600160a01b031614155b801561452357506145218184613f2d565b155b1561454c5760405163a9fbf51f60e01b81526001600160a01b0384166004820152602401611126565b81156145945783856001600160a01b0316826001600160a01b03167f8c5be1e5ebec7d5bd14f71427d1e84f3dd0314c0f7b2291e5b200ac8c7c3b92560405160405180910390a45b505b5050600090815260046020526040902080546001600160a01b0319166001600160a01b0392909216919091179055565b6145d1838383614702565b6111ab576001600160a01b0383166145ff57604051637e27328960e01b815260048101829052602401611126565b60405163177e802f60e01b81526001600160a01b038316600482015260248101829052604401611126565b60008072184f03e93ff9f4daa797ed6e38ed64bf6a1f0160401b83106146695772184f03e93ff9f4daa797ed6e38ed64bf6a1f0160401b830492506040015b6d04ee2d6d415b85acef81000000008310614695576d04ee2d6d415b85acef8100000000830492506020015b662386f26fc1000083106146b357662386f26fc10000830492506010015b6305f5e10083106146cb576305f5e100830492506008015b61271083106146df57612710830492506004015b606483106146f1576064830492506002015b600a83106108465760010192915050565b60006001600160a01b038316158015906139fc5750826001600160a01b0316846001600160a01b0316148061473c575061473c8484613f2d565b806139fc5750506000908152600460205260409020546001600160a01b03908116911614919050565b604051806101a001604052806000815260200160006001600160a01b0316815260200160608152602001606081526020016000815260200160008152602001600081526020016000815260200160608152602001600060058111156147cc576147cc6148f7565b81526020016000815260006020820181905260409091015290565b6001600160e01b0319811681146140a257600080fd5b60006020828403121561480f57600080fd5b81356128c9816147e7565b60005b8381101561483557818101518382015260200161481d565b50506000910152565b6000815180845261485681602086016020860161481a565b601f01601f19169290920160200192915050565b6020815260006128c9602083018461483e565b60006020828403121561488f57600080fd5b5035919050565b80356001600160a01b03811681146148ad57600080fd5b919050565b600080604083850312156148c557600080fd5b6148ce83614896565b946020939093013593505050565b6000602082840312156148ee57600080fd5b6128c982614896565b634e487b7160e01b600052602160045260246000fd5b6006811061491d5761491d6148f7565b9052565b6003811061491d5761491d6148f7565b805182526000602082015161495160208501826001600160a01b03169052565b5060408201516101a0604085015261496d6101a085018261483e565b905060608301518482036060860152614986828261483e565b9150506080830151608085015260a083015160a085015260c083015160c085015260e083015160e08501526101008301518482036101008601526149ca828261483e565b9150506101208301516149e161012086018261490d565b506101408301516149f6610140860182614921565b506101608301516101608501526101808301516144b861018086018215159052565b600082825180855260208501945060208160051b8301016020850160005b83811015614a6857601f19858403018852614a52838351614931565b6020988901989093509190910190600101614a36565b50909695505050505050565b6020815260006128c96020830184614a18565b8d81526001600160a01b038d1660208201526101a060408201819052600090614ab29083018e61483e565b8281036060840152614ac4818e61483e565b90508b60808401528a60a08401528960c08401528860e0840152828103610100840152614af1818961483e565b915050614b0261012083018761490d565b614b10610140830186614921565b83610160830152614b2661018083018415159052565b9e9d5050505050505050505050505050565b600080600060608486031215614b4d57600080fd5b614b5684614896565b9250614b6460208501614896565b929592945050506040919091013590565b60008060408385031215614b8857600080fd5b82359150614b9860208401614896565b90509250929050565b600060e08284031215612fd257600080fd5b600060208284031215614bc557600080fd5b81356001600160401b03811115614bdb57600080fd5b6139fc84828501614ba1565b60006040828403128015614bfa57600080fd5b509092915050565b604081526000614c156040830185614a18565b90508260208301529392505050565b803580151581146148ad57600080fd5b60008060408385031215614c4757600080fd5b614c5083614896565b9150614b9860208401614c24565b634e487b7160e01b600052604160045260246000fd5b60008060008060808587031215614c8a57600080fd5b614c9385614896565b9350614ca160208601614896565b92506040850135915060608501356001600160401b03811115614cc357600080fd5b8501601f81018713614cd457600080fd5b80356001600160401b03811115614ced57614ced614c5e565b604051601f8201601f19908116603f011681016001600160401b0381118282101715614d1b57614d1b614c5e565b604052818152828201602001891015614d3357600080fd5b8160208401602083013760006020838301015280935050505092959194509250565b60008060408385031215614d6857600080fd5b82359150614b9860208401614c24565b6020815260006128c96020830184614931565b600060208284031215614d9d57600080fd5b8135600681106128c957600080fd5b60008060408385031215614dbf57600080fd5b614dc883614896565b9150614b9860208401614896565b600181811c90821680614dea57607f821691505b602082108103612fd257634e487b7160e01b600052602260045260246000fd5b634e487b7160e01b600052601160045260246000fd5b600060018201614e3257614e32614e0a565b5060010190565b634e487b7160e01b600052603260045260246000fd5b8181038181111561084657610846614e0a565b8082018082111561084657610846614e0a565b6001600160801b03818116838216019081111561084657610846614e0a565b600061ffff821661ffff8103614eac57614eac614e0a565b60010192915050565b6000808335601e19843603018112614ecc57600080fd5b8301803591506001600160401b03821115614ee657600080fd5b602001915036819003821315614efb57600080fd5b9250929050565b601f8211156111ab57806000526020600020601f840160051c81016020851015614f295750805b601f840160051c820191505b818110156144265760008155600101614f35565b6001600160401b03831115614f6057614f60614c5e565b614f7483614f6e8354614dd6565b83614f02565b6000601f841160018114614fa85760008515614f905750838201355b600019600387901b1c1916600186901b178355614426565b600083815260209020601f19861690835b82811015614fd95786850135825560209485019460019092019101614fb9565b5086821015614ff65760001960f88860031b161c19848701351681555b505060018560011b0183555050505050565b60006020828403121561501a57600080fd5b6128c982614c24565b60808152846080820152848660a0830137600060a08683010152600060a0601f19601f8801168301019050846020830152836040830152615067606083018461490d565b9695505050505050565b6000835161508381846020880161481a565b83519083019061509781836020880161481a565b01949350505050565b6001600160a01b03858116825284166020820152604081018390526080606082018190526000906150679083018461483e565b6000602082840312156150e557600080fd5b81516128c9816147e756fea26469706673582212204d8187ae073d86dc34125698d273a740c84d923629ded240ce3f4cc5594ec79064736f6c634300081b0033",
  "linkReferences": {},
  "deployedLinkReferences": {}
}