{"abi":[{"type":"constructor","inputs":[],"stateMutability":"nonpayable"},{"type":"function","name":"campaignCount","inputs":[],"outputs":[{"name":"","type":"uint256","internalType":"uint256"}],"stateMutability":"view"},{"type":"function","name":"campaignDonors","inputs":[{"name":"","type":"uint256","internalType":"uint256"},{"name":"","type":"address","internalType":"address"}],"outputs":[{"name":"amount","type":"uint128","internalType":"uint128"},{"name":"timestamp","type":"uint64","internalType":"uint64"},{"name":"hasDonated","type":"bool","internalType":"bool"},{"name":"noOfDonations","type":"uint16","internalType":"uint16"}],"stateMutability":"view"},{"type":"function","name":"campaigns","inputs":[{"name":"","type":"uint256","internalType":"uint256"}],"outputs":[{"name":"id","type":"uint256","internalType":"uint256"},{"name":"owner","type":"address","internalType":"address"},{"name":"title","type":"string","internalType":"string"},{"name":"description","type":"string","internalType":"string"},{"name":"target","type":"uint256","internalType":"uint256"},{"name":"deadline","type":"uint256","internalType":"uint256"},{"name":"amountCollected","type":"uint256","internalType":"uint256"},{"name":"withdrawnAmount","type":"uint256","internalType":"uint256"},{"name":"image","type":"string","internalType":"string"},{"name":"category","type":"uint8","internalType":"enum CampaignLib.Category"},{"name":"status","type":"uint8","internalType":"enum CampaignLib.CampaignStatus"},{"name":"donorCount","type":"uint256","internalType":"uint256"},{"name":"allowFlexibleWithdrawal","type":"bool","internalType":"bool"}],"stateMutability":"view"},{"type":"function","name":"cancelDraftCampaign","inputs":[{"name":"_id","type":"uint256","internalType":"uint256"}],"outputs":[],"stateMutability":"nonpayable"},{"type":"function","name":"createDraft","inputs":[{"name":"input","type":"tuple","internalType":"struct CampaignLib.CampaignInput","components":[{"name":"title","type":"string","internalType":"string"},{"name":"description","type":"string","internalType":"string"},{"name":"target","type":"uint256","internalType":"uint256"},{"name":"deadline","type":"uint256","internalType":"uint256"},{"name":"image","type":"string","internalType":"string"},{"name":"category","type":"uint8","internalType":"enum CampaignLib.Category"},{"name":"allowFlexibleWithdrawal","type":"bool","internalType":"bool"}]}],"outputs":[{"name":"","type":"uint256","internalType":"uint256"}],"stateMutability":"nonpayable"},{"type":"function","name":"createPublishedCampaign","inputs":[{"name":"input","type":"tuple","internalType":"struct CampaignLib.CampaignInput","components":[{"name":"title","type":"string","internalType":"string"},{"name":"description","type":"string","internalType":"string"},{"name":"target","type":"uint256","internalType":"uint256"},{"name":"deadline","type":"uint256","internalType":"uint256"},{"name":"image","type":"string","internalType":"string"},{"name":"category","type":"uint8","internalType":"enum CampaignLib.Category"},{"name":"allowFlexibleWithdrawal","type":"bool","internalType":"bool"}]}],"outputs":[{"name":"","type":"uint256","internalType":"uint256"}],"stateMutability":"nonpayable"},{"type":"function","name":"donateToCampaign","inputs":[{"name":"_id","type":"uint256","internalType":"uint256"}],"outputs":[],"stateMutability":"payable"},{"type":"function","name":"getActiveCampaigns","inputs":[{"name":"params","type":"tuple","internalType":"struct CampaignLib.PaginationParams","components":[{"name":"offset","type":"uint256","internalType":"uint256"},{"name":"limit","type":"uint256","internalType":"uint256"}]}],"outputs":[{"name":"activeCampaigns","type":"tuple[]","internalType":"struct CampaignLib.Campaign[]","components":[{"name":"id","type":"uint256","internalType":"uint256"},{"name":"owner","type":"address","internalType":"address"},{"name":"title","type":"string","internalType":"string"},{"name":"description","type":"string","internalType":"string"},{"name":"target","type":"uint256","internalType":"uint256"},{"name":"deadline","type":"uint256","internalType":"uint256"},{"name":"amountCollected","type":"uint256","internalType":"uint256"},{"name":"withdrawnAmount","type":"uint256","internalType":"uint256"},{"name":"image","type":"string","internalType":"string"},{"name":"category","type":"uint8","internalType":"enum CampaignLib.Category"},{"name":"status","type":"uint8","internalType":"enum CampaignLib.CampaignStatus"},{"name":"donorCount","type":"uint256","internalType":"uint256"},{"name":"allowFlexibleWithdrawal","type":"bool","internalType":"bool"}]},{"name":"total","type":"uint256","internalType":"uint256"}],"stateMutability":"view"},{"type":"function","name":"getCampaign","inputs":[{"name":"_id","type":"uint256","internalType":"uint256"},{"name":"publishedOnly","type":"bool","internalType":"bool"}],"outputs":[{"name":"","type":"tuple","internalType":"struct CampaignLib.Campaign","components":[{"name":"id","type":"uint256","internalType":"uint256"},{"name":"owner","type":"address","internalType":"address"},{"name":"title","type":"string","internalType":"string"},{"name":"description","type":"string","internalType":"string"},{"name":"target","type":"uint256","internalType":"uint256"},{"name":"deadline","type":"uint256","internalType":"uint256"},{"name":"amountCollected","type":"uint256","internalType":"uint256"},{"name":"withdrawnAmount","type":"uint256","internalType":"uint256"},{"name":"image","type":"string","internalType":"string"},{"name":"category","type":"uint8","internalType":"enum CampaignLib.Category"},{"name":"status","type":"uint8","internalType":"enum CampaignLib.CampaignStatus"},{"name":"donorCount","type":"uint256","internalType":"uint256"},{"name":"allowFlexibleWithdrawal","type":"bool","internalType":"bool"}]}],"stateMutability":"view"},{"type":"function","name":"getCampaignById","inputs":[{"name":"_id","type":"uint256","internalType":"uint256"}],"outputs":[{"name":"","type":"tuple","internalType":"struct CampaignLib.Campaign","components":[{"name":"id","type":"uint256","internalType":"uint256"},{"name":"owner","type":"address","internalType":"address"},{"name":"title","type":"string","internalType":"string"},{"name":"description","type":"string","internalType":"string"},{"name":"target","type":"uint256","internalType":"uint256"},{"name":"deadline","type":"uint256","internalType":"uint256"},{"name":"amountCollected","type":"uint256","internalType":"uint256"},{"name":"withdrawnAmount","type":"uint256","internalType":"uint256"},{"name":"image","type":"string","internalType":"string"},{"name":"category","type":"uint8","internalType":"enum CampaignLib.Category"},{"name":"status","type":"uint8","internalType":"enum CampaignLib.CampaignStatus"},{"name":"donorCount","type":"uint256","internalType":"uint256"},{"name":"allowFlexibleWithdrawal","type":"bool","internalType":"bool"}]}],"stateMutability":"view"},{"type":"function","name":"getCampaignOwner","inputs":[{"name":"_id","type":"uint256","internalType":"uint256"}],"outputs":[{"name":"","type":"address","internalType":"address"}],"stateMutability":"view"},{"type":"function","name":"getCampaignStatus","inputs":[{"name":"_id","type":"uint256","internalType":"uint256"}],"outputs":[{"name":"","type":"uint8","internalType":"enum CampaignLib.CampaignStatus"}],"stateMutability":"view"},{"type":"function","name":"getCampaigns","inputs":[],"outputs":[{"name":"","type":"tuple[]","internalType":"struct CampaignLib.Campaign[]","components":[{"name":"id","type":"uint256","internalType":"uint256"},{"name":"owner","type":"address","internalType":"address"},{"name":"title","type":"string","internalType":"string"},{"name":"description","type":"string","internalType":"string"},{"name":"target","type":"uint256","internalType":"uint256"},{"name":"deadline","type":"uint256","internalType":"uint256"},{"name":"amountCollected","type":"uint256","internalType":"uint256"},{"name":"withdrawnAmount","type":"uint256","internalType":"uint256"},{"name":"image","type":"string","internalType":"string"},{"name":"category","type":"uint8","internalType":"enum CampaignLib.Category"},{"name":"status","type":"uint8","internalType":"enum CampaignLib.CampaignStatus"},{"name":"donorCount","type":"uint256","internalType":"uint256"},{"name":"allowFlexibleWithdrawal","type":"bool","internalType":"bool"}]}],"stateMutability":"view"},{"type":"function","name":"getCampaignsByCategory","inputs":[{"name":"_category","type":"uint8","internalType":"enum CampaignLib.Category"}],"outputs":[{"name":"","type":"tuple[]","internalType":"struct CampaignLib.Campaign[]","components":[{"name":"id","type":"uint256","internalType":"uint256"},{"name":"owner","type":"address","internalType":"address"},{"name":"title","type":"string","internalType":"string"},{"name":"description","type":"string","internalType":"string"},{"name":"target","type":"uint256","internalType":"uint256"},{"name":"deadline","type":"uint256","internalType":"uint256"},{"name":"amountCollected","type":"uint256","internalType":"uint256"},{"name":"withdrawnAmount","type":"uint256","internalType":"uint256"},{"name":"image","type":"string","internalType":"string"},{"name":"category","type":"uint8","internalType":"enum CampaignLib.Category"},{"name":"status","type":"uint8","internalType":"enum CampaignLib.CampaignStatus"},{"name":"donorCount","type":"uint256","internalType":"uint256"},{"name":"allowFlexibleWithdrawal","type":"bool","internalType":"bool"}]}],"stateMutability":"view"},{"type":"function","name":"getCompletedCampaigns","inputs":[{"name":"params","type":"tuple","internalType":"struct CampaignLib.PaginationParams","components":[{"name":"offset","type":"uint256","internalType":"uint256"},{"name":"limit","type":"uint256","internalType":"uint256"}]}],"outputs":[{"name":"completedCampaigns","type":"tuple[]","internalType":"struct CampaignLib.Campaign[]","components":[{"name":"id","type":"uint256","internalType":"uint256"},{"name":"owner","type":"address","internalType":"address"},{"name":"title","type":"string","internalType":"string"},{"name":"description","type":"string","internalType":"string"},{"name":"target","type":"uint256","internalType":"uint256"},{"name":"deadline","type":"uint256","internalType":"uint256"},{"name":"amountCollected","type":"uint256","internalType":"uint256"},{"name":"withdrawnAmount","type":"uint256","internalType":"uint256"},{"name":"image","type":"string","internalType":"string"},{"name":"category","type":"uint8","internalType":"enum CampaignLib.Category"},{"name":"status","type":"uint8","internalType":"enum CampaignLib.CampaignStatus"},{"name":"donorCount","type":"uint256","internalType":"uint256"},{"name":"allowFlexibleWithdrawal","type":"bool","internalType":"bool"}]},{"name":"total","type":"uint256","internalType":"uint256"}],"stateMutability":"view"},{"type":"function","name":"getDonorCount","inputs":[{"name":"_id","type":"uint256","internalType":"uint256"}],"outputs":[{"name":"","type":"uint256","internalType":"uint256"}],"stateMutability":"view"},{"type":"function","name":"getDonorInfo","inputs":[{"name":"_id","type":"uint256","internalType":"uint256"},{"name":"_donor","type":"address","internalType":"address"}],"outputs":[{"name":"amount","type":"uint256","internalType":"uint256"},{"name":"timestamp","type":"uint256","internalType":"uint256"},{"name":"noOfDonations","type":"uint16","internalType":"uint16"}],"stateMutability":"view"},{"type":"function","name":"getPublishedCampaigns","inputs":[{"name":"params","type":"tuple","internalType":"struct CrowdFunding.PaginationParams","components":[{"name":"offset","type":"uint256","internalType":"uint256"},{"name":"limit","type":"uint256","internalType":"uint256"}]}],"outputs":[{"name":"_campaigns","type":"tuple[]","internalType":"struct CampaignLib.Campaign[]","components":[{"name":"id","type":"uint256","internalType":"uint256"},{"name":"owner","type":"address","internalType":"address"},{"name":"title","type":"string","internalType":"string"},{"name":"description","type":"string","internalType":"string"},{"name":"target","type":"uint256","internalType":"uint256"},{"name":"deadline","type":"uint256","internalType":"uint256"},{"name":"amountCollected","type":"uint256","internalType":"uint256"},{"name":"withdrawnAmount","type":"uint256","internalType":"uint256"},{"name":"image","type":"string","internalType":"string"},{"name":"category","type":"uint8","internalType":"enum CampaignLib.Category"},{"name":"status","type":"uint8","internalType":"enum CampaignLib.CampaignStatus"},{"name":"donorCount","type":"uint256","internalType":"uint256"},{"name":"allowFlexibleWithdrawal","type":"bool","internalType":"bool"}]},{"name":"total","type":"uint256","internalType":"uint256"}],"stateMutability":"view"},{"type":"function","name":"getPublishedCampaignsUnpaginated","inputs":[],"outputs":[{"name":"","type":"tuple[]","internalType":"struct CampaignLib.Campaign[]","components":[{"name":"id","type":"uint256","internalType":"uint256"},{"name":"owner","type":"address","internalType":"address"},{"name":"title","type":"string","internalType":"string"},{"name":"description","type":"string","internalType":"string"},{"name":"target","type":"uint256","internalType":"uint256"},{"name":"deadline","type":"uint256","internalType":"uint256"},{"name":"amountCollected","type":"uint256","internalType":"uint256"},{"name":"withdrawnAmount","type":"uint256","internalType":"uint256"},{"name":"image","type":"string","internalType":"string"},{"name":"category","type":"uint8","internalType":"enum CampaignLib.Category"},{"name":"status","type":"uint8","internalType":"enum CampaignLib.CampaignStatus"},{"name":"donorCount","type":"uint256","internalType":"uint256"},{"name":"allowFlexibleWithdrawal","type":"bool","internalType":"bool"}]}],"stateMutability":"view"},{"type":"function","name":"getRemainingBalance","inputs":[{"name":"_id","type":"uint256","internalType":"uint256"}],"outputs":[{"name":"","type":"uint256","internalType":"uint256"}],"stateMutability":"view"},{"type":"function","name":"getUserActiveCampaigns","inputs":[{"name":"_owner","type":"address","internalType":"address"}],"outputs":[{"name":"","type":"tuple[]","internalType":"struct CampaignLib.Campaign[]","components":[{"name":"id","type":"uint256","internalType":"uint256"},{"name":"owner","type":"address","internalType":"address"},{"name":"title","type":"string","internalType":"string"},{"name":"description","type":"string","internalType":"string"},{"name":"target","type":"uint256","internalType":"uint256"},{"name":"deadline","type":"uint256","internalType":"uint256"},{"name":"amountCollected","type":"uint256","internalType":"uint256"},{"name":"withdrawnAmount","type":"uint256","internalType":"uint256"},{"name":"image","type":"string","internalType":"string"},{"name":"category","type":"uint8","internalType":"enum CampaignLib.Category"},{"name":"status","type":"uint8","internalType":"enum CampaignLib.CampaignStatus"},{"name":"donorCount","type":"uint256","internalType":"uint256"},{"name":"allowFlexibleWithdrawal","type":"bool","internalType":"bool"}]}],"stateMutability":"view"},{"type":"function","name":"getUserCampaigns","inputs":[{"name":"_owner","type":"address","internalType":"address"}],"outputs":[{"name":"","type":"tuple[]","internalType":"struct CampaignLib.Campaign[]","components":[{"name":"id","type":"uint256","internalType":"uint256"},{"name":"owner","type":"address","internalType":"address"},{"name":"title","type":"string","internalType":"string"},{"name":"description","type":"string","internalType":"string"},{"name":"target","type":"uint256","internalType":"uint256"},{"name":"deadline","type":"uint256","internalType":"uint256"},{"name":"amountCollected","type":"uint256","internalType":"uint256"},{"name":"withdrawnAmount","type":"uint256","internalType":"uint256"},{"name":"image","type":"string","internalType":"string"},{"name":"category","type":"uint8","internalType":"enum CampaignLib.Category"},{"name":"status","type":"uint8","internalType":"enum CampaignLib.CampaignStatus"},{"name":"donorCount","type":"uint256","internalType":"uint256"},{"name":"allowFlexibleWithdrawal","type":"bool","internalType":"bool"}]}],"stateMutability":"view"},{"type":"function","name":"getUserDraftCampaigns","inputs":[{"name":"_owner","type":"address","internalType":"address"}],"outputs":[{"name":"","type":"tuple[]","internalType":"struct CampaignLib.Campaign[]","components":[{"name":"id","type":"uint256","internalType":"uint256"},{"name":"owner","type":"address","internalType":"address"},{"name":"title","type":"string","internalType":"string"},{"name":"description","type":"string","internalType":"string"},{"name":"target","type":"uint256","internalType":"uint256"},{"name":"deadline","type":"uint256","internalType":"uint256"},{"name":"amountCollected","type":"uint256","internalType":"uint256"},{"name":"withdrawnAmount","type":"uint256","internalType":"uint256"},{"name":"image","type":"string","internalType":"string"},{"name":"category","type":"uint8","internalType":"enum CampaignLib.Category"},{"name":"status","type":"uint8","internalType":"enum CampaignLib.CampaignStatus"},{"name":"donorCount","type":"uint256","internalType":"uint256"},{"name":"allowFlexibleWithdrawal","type":"bool","internalType":"bool"}]}],"stateMutability":"view"},{"type":"function","name":"getUserPublishedCampaigns","inputs":[{"name":"_owner","type":"address","internalType":"address"}],"outputs":[{"name":"","type":"tuple[]","internalType":"struct CampaignLib.Campaign[]","components":[{"name":"id","type":"uint256","internalType":"uint256"},{"name":"owner","type":"address","internalType":"address"},{"name":"title","type":"string","internalType":"string"},{"name":"description","type":"string","internalType":"string"},{"name":"target","type":"uint256","internalType":"uint256"},{"name":"deadline","type":"uint256","internalType":"uint256"},{"name":"amountCollected","type":"uint256","internalType":"uint256"},{"name":"withdrawnAmount","type":"uint256","internalType":"uint256"},{"name":"image","type":"string","internalType":"string"},{"name":"category","type":"uint8","internalType":"enum CampaignLib.Category"},{"name":"status","type":"uint8","internalType":"enum CampaignLib.CampaignStatus"},{"name":"donorCount","type":"uint256","internalType":"uint256"},{"name":"allowFlexibleWithdrawal","type":"bool","internalType":"bool"}]}],"stateMutability":"view"},{"type":"function","name":"owner","inputs":[],"outputs":[{"name":"","type":"address","internalType":"address"}],"stateMutability":"view"},{"type":"function","name":"publishCampaign","inputs":[{"name":"_id","type":"uint256","internalType":"uint256"}],"outputs":[],"stateMutability":"nonpayable"},{"type":"function","name":"renounceOwnership","inputs":[],"outputs":[],"stateMutability":"nonpayable"},{"type":"function","name":"transferOwnership","inputs":[{"name":"newOwner","type":"address","internalType":"address"}],"outputs":[],"stateMutability":"nonpayable"},{"type":"function","name":"updateDraftCampaign","inputs":[{"name":"input","type":"tuple","internalType":"struct CampaignLib.CampaignUpdateInput","components":[{"name":"id","type":"uint256","internalType":"uint256"},{"name":"title","type":"string","internalType":"string"},{"name":"description","type":"string","internalType":"string"},{"name":"target","type":"uint256","internalType":"uint256"},{"name":"deadline","type":"uint256","internalType":"uint256"},{"name":"image","type":"string","internalType":"string"},{"name":"category","type":"uint8","internalType":"enum CampaignLib.Category"}]}],"outputs":[],"stateMutability":"nonpayable"},{"type":"function","name":"withdrawCampaignFunds","inputs":[{"name":"_id","type":"uint256","internalType":"uint256"}],"outputs":[],"stateMutability":"nonpayable"},{"type":"event","name":"CampaignCancelled","inputs":[{"name":"id","type":"uint256","indexed":true,"internalType":"uint256"},{"name":"owner","type":"address","indexed":true,"internalType":"address"}],"anonymous":false},{"type":"event","name":"CampaignCreated","inputs":[{"name":"id","type":"uint256","indexed":true,"internalType":"uint256"},{"name":"owner","type":"address","indexed":true,"internalType":"address"},{"name":"title","type":"string","indexed":false,"internalType":"string"},{"name":"target","type":"uint256","indexed":false,"internalType":"uint256"},{"name":"deadline","type":"uint256","indexed":false,"internalType":"uint256"},{"name":"category","type":"uint8","indexed":true,"internalType":"enum CampaignLib.Category"}],"anonymous":false},{"type":"event","name":"CampaignDonated","inputs":[{"name":"id","type":"uint256","indexed":true,"internalType":"uint256"},{"name":"donator","type":"address","indexed":true,"internalType":"address"},{"name":"amount","type":"uint256","indexed":false,"internalType":"uint256"}],"anonymous":false},{"type":"event","name":"CampaignPublished","inputs":[{"name":"id","type":"uint256","indexed":true,"internalType":"uint256"},{"name":"owner","type":"address","indexed":true,"internalType":"address"}],"anonymous":false},{"type":"event","name":"CampaignUpdated","inputs":[{"name":"id","type":"uint256","indexed":true,"internalType":"uint256"}],"anonymous":false},{"type":"event","name":"FundsWithdrawn","inputs":[{"name":"id","type":"uint256","indexed":true,"internalType":"uint256"},{"name":"owner","type":"address","indexed":true,"internalType":"address"},{"name":"amount","type":"uint256","indexed":false,"internalType":"uint256"}],"anonymous":false},{"type":"event","name":"OwnershipTransferred","inputs":[{"name":"previousOwner","type":"address","indexed":true,"internalType":"address"},{"name":"newOwner","type":"address","indexed":true,"internalType":"address"}],"anonymous":false},{"type":"error","name":"CampaignEnded","inputs":[]},{"type":"error","name":"CampaignLib_CampaignActive","inputs":[]},{"type":"error","name":"CampaignLib_InsufficientBalance","inputs":[]},{"type":"error","name":"CampaignLib_InvalidCategory","inputs":[]},{"type":"error","name":"CampaignLib_InvalidDeadline","inputs":[]},{"type":"error","name":"CampaignLib_InvalidTarget","inputs":[]},{"type":"error","name":"CampaignNotFound","inputs":[]},{"type":"error","name":"CampaignNotPublished","inputs":[]},{"type":"error","name":"ImageRequired","inputs":[]},{"type":"error","name":"NoDonationsMade","inputs":[]},{"type":"error","name":"NotCampaignOwner","inputs":[]},{"type":"error","name":"NotDraftStatus","inputs":[]},{"type":"error","name":"OwnableInvalidOwner","inputs":[{"name":"owner","type":"address","internalType":"address"}]},{"type":"error","name":"OwnableUnauthorizedAccount","inputs":[{"name":"account","type":"address","internalType":"address"}]},{"type":"error","name":"WithdrawalFailed","inputs":[]},{"type":"error","name":"ZeroDonation","inputs":[]}],"bytecode":{"object":"0x60806040523461002757610011610099565b61001961002c565b61467361026a823961467390f35b610032565b60405190565b5f80fd5b5f1b90565b906100475f1991610036565b9181191691161790565b90565b90565b90565b61006e61006961007392610051565b610057565b610054565b90565b90565b9061008e6100896100959261005a565b610076565b825461003b565b9055565b6100a233610110565b6100ad5f6003610079565b565b60018060a01b031690565b6100ce6100c96100d392610051565b610057565b6100af565b90565b6100df906100ba565b90565b6100eb906100af565b90565b6100f7906100e2565b9052565b919061010e905f602085019401906100ee565b565b8061012b6101256101205f6100d6565b6100e2565b916100e2565b1461013b576101399061020a565b565b61015e6101475f6100d6565b5f918291631e4fbdf760e01b8352600483016100fb565b0390fd5b5f1c90565b60018060a01b031690565b61017e61018391610162565b610167565b90565b6101909054610172565b90565b906101a460018060a01b0391610036565b9181191691161790565b6101c26101bd6101c7926100af565b610057565b6100af565b90565b6101d3906101ae565b90565b6101df906101ca565b90565b90565b906101fa6101f5610201926101d6565b6101e2565b8254610193565b9055565b5f0190565b6102135f610186565b61021d825f6101e5565b9061025161024b7f8be0079c531659141344cd1fd0a4f28419497f9722a3daafe3b4186f6b6457e0936101d6565b916101d6565b9161025a61002c565b8061026481610205565b0390a356fe60806040526004361015610013575b611571565b61001d5f356101fc565b80630cfc1e73146101f757806314169e2a146101f2578063141961bc146101ed57806334ef585f146101e857806342a4fda8146101e357806349f3c992146101de5780634fa4479a146101d957806350c4984c146101d4578063517dbc5c146101cf5780635943c705146101ca5780635eb918a6146101c55780635f417535146101c05780636c19e004146101bb578063715018a6146101b65780637274e30d146101b1578063746920a8146101ac57806378e94dd2146101a75780638da5cb5b146101a2578063a1e5084c1461019d578063a6b0363314610198578063b222f8aa14610193578063b314df871461018e578063b392430714610189578063d224d9ec14610184578063d93df3a11461017f578063e2205ecf1461017a578063e6ffcaa114610175578063ee835ae414610170578063f0a603bc1461016b5763f2fde38b0361000e5761153e565b61150b565b6114d6565b6114a1565b61146e565b611439565b6113c8565b611227565b6111f2565b6111b9565b611152565b61111d565b6110e8565b61109e565b611069565b611034565b610fc8565b610f93565b610f48565b610ee2565b610ead565b610e78565b610de8565b610d66565b610b11565b610ad9565b610aa3565b610a03565b61058d565b610512565b60e01c90565b60405190565b5f80fd5b5f80fd5b5f80fd5b60018060a01b031690565b61022890610214565b90565b6102348161021f565b0361023b57565b5f80fd5b9050359061024c8261022b565b565b9060208282031261026757610264915f0161023f565b90565b61020c565b5190565b60209181520190565b60200190565b90565b61028b9061027f565b9052565b6102989061021f565b9052565b5190565b60209181520190565b90825f9392825e0152565b601f801991011690565b6102dd6102e66020936102eb936102d48161029c565b938480936102a0565b958691016102a9565b6102b4565b0190565b634e487b7160e01b5f52602160045260245ffd5b6006111561030d57565b6102ef565b9061031c82610303565b565b61032790610312565b90565b6103339061031e565b9052565b6003111561034157565b6102ef565b9061035082610337565b565b61035b90610346565b90565b61036790610352565b9052565b151590565b6103799061036b565b9052565b9061047d90610180806104366103da6103c86101a086016103a45f8a01515f890190610282565b6103b660208a0151602089019061028f565b604089015187820360408901526102be565b606088015186820360608801526102be565b6103ec60808801516080870190610282565b6103fe60a088015160a0870190610282565b61041060c088015160c0870190610282565b61042260e088015160e0870190610282565b6101008701518582036101008701526102be565b9461044b61012082015161012086019061032a565b61045f61014082015161014086019061035e565b610473610160820151610160860190610282565b0151910190610370565b90565b9061048a9161037d565b90565b60200190565b906104a76104a08361026c565b8092610270565b90816104b860208302840194610279565b925f915b8383106104cb57505050505090565b909192939460206104ed6104e783856001950387528951610480565b9761048d565b93019301919392906104bc565b61050f9160208201915f818403910152610493565b90565b346105425761053e61052d61052836600461024e565b611917565b610535610202565b918291826104fa565b0390f35b610208565b6105508161027f565b0361055757565b5f80fd5b9050359061056882610547565b565b9060208282031261058357610580915f0161055b565b90565b61020c565b5f0190565b346105bb576105a56105a036600461056a565b611dd0565b6105ad610202565b806105b781610588565b0390f35b610208565b90565b6105d76105d26105dc9261027f565b6105c0565b61027f565b90565b906105e9906105c3565b5f5260205260405f2090565b5f1c90565b90565b61060961060e916105f5565b6105fa565b90565b61061b90546105fd565b90565b60018060a01b031690565b61063561063a916105f5565b61061e565b90565b6106479054610629565b90565b634e487b7160e01b5f52602260045260245ffd5b906001600283049216801561067e575b602083101461067957565b61064a565b91607f169161066e565b5f5260205f2090565b905f92918054906106ab6106a48361065e565b80946102a0565b916001811690815f1461070257506001146106c6575b505050565b6106d39192939450610688565b915f925b8184106106ea57505001905f80806106c1565b600181602092959395548486015201910192906106d7565b92949550505060ff19168252151560200201905f80806106c1565b9061072791610691565b90565b634e487b7160e01b5f52604160045260245ffd5b90610748906102b4565b810190811067ffffffffffffffff82111761076257604052565b61072a565b9061078761078092610777610202565b9384809261071d565b038361073e565b565b60ff1690565b61079b6107a0916105f5565b610789565b90565b6107ad905461078f565b90565b60081c90565b60ff1690565b6107c86107cd916107b0565b6107b6565b90565b6107da90546107bc565b90565b60ff1690565b6107ef6107f4916105f5565b6107dd565b90565b61080190546107e3565b90565b61080f9060026105df565b61081a5f8201610611565b916108276001830161063d565b9161083460028201610767565b9161084160038301610767565b9161084e60048201610611565b9161085b60058301610611565b9161086860068201610611565b9161087560078301610611565b9161088260088201610767565b9161088f600983016107a3565b9161089c600982016107d0565b916108b5600b6108ae600a8501610611565b93016107f7565b90565b6108c19061027f565b9052565b6108ce9061021f565b9052565b60209181520190565b6108fa610903602093610908936108f18161029c565b938480936108d2565b958691016102a9565b6102b4565b0190565b6109159061031e565b9052565b61092290610352565b9052565b61092f9061036b565b9052565b98906109fa986101809b9f9e9c9693610a019e996109b66109ef9a60a08f6109af6109a46109e49d6109966109ca9b6109d89f6109896109c09c61097f6101a08a01945f8b01906108b8565b60208901906108c5565b86820360408801526108db565b9084820360608601526108db565b9a60808301906108b8565b01906108b8565b60c08d01906108b8565b60e08b01906108b8565b8882036101008a01526108db565b9a61012087019061090c565b610140850190610919565b6101608301906108b8565b0190610926565b565b34610a4357610a3f610a1e610a1936600461056a565b610804565b99610a369d9b9d999199989298979397969496610202565b9d8e9d8e610933565b0390f35b610208565b5f80fd5b90816040910312610a5a5790565b610a48565b90604082820312610a7857610a75915f01610a4c565b90565b61020c565b92916020610a99610aa19360408701908782035f890152610493565b9401906108b8565b565b34610ad457610abb610ab6366004610a5f565b611dec565b90610ad0610ac7610202565b92839283610a7d565b0390f35b610208565b610aec610ae736600461056a565b6124e6565b610af4610202565b80610afe81610588565b0390f35b5f910312610b0c57565b61020c565b34610b4157610b21366004610b02565b610b3d610b2c6124f1565b610b34610202565b918291826104fa565b0390f35b610208565b9190604083820312610b6e5780610b62610b6b925f860161055b565b9360200161023f565b90565b61020c565b90610b7d906105c3565b5f5260205260405f2090565b610b9d610b98610ba292610214565b6105c0565b610214565b90565b610bae90610b89565b90565b610bba90610ba5565b90565b90610bc790610bb1565b5f5260205260405f2090565b6fffffffffffffffffffffffffffffffff1690565b610bf4610bf9916105f5565b610bd3565b90565b610c069054610be8565b90565b60801c90565b67ffffffffffffffff1690565b610c28610c2d91610c09565b610c0f565b90565b610c3a9054610c1c565b90565b60c01c90565b610c4f610c5491610c3d565b6107dd565b90565b610c619054610c43565b90565b60c81c90565b61ffff1690565b610c7d610c8291610c64565b610c6a565b90565b610c8f9054610c71565b90565b90610ca1610ca6926001610b73565b610bbd565b90610cb25f8301610bfc565b91610cbe5f8201610c30565b91610cd55f610cce818501610c57565b9301610c85565b90565b6fffffffffffffffffffffffffffffffff1690565b610cf690610cd8565b9052565b67ffffffffffffffff1690565b610d1090610cfa565b9052565b61ffff1690565b610d2490610d14565b9052565b610d5d610d6494610d53606094989795610d49608086019a5f870190610ced565b6020850190610d07565b6040830190610926565b0190610d1b565b565b34610d9b57610d97610d82610d7c366004610b46565b90610c92565b90610d8e949294610202565b94859485610d28565b0390f35b610208565b908160e0910312610dae5790565b610a48565b90602082820312610de3575f82013567ffffffffffffffff8111610dde57610ddb9201610da0565b90565b610210565b61020c565b34610e1657610e00610dfb366004610db3565b612782565b610e08610202565b80610e1281610588565b0390f35b610208565b908160e0910312610e295790565b610a48565b90602082820312610e5e575f82013567ffffffffffffffff8111610e5957610e569201610e1b565b90565b610210565b61020c565b9190610e76905f602085019401906108b8565b565b34610ea857610ea4610e93610e8e366004610e2e565b61285c565b610e9b610202565b91829182610e63565b0390f35b610208565b34610edd57610ed9610ec8610ec336600461056a565b612950565b610ed0610202565b91829182610e63565b0390f35b610208565b34610f1257610f0e610efd610ef836600461024e565b612972565b610f05610202565b918291826104fa565b0390f35b610208565b90816040910312610f255790565b610a48565b90604082820312610f4357610f40915f01610f17565b90565b61020c565b34610f7957610f60610f5b366004610f2a565b612b58565b90610f75610f6c610202565b92839283610a7d565b0390f35b610208565b9190610f91905f60208501940190610919565b565b34610fc357610fbf610fae610fa936600461056a565b612d83565b610fb6610202565b91829182610f7e565b0390f35b610208565b34610ff657610fd8366004610b02565b610fe0612df2565b610fe8610202565b80610ff281610588565b0390f35b610208565b1c90565b61100f9060086110149302610ffb565b6105fa565b90565b906110229154610fff565b90565b61103160035f90611017565b90565b3461106457611044366004610b02565b61106061104f611025565b611057610202565b91829182610e63565b0390f35b610208565b346110995761109561108461107f36600461024e565b612dfc565b61108c610202565b918291826104fa565b0390f35b610208565b346110ce576110ca6110b96110b436600461056a565b61304e565b6110c1610202565b91829182610e63565b0390f35b610208565b91906110e6905f602085019401906108c5565b565b34611118576110f8366004610b02565b611114611103613092565b61110b610202565b918291826110d3565b0390f35b610208565b3461114d5761114961113861113336600461024e565b6130a7565b611140610202565b918291826104fa565b0390f35b610208565b3461118257611162366004610b02565b61117e61116d61321f565b611175610202565b918291826104fa565b0390f35b610208565b6040906111b06111b794969593966111a660608401985f8501906108b8565b60208301906108b8565b0190610d1b565b565b346111ed576111e96111d56111cf366004610b46565b9061349e565b6111e0939193610202565b93849384611187565b0390f35b610208565b346112225761121e61120d611208366004610e2e565b6134cd565b611215610202565b91829182610e63565b0390f35b610208565b346112585761123f61123a366004610a5f565b613615565b9061125461124b610202565b92839283610a7d565b0390f35b610208565b6112668161036b565b0361126d57565b5f80fd5b9050359061127e8261125d565b565b91906040838203126112a8578061129c6112a5925f860161055b565b93602001611271565b90565b61020c565b906113ad906101808061136661130a6112f86101a086016112d45f8a01515f890190610282565b6112e660208a0151602089019061028f565b604089015187820360408901526102be565b606088015186820360608801526102be565b61131c60808801516080870190610282565b61132e60a088015160a0870190610282565b61134060c088015160c0870190610282565b61135260e088015160e0870190610282565b6101008701518582036101008701526102be565b9461137b61012082015161012086019061032a565b61138f61014082015161014086019061035e565b6113a3610160820151610160860190610282565b0151910190610370565b90565b6113c59160208201915f8184039101526112ad565b90565b346113f9576113f56113e46113de366004611280565b90613998565b6113ec610202565b918291826113b0565b0390f35b610208565b6006111561140857565b5f80fd5b90503590611419826113fe565b565b9060208282031261143457611431915f0161140c565b90565b61020c565b346114695761146561145461144f36600461141b565b6139ad565b61145c610202565b918291826104fa565b0390f35b610208565b3461149c5761148661148136600461056a565b613cd2565b61148e610202565b8061149881610588565b0390f35b610208565b346114d1576114cd6114bc6114b736600461056a565b613d40565b6114c4610202565b918291826113b0565b0390f35b610208565b34611506576115026114f16114ec36600461056a565b613d54565b6114f9610202565b918291826110d3565b0390f35b610208565b346115395761152361151e36600461056a565b613ee5565b61152b610202565b8061153581610588565b0390f35b610208565b3461156c5761155661155136600461024e565b613f55565b61155e610202565b8061156881610588565b0390f35b610208565b5f80fd5b606090565b90565b61159161158c6115969261157a565b6105c0565b61027f565b90565b60016115a5910161027f565b90565b634e487b7160e01b5f52601160045260245ffd5b6115c59061027f565b5f1981146115d35760010190565b6115a8565b906115eb6115e4610202565b928361073e565b565b67ffffffffffffffff81116116055760208091020190565b61072a565b9061161c611617836115ed565b6115d8565b918252565b61162c6101a06115d8565b90565b5f90565b5f90565b606090565b5f90565b5f90565b5f90565b60209081808080808080808080808061165f611621565b9d8e61166961162f565b815201611674611633565b81520161167f611637565b81520161168a611637565b81520161169561162f565b8152016116a061162f565b8152016116ab61162f565b8152016116b661162f565b8152016116c1611637565b8152016116cc61163c565b8152016116d7611640565b8152016116e261162f565b8152016116ed611644565b81525050565b6116fb611648565b90565b5f5b82811061170c57505050565b6020906117176116f3565b8184015201611700565b9061174661172e8361160a565b9260208061173c86936115ed565b92019103906116fe565b565b634e487b7160e01b5f52603260045260245ffd5b906117668261026c565b811015611777576020809102010190565b611748565b906117869061027f565b9052565b906117949061021f565b9052565b52565b906117a590610312565b9052565b906117b390610346565b9052565b906117c19061036b565b9052565b906119096118ff600b6117d6611621565b946117ed6117e55f8301610611565b5f880161177c565b6118056117fc6001830161063d565b6020880161178a565b61181d61181460028301610767565b60408801611798565b61183561182c60038301610767565b60608801611798565b61184d61184460048301610611565b6080880161177c565b61186561185c60058301610611565b60a0880161177c565b61187d61187460068301610611565b60c0880161177c565b61189561188c60078301610611565b60e0880161177c565b6118ae6118a460088301610767565b6101008801611798565b6118c76118bd600983016107a3565b610120880161179b565b6118e06118d6600983016107d0565b61014088016117a9565b6118f96118ef600a8301610611565b610160880161177c565b016107f7565b61018084016117b7565b565b611914906117c5565b90565b61191f611575565b506119295f61157d565b6119325f61157d565b5b8061194f6119496119446003610611565b61027f565b9161027f565b10156119dd5761196c6001611966600284906105df565b0161063d565b61197e6119788561021f565b9161021f565b14806119ad575b611998575b61199390611599565b611933565b906119a5611993916115bc565b91905061198a565b506119c560096119bf600284906105df565b016107d0565b6119d76119d15f610346565b91610346565b14611985565b506119e790611721565b6119f05f61157d565b6119f95f61157d565b5b80611a16611a10611a0b6003610611565b61027f565b9161027f565b1015611ad057611a336001611a2d600284906105df565b0161063d565b611a45611a3f8661021f565b9161021f565b1480611aa0575b611a5f575b611a5a90611599565b6119fa565b90611a98611a5a91611a91611a76600286906105df565b86611a81849261190b565b611a8b838361175c565b5261175c565b51506115bc565b919050611a51565b50611ab86009611ab2600284906105df565b016107d0565b611aca611ac45f610346565b91610346565b14611a4c565b5050905090565b80611af3611aed611ae86003610611565b61027f565b9161027f565b1015611b0457611b0290611b20565b565b5f6337f9b70b60e11b815280611b1c60048201610588565b0390fd5b80611b49611b43611b3e6001611b38339560026105df565b0161063d565b61021f565b9161021f565b03611b5957611b5790611cac565b565b5f632552cded60e11b815280611b7160048201610588565b0390fd5b90565b611b87611b8d9193929361027f565b9261027f565b8203918211611b9857565b6115a8565b611bac611bb29193929361027f565b9261027f565b8201809211611bbd57565b6115a8565b5f1b90565b90611bd35f1991611bc2565b9181191691161790565b90565b90611bf5611bf0611bfc926105c3565b611bdd565b8254611bc7565b9055565b611c0990610b89565b90565b611c1590611c00565b90565b611c2190610ba5565b90565b905090565b611c345f8092611c24565b0190565b611c4190611c29565b90565b67ffffffffffffffff8111611c6257611c5e6020916102b4565b0190565b61072a565b90611c79611c7483611c44565b6115d8565b918252565b606090565b3d5f14611c9e57611c933d611c67565b903d5f602084013e5b565b611ca6611c7e565b90611c9c565b611cc0611cbb600283906105df565b611b75565b90611cca82613f60565b611ceb611cd960068401610611565b611ce560078501610611565b90611b78565b90611d0c82611d066007860191611d0183610611565b611b9d565b90611be0565b611d545f80611d2d611d28611d236001890161063d565b611c0c565b611c18565b85611d36610202565b9081611d4181611c38565b03925af1611d4d611c83565b501561036b565b611db4576001611d6591930161063d565b9091611daf611d9d611d977ff440aec6b52895984d061d622e6edeba6210f7c3e059be920663140c084560d7936105c3565b93610bb1565b93611da6610202565b91829182610e63565b0390a3565b5f6327fcd9d160e01b815280611dcc60048201610588565b0390fd5b611dd990611ad7565b565b5f90565b35611de981610547565b90565b90611df5611575565b50611dfe611ddb565b50611e085f61157d565b91611e125f61157d565b5b80611e2f611e29611e246003610611565b61027f565b9161027f565b1015611ebf57611e4c6009611e46600284906105df565b016107d0565b611e5f611e596001610346565b91610346565b1480611e8e575b611e79575b611e7490611599565b611e13565b92611e86611e74916115bc565b939050611e6b565b50611ea66005611ea0600284906105df565b01610611565b611eb8611eb24261027f565b9161027f565b1115611e66565b509082611ede611ed8611ed35f8601611ddf565b61027f565b9161027f565b115f1461209857611efa83611ef45f8501611ddf565b90611b78565b5b80611f19611f13611f0e60208701611ddf565b61027f565b9161027f565b115f146120935750611f2d60208301611ddf565b5b91611f3883611721565b91611f425f61157d565b91611f4c5f61157d565b91611f565f61157d565b5b80611f73611f6d611f686003610611565b61027f565b9161027f565b1080612079575b1561206f57611f966009611f90600284906105df565b016107d0565b611fa9611fa36001610346565b91610346565b148061203e575b611fc3575b611fbe906115bc565b611f57565b9383611fe1611fdb611fd65f8701611ddf565b61027f565b9161027f565b10155f1461202a57612021611fbe9161201a611fff600289906105df565b8961200a849261190b565b612014838361175c565b5261175c565b51506115bc565b945b9050611fb5565b9392612038611fbe916115bc565b93612023565b506120566005612050600284906105df565b01610611565b6120686120624261027f565b9161027f565b1115611fb0565b5094505050509190565b508461208d6120878961027f565b9161027f565b10611f7a565b611f2e565b6120a15f61157d565b611efb565b806120c26120bc6120b76003610611565b61027f565b9161027f565b10156120d3576120d1906122ef565b565b5f6337f9b70b60e11b8152806120eb60048201610588565b0390fd5b90565b61210661210161210b9261027f565b6105c0565b610cd8565b90565b61211a61212091610cd8565b91610cd8565b01906fffffffffffffffffffffffffffffffff821161213b57565b6115a8565b9061215b6fffffffffffffffffffffffffffffffff91611bc2565b9181191691161790565b61217961217461217e92610cd8565b6105c0565b610cd8565b90565b90565b906121996121946121a092612165565b612181565b8254612140565b9055565b6121b86121b36121bd9261027f565b6105c0565b610cfa565b90565b60801b90565b906121dc67ffffffffffffffff60801b916121c0565b9181191691161790565b6121fa6121f56121ff92610cfa565b6105c0565b610cfa565b90565b90565b9061221a612215612221926121e6565b612202565b82546121c6565b9055565b60c01b90565b9061223a60ff60c01b91612225565b9181191691161790565b61224d9061036b565b90565b90565b9061226861226361226f92612244565b612250565b825461222b565b9055565b61227c90610d14565b61ffff811461228b5760010190565b6115a8565b60c81b90565b906122a661ffff60c81b91612290565b9181191691161790565b6122c46122bf6122c992610d14565b6105c0565b610d14565b90565b90565b906122e46122df6122eb926122b0565b6122cc565b8254612296565b9055565b6123036122fe600283906105df565b611b75565b346123166123105f61157d565b9161027f565b146124ca57612327600982016107d0565b61233a6123346001610346565b91610346565b036124ae5761234b60058201610611565b61235d6123574261027f565b9161027f565b11156124925761241f906124025f61238961238461237d60018890610b73565b3390610bbd565b6120ef565b61239d612397838301610c57565b1561036b565b61246f575b6123c96123ae346120f2565b6123c3848401916123be83610bfc565b61210e565b90612184565b6123dd6123d5426121a4565b838301612205565b6123ea6001838301612253565b016123fc6123f782610c85565b612273565b906122cf565b61241960063492019161241483610611565b611b9d565b90611be0565b33349161246a6124586124527fab9c35171e39c1e9e36544edfe4e6f20d5ebcb0daefd9c2ea9a533e991fd6087936105c3565b93610bb1565b93612461610202565b91829182610e63565b0390a3565b61248d600a850161248761248282610611565b6115bc565b90611be0565b6123a2565b5f63154eb81560e21b8152806124aa60048201610588565b0390fd5b5f639109fdd160e01b8152806124c660048201610588565b0390fd5b5f636370392160e11b8152806124e260048201610588565b0390fd5b6124ef906120a6565b565b6124f9611575565b506125035f61157d565b61250c5f61157d565b5b8061252961252361251e6003610611565b61027f565b9161027f565b1015612582576125466009612540600284906105df565b016107d0565b6125596125536001610346565b91610346565b1461256d575b61256890611599565b61250d565b9061257a612568916115bc565b91905061255f565b5061258c90611721565b6125955f61157d565b9061259f5f61157d565b5b806125bc6125b66125b16003610611565b61027f565b9161027f565b1015612641576125d960096125d3600284906105df565b016107d0565b6125ec6125e66001610346565b91610346565b14612600575b6125fb90611599565b6125a0565b916126396125fb91612632612617600287906105df565b85612622849261190b565b61262c838361175c565b5261175c565b51506115bc565b9290506125f2565b50905090565b6126525f8201611ddf565b61267a61267461266f6001612669339560026105df565b0161063d565b61021f565b9161021f565b0361268a57612688906126a6565b565b5f632552cded60e11b8152806126a260048201610588565b0390fd5b6126c660096126c06126b95f8501611ddf565b60026105df565b016107d0565b6126d86126d25f610346565b91610346565b036126e8576126e690612704565b565b5f63ac49f26560e01b81528061270060048201610588565b0390fd5b5f6127409161271281614012565b61273a61273361272e6002612728868601611ddf565b906105df565b611b75565b829061426f565b01611ddf565b61276a7feb99199fa768b75351d1d205616eb313e8775bf75ad483f1a9c5dc947d9aa105916105c3565b90612773610202565b8061277d81610588565b0390a2565b61278b90612647565b565b5f80fd5b5f80fd5b5f80fd5b9035906001602003813603038212156127db570180359067ffffffffffffffff82116127d6576020019160018202360383136127d157565b612795565b612791565b61278d565b356127ea816113fe565b90565b6127f690610312565b90565b90825f939282370152565b919061281e8161281781612823956108d2565b80956127f9565b6102b4565b0190565b61285361284860409361285a9698979560608501918583035f870152612804565b9660208301906108b8565b01906108b8565b565b612864611ddb565b5061286e8161430a565b6128786003610611565b906128a4612899612894600261288e6003610611565b906105df565b611b75565b833384915f936143b3565b6128c06128b96128b46003610611565b6115bc565b6003611be0565b8190336128d0825f810190612799565b6128df60408596939601611ddf565b9461294a6128fb60a06128f460608901611ddf565b97016127e0565b9561293861293261292c7fedf7acc766086eb7115234d49cc6c7dc174ac9db5fac309cde9fa65a8fd516bc976105c3565b97610bb1565b976127ed565b97612941610202565b94859485612827565b0390a490565b600a61296961296f92612961611ddb565b5060026105df565b01610611565b90565b61297a611575565b506129845f61157d565b61298d5f61157d565b5b806129aa6129a461299f6003610611565b61027f565b9161027f565b1015612a39576129c760016129c1600284906105df565b0161063d565b6129d96129d38561021f565b9161021f565b1480612a08575b6129f3575b6129ee90611599565b61298e565b90612a006129ee916115bc565b9190506129e5565b50612a206009612a1a600284906105df565b016107d0565b612a33612a2d6001610346565b91610346565b146129e0565b5090612a4482611721565b90612a4e5f61157d565b90612a585f61157d565b5b80612a75612a6f612a6a6003610611565b61027f565b9161027f565b1080612b3e575b15612b3657612a986001612a92600284906105df565b0161063d565b612aaa612aa48461021f565b9161021f565b1480612b05575b612ac4575b612abf906115bc565b612a59565b91612afd612abf91612af6612adb600287906105df565b87612ae6849261190b565b612af0838361175c565b5261175c565b51506115bc565b929050612ab6565b50612b1d6009612b17600284906105df565b016107d0565b612b30612b2a6001610346565b91610346565b14612ab1565b505050905090565b5082612b52612b4c8761027f565b9161027f565b10612a7c565b90612b61611575565b50612b6a611ddb565b50612b745f61157d565b90612b7e5f61157d565b92612b885f61157d565b5b80612ba5612b9f612b9a6003610611565b61027f565b9161027f565b1015612bfe57612bc26009612bbc600284906105df565b016107d0565b612bd5612bcf6001610346565b91610346565b14612be9575b612be490611599565b612b89565b93612bf6612be4916115bc565b949050612bdb565b509091612c0d60208301611ddf565b92612c23612c1c5f8501611ddf565b8590611b9d565b612c35612c2f8761027f565b9161027f565b11612d62575b612c4484611721565b90612c4e5f61157d565b90612c585f61157d565b5b80612c75612c6f612c6a6003610611565b61027f565b9161027f565b1080612d48575b15612d3d57612c986009612c92600284906105df565b016107d0565b612cab612ca56001610346565b91610346565b14612cbf575b612cba906115bc565b612c59565b9380612cdd612cd7612cd25f8a01611ddf565b61027f565b9161027f565b1015612cf8575b612cf0612cba916115bc565b949050612cb1565b91612cf0612d34612cba92612d2d612d1260028a906105df565b88612d1d849261190b565b612d27838361175c565b5261175c565b51506115bc565b93915050612ce4565b509450509150509190565b5082612d5c612d568961027f565b9161027f565b10612c7c565b9250612d7984612d735f8501611ddf565b90611b78565b92612c3b565b5f90565b6009612d9c612da292612d94612d7f565b5060026105df565b016107d0565b90565b612dad6144cb565b612db5612ddf565b565b612dcb612dc6612dd09261157a565b6105c0565b610214565b90565b612ddc90612db7565b90565b612df0612deb5f612dd3565b614519565b565b612dfa612da5565b565b612e04611575565b50612e0e5f61157d565b612e175f61157d565b5b80612e34612e2e612e296003610611565b61027f565b9161027f565b1015612ef957612e516001612e4b600284906105df565b0161063d565b612e63612e5d8561021f565b9161021f565b1480612ec8575b80612e98575b612e83575b612e7e90611599565b612e18565b90612e90612e7e916115bc565b919050612e75565b50612eb06005612eaa600284906105df565b01610611565b612ec2612ebc4261027f565b9161027f565b11612e70565b50612ee06009612eda600284906105df565b016107d0565b612ef3612eed6001610346565b91610346565b14612e6a565b5090612f0482611721565b90612f0e5f61157d565b90612f185f61157d565b5b80612f35612f2f612f2a6003610611565b61027f565b9161027f565b1080613034575b1561302c57612f586001612f52600284906105df565b0161063d565b612f6a612f648461021f565b9161021f565b1480612ffb575b80612fcb575b612f8a575b612f85906115bc565b612f19565b91612fc3612f8591612fbc612fa1600287906105df565b87612fac849261190b565b612fb6838361175c565b5261175c565b51506115bc565b929050612f7c565b50612fe36005612fdd600284906105df565b01610611565b612ff5612fef4261027f565b9161027f565b11612f77565b50613013600961300d600284906105df565b016107d0565b6130266130206001610346565b91610346565b14612f71565b505050905090565b50826130486130428761027f565b9161027f565b10612f3c565b61306d61306861308b92613060611ddb565b5060026105df565b611b75565b613085600761307e60068401610611565b9201610611565b90611b78565b90565b5f90565b61309a61308e565b506130a45f61063d565b90565b6130af611575565b506130b95f61157d565b6130c25f61157d565b5b806130df6130d96130d46003610611565b61027f565b9161027f565b1015613137576130fc60016130f6600284906105df565b0161063d565b61310e6131088561021f565b9161021f565b14613122575b61311d90611599565b6130c3565b9061312f61311d916115bc565b919050613114565b509061314282611721565b9061314c5f61157d565b906131565f61157d565b5b8061317361316d6131686003610611565b61027f565b9161027f565b1080613205575b156131fd576131966001613190600284906105df565b0161063d565b6131a86131a28461021f565b9161021f565b146131bc575b6131b7906115bc565b613157565b916131f56131b7916131ee6131d3600287906105df565b876131de849261190b565b6131e8838361175c565b5261175c565b51506115bc565b9290506131ae565b505050905090565b50826132196132138761027f565b9161027f565b1061317a565b613227611575565b5061323a6132356003610611565b611721565b6132435f61157d565b5b8061326061325a6132556003610611565b61027f565b9161027f565b10156132a05761329b90613294613279600283906105df565b84613284849261190b565b61328e838361175c565b5261175c565b5150611599565b613244565b5090565b5f90565b93929190826132c86132c26132bd6003610611565b61027f565b9161027f565b10156132dc576132d79461340d565b909192565b5f6337f9b70b60e11b8152806132f460048201610588565b0390fd5b9061330290610cd8565b9052565b9061331090610cfa565b9052565b9061331e90610d14565b9052565b61332c60806115d8565b90565b9061339361338a5f61333f613322565b9461335661334e838301610bfc565b8388016132f8565b61336d613364838301610c30565b60208801613306565b61338461337b838301610c57565b604088016117b7565b01610c85565b60608401613314565b565b61339e9061332f565b90565b6133ab905161036b565b90565b6133b89051610cd8565b90565b6133c59051610cfa565b90565b6133d29051610d14565b90565b6133e96133e46133ee92610cd8565b6105c0565b61027f565b90565b61340561340061340a92610cfa565b6105c0565b61027f565b90565b9261342f94926134259261342a955050506001610b73565b610bbd565b613395565b9061344561343f604084016133a1565b1561036b565b613483576134545f83016133ae565b9061347f613479613473606061346c602088016133bb565b96016133c8565b936133d5565b936133f1565b9190565b5f6285968560e71b81528061349a60048201610588565b0390fd5b906134c1916134ab611ddb565b6134b3611ddb565b6134bb6132a4565b916132a8565b909192565b91565b5090565b6134d5611ddb565b506134df8161430a565b6134ff6134f96134f3836080810190612799565b906134c6565b906134c9565b61351161350b5f61157d565b9161027f565b146135f9576135206003610611565b9061354d61354161353c60026135366003610611565b906105df565b611b75565b833384916001936143b3565b61356961356261355d6003610611565b6115bc565b6003611be0565b819033613579825f810190612799565b61358860408596939601611ddf565b946135f36135a460a061359d60608901611ddf565b97016127e0565b956135e16135db6135d57fedf7acc766086eb7115234d49cc6c7dc174ac9db5fac309cde9fa65a8fd516bc976105c3565b97610bb1565b976127ed565b976135ea610202565b94859485612827565b0390a490565b5f63cac4011f60e01b81528061361160048201610588565b0390fd5b9061361e611575565b50613627611ddb565b506136315f61157d565b9161363b5f61157d565b5b8061365861365261364d6003610611565b61027f565b9161027f565b10156136e757613675600961366f600284906105df565b016107d0565b6136886136826001610346565b91610346565b14806136b7575b6136a2575b61369d90611599565b61363c565b926136af61369d916115bc565b939050613694565b506136cf60056136c9600284906105df565b01610611565b6136e16136db4261027f565b9161027f565b1161368f565b5090826137066137006136fb5f8601611ddf565b61027f565b9161027f565b115f146138bf576137228361371c5f8501611ddf565b90611b78565b5b8061374161373b61373660208701611ddf565b61027f565b9161027f565b115f146138ba575061375560208301611ddf565b5b9161376083611721565b9161376a5f61157d565b916137745f61157d565b9161377e5f61157d565b5b8061379b6137956137906003610611565b61027f565b9161027f565b10806138a0575b15613896576137be60096137b8600284906105df565b016107d0565b6137d16137cb6001610346565b91610346565b1480613866575b6137eb575b6137e6906115bc565b61377f565b93836138096138036137fe5f8701611ddf565b61027f565b9161027f565b10155f14613852576138496137e691613842613827600289906105df565b89613832849261190b565b61383c838361175c565b5261175c565b51506115bc565b945b90506137dd565b93926138606137e6916115bc565b9361384b565b5061387e6005613878600284906105df565b01610611565b61389061388a4261027f565b9161027f565b116137d8565b5094505050509190565b50846138b46138ae8961027f565b9161027f565b106137a2565b613756565b6138c85f61157d565b613723565b6138d5611648565b90565b9190806138f66138f06138eb6003610611565b61027f565b9161027f565b10156139085761390592613931565b90565b5f6337f9b70b60e11b81528061392060048201610588565b0390fd5b61392e9051610346565b90565b61394691613941915060026105df565b61190b565b9080613970575b6139545790565b5f639109fdd160e01b81528061396c60048201610588565b0390fd5b5061397e6101408201613924565b61399161398b6001610346565b91610346565b141561394d565b906139aa916139a56138cd565b6138d8565b90565b6139b5611575565b506139bf5f61157d565b6139c85f61157d565b5b806139e56139df6139da6003610611565b61027f565b9161027f565b1015613a7457613a0260096139fc600284906105df565b016107a3565b613a14613a0e85610312565b91610312565b1480613a43575b613a2e575b613a2990611599565b6139c9565b90613a3b613a29916115bc565b919050613a20565b50613a5b6009613a55600284906105df565b016107d0565b613a6e613a686001610346565b91610346565b14613a1b565b50613a7e90611721565b613a875f61157d565b613a905f61157d565b5b80613aad613aa7613aa26003610611565b61027f565b9161027f565b1015613b6857613aca6009613ac4600284906105df565b016107a3565b613adc613ad686610312565b91610312565b1480613b37575b613af6575b613af190611599565b613a91565b90613b2f613af191613b28613b0d600286906105df565b86613b18849261190b565b613b22838361175c565b5261175c565b51506115bc565b919050613ae8565b50613b4f6009613b49600284906105df565b016107d0565b613b62613b5c6001610346565b91610346565b14613ae3565b5050905090565b80613b98613b92613b8d6001613b87339560026105df565b0161063d565b61021f565b9161021f565b03613ba857613ba690613bc4565b565b5f632552cded60e11b815280613bc060048201610588565b0390fd5b613bda6009613bd48360026105df565b016107d0565b613bec613be65f610346565b91610346565b03613bfc57613bfa90613c64565b565b5f63ac49f26560e01b815280613c1460048201610588565b0390fd5b60081b90565b90613c2b61ff0091613c18565b9181191691161790565b613c3e90610346565b90565b90565b90613c59613c54613c6092613c35565b613c41565b8254613c1e565b9055565b613c86613c7b613c76600284906105df565b611b75565b600960029101613c44565b33613cba613cb47f844c792f3d122ddfe76f9173cd5b48de3087f78395e0f62b94f9d471c991dcb2936105c3565b91610bb1565b91613cc3610202565b80613ccd81610588565b0390a3565b613cdb90613b6f565b565b9080613cfa613cf4613cef6003610611565b61027f565b9161027f565b1015613d0c57613d0991613d28565b90565b5f6337f9b70b60e11b815280613d2460048201610588565b0390fd5b613d3d91613d38915060026105df565b61190b565b90565b613d5190613d4c6138cd565b613cdd565b90565b6001613d6d613d7392613d6561308e565b5060026105df565b0161063d565b90565b80613d9f613d99613d946001613d8e339560026105df565b0161063d565b61021f565b9161021f565b03613daf57613dad90613dcb565b565b5f632552cded60e11b815280613dc760048201610588565b0390fd5b613de16009613ddb8360026105df565b016107d0565b613df3613ded5f610346565b91610346565b03613e0357613e0190613e2f565b565b5f63ac49f26560e01b815280613e1b60048201610588565b0390fd5b90565b613e2c905461065e565b90565b613e43613e3e600283906105df565b611b75565b613e57613e5260088301613e1f565b613e22565b613e69613e635f61157d565b9161027f565b14613ec957613e7d90600960019101613c44565b33613eb1613eab7f0a7083224233fc5630db51d4d433adf417be6f67e2f466bf1329565a341580a6936105c3565b91610bb1565b91613eba610202565b80613ec481610588565b0390a3565b5f63cac4011f60e01b815280613ee160048201610588565b0390fd5b613eee90613d76565b565b613f0190613efc6144cb565b613f03565b565b80613f1e613f18613f135f612dd3565b61021f565b9161021f565b14613f2e57613f2c90614519565b565b613f51613f3a5f612dd3565b5f918291631e4fbdf760e01b8352600483016110d3565b0390fd5b613f5e90613ef0565b565b613f6c60068201610611565b613f89613f83613f7e60078501610611565b61027f565b9161027f565b1115613ff657613fa4613f9e600b83016107f7565b1561036b565b9081613fce575b50613fb257565b5f631d554f3f60e01b815280613fca60048201610588565b0390fd5b9050613fee613fe8613fe36005429401610611565b61027f565b9161027f565b11155f613fab565b5f638be44e1560e01b81528061400e60048201610588565b0390fd5b61404960c061404e9261402f61402a60608301611ddf565b614578565b61404361403e60808301611ddf565b6145ad565b016127e0565b6145e9565b565b5090565b601f602091010490565b1b90565b9190600861407d9102916140775f198461405e565b9261405e565b9181191691161790565b919061409d6140986140a5936105c3565b611bdd565b908354614062565b9055565b6140bb916140b5611ddb565b91614087565b565b5b8181106140c9575050565b806140d65f6001936140a9565b016140be565b9190601f81116140ec575b505050565b6140f861411d93610688565b90602061410484614054565b83019310614125575b61411690614054565b01906140bd565b5f80806140e7565b91506141168192905061410d565b90614143905f1990600802610ffb565b191690565b8161415291614133565b906002021790565b916141659082614050565b9067ffffffffffffffff82116142245761418982614183855461065e565b856140dc565b5f90601f83116001146141bc579180916141ab935f926141b0575b5050614148565b90555b565b90915001355f806141a4565b601f198316916141cb85610688565b925f5b81811061420c575091600293918560019694106141f2575b505050020190556141ae565b614202910135601f841690614133565b90555f80806141e6565b919360206001819287870135815501950192016141ce565b61072a565b90614234929161415a565b565b9061424260ff91611bc2565b9181191691161790565b90565b9061426461425f61426b926127ed565b61424c565b8254614236565b9055565b600961430160c06143089461429561428b826020810190612799565b9060028801614229565b6142b06142a6826040810190612799565b9060038801614229565b6142c86142bf60608301611ddf565b60048701611be0565b6142e06142d760808301611ddf565b60058701611be0565b6142fb6142f18260a0810190612799565b9060088801614229565b016127e0565b910161424f565b565b61434160a06143469261432761432260408301611ddf565b614578565b61433b61433660608301611ddf565b6145ad565b016127e0565b6145e9565b565b9061435960018060a01b0391611bc2565b9181191691161790565b90565b9061437b61437661438292610bb1565b614363565b8254614348565b9055565b356143908161125d565b90565b906143a86143a36143af92612244565b612250565b8254614236565b9055565b9260c0906144a76144c9966143dc600b966143d36144c2975f8b01611be0565b60018901614366565b6143f66143ec845f810190612799565b9060028a01614229565b614411614407846020810190612799565b9060038a01614229565b61442961442060408501611ddf565b60048901611be0565b61444161443860608501611ddf565b60058901611be0565b61445661444d5f61157d565b60068901611be0565b61446b6144625f61157d565b60078901611be0565b61448661447c846080810190612799565b9060088a01614229565b61449e61449560a085016127e0565b6009890161424f565b60098701613c44565b6144bc6144b35f61157d565b600a8701611be0565b01614386565b9101614393565b565b6144d3613092565b6144ec6144e66144e1614630565b61021f565b9161021f565b036144f357565b6145156144fe614630565b5f91829163118cdaa760e01b8352600483016110d3565b0390fd5b6145225f61063d565b61452c825f614366565b9061456061455a7f8be0079c531659141344cd1fd0a4f28419497f9722a3daafe3b4186f6b6457e093610bb1565b91610bb1565b91614569610202565b8061457381610588565b0390a3565b61458a6145845f61157d565b9161027f565b1461459157565b5f63f5a2670960e01b8152806145a960048201610588565b0390fd5b6145bf6145b94261027f565b9161027f565b11156145c757565b5f63d956ff6760e01b8152806145df60048201610588565b0390fd5b60ff1690565b6145f29061031e565b61460d614607614602600561031e565b6145e3565b916145e3565b1161461457565b5f6301e743b960e71b81528061462c60048201610588565b0390fd5b61463861308e565b50339056fea264697066735822122044c87023abf45012f7cf49c04f9c684e039de045c6348beae60e786da9b4dad764736f6c634300081d0033","linkReferences":{}},"methodIdentifiers":{"campaignCount()":"7274e30d","campaignDonors(uint256,address)":"4fa4479a","campaigns(uint256)":"141961bc","cancelDraftCampaign(uint256)":"e2205ecf","createDraft((string,string,uint256,uint256,string,uint8,bool))":"517dbc5c","createPublishedCampaign((string,string,uint256,uint256,string,uint8,bool))":"b314df87","donateToCampaign(uint256)":"42a4fda8","getActiveCampaigns((uint256,uint256))":"b3924307","getCampaign(uint256,bool)":"d224d9ec","getCampaignById(uint256)":"e6ffcaa1","getCampaignOwner(uint256)":"ee835ae4","getCampaignStatus(uint256)":"6c19e004","getCampaigns()":"a6b03633","getCampaignsByCategory(uint8)":"d93df3a1","getCompletedCampaigns((uint256,uint256))":"34ef585f","getDonorCount(uint256)":"5943c705","getDonorInfo(uint256,address)":"b222f8aa","getPublishedCampaigns((uint256,uint256))":"5f417535","getPublishedCampaignsUnpaginated()":"49f3c992","getRemainingBalance(uint256)":"78e94dd2","getUserActiveCampaigns(address)":"746920a8","getUserCampaigns(address)":"a1e5084c","getUserDraftCampaigns(address)":"0cfc1e73","getUserPublishedCampaigns(address)":"5eb918a6","owner()":"8da5cb5b","publishCampaign(uint256)":"f0a603bc","renounceOwnership()":"715018a6","transferOwnership(address)":"f2fde38b","updateDraftCampaign((uint256,string,string,uint256,uint256,string,uint8))":"50c4984c","withdrawCampaignFunds(uint256)":"14169e2a"},"id":24}