{
  "_format": "hh-sol-artifact-1",
  "contractName": "CrowdFunding",
  "sourceName": "contracts/CrowdFunding.sol",
  "abi": [
    {
      "inputs": [],
      "stateMutability": "nonpayable",
      "type": "constructor"
    },
    {
      "inputs": [],
      "name": "CampaignActive",
      "type": "error"
    },
    {
      "inputs": [],
      "name": "CampaignEnded",
      "type": "error"
    },
    {
      "inputs": [],
      "name": "CampaignNotFound",
      "type": "error"
    },
    {
      "inputs": [],
      "name": "CampaignNotPublished",
      "type": "error"
    },
    {
      "inputs": [],
      "name": "DeadlinePassed",
      "type": "error"
    },
    {
      "inputs": [
        {
          "internalType": "address",
          "name": "sender",
          "type": "address"
        },
        {
          "internalType": "uint256",
          "name": "tokenId",
          "type": "uint256"
        },
        {
          "internalType": "address",
          "name": "owner",
          "type": "address"
        }
      ],
      "name": "ERC721IncorrectOwner",
      "type": "error"
    },
    {
      "inputs": [
        {
          "internalType": "address",
          "name": "operator",
          "type": "address"
        },
        {
          "internalType": "uint256",
          "name": "tokenId",
          "type": "uint256"
        }
      ],
      "name": "ERC721InsufficientApproval",
      "type": "error"
    },
    {
      "inputs": [
        {
          "internalType": "address",
          "name": "approver",
          "type": "address"
        }
      ],
      "name": "ERC721InvalidApprover",
      "type": "error"
    },
    {
      "inputs": [
        {
          "internalType": "address",
          "name": "operator",
          "type": "address"
        }
      ],
      "name": "ERC721InvalidOperator",
      "type": "error"
    },
    {
      "inputs": [
        {
          "internalType": "address",
          "name": "owner",
          "type": "address"
        }
      ],
      "name": "ERC721InvalidOwner",
      "type": "error"
    },
    {
      "inputs": [
        {
          "internalType": "address",
          "name": "receiver",
          "type": "address"
        }
      ],
      "name": "ERC721InvalidReceiver",
      "type": "error"
    },
    {
      "inputs": [
        {
          "internalType": "address",
          "name": "sender",
          "type": "address"
        }
      ],
      "name": "ERC721InvalidSender",
      "type": "error"
    },
    {
      "inputs": [
        {
          "internalType": "uint256",
          "name": "tokenId",
          "type": "uint256"
        }
      ],
      "name": "ERC721NonexistentToken",
      "type": "error"
    },
    {
      "inputs": [],
      "name": "InsufficientBalance",
      "type": "error"
    },
    {
      "inputs": [],
      "name": "InvalidCategory",
      "type": "error"
    },
    {
      "inputs": [],
      "name": "InvalidDeadline",
      "type": "error"
    },
    {
      "inputs": [],
      "name": "InvalidTarget",
      "type": "error"
    },
    {
      "inputs": [],
      "name": "NoDonationsMade",
      "type": "error"
    },
    {
      "inputs": [],
      "name": "NotCampaignOwner",
      "type": "error"
    },
    {
      "inputs": [],
      "name": "NotDraftStatus",
      "type": "error"
    },
    {
      "inputs": [
        {
          "internalType": "address",
          "name": "owner",
          "type": "address"
        }
      ],
      "name": "OwnableInvalidOwner",
      "type": "error"
    },
    {
      "inputs": [
        {
          "internalType": "address",
          "name": "account",
          "type": "address"
        }
      ],
      "name": "OwnableUnauthorizedAccount",
      "type": "error"
    },
    {
      "inputs": [],
      "name": "WithdrawalFailed",
      "type": "error"
    },
    {
      "inputs": [],
      "name": "WithdrawalNotAllowed",
      "type": "error"
    },
    {
      "inputs": [],
      "name": "ZeroDonation",
      "type": "error"
    },
    {
      "anonymous": false,
      "inputs": [
        {
          "indexed": true,
          "internalType": "address",
          "name": "owner",
          "type": "address"
        },
        {
          "indexed": true,
          "internalType": "address",
          "name": "approved",
          "type": "address"
        },
        {
          "indexed": true,
          "internalType": "uint256",
          "name": "tokenId",
          "type": "uint256"
        }
      ],
      "name": "Approval",
      "type": "event"
    },
    {
      "anonymous": false,
      "inputs": [
        {
          "indexed": true,
          "internalType": "address",
          "name": "owner",
          "type": "address"
        },
        {
          "indexed": true,
          "internalType": "address",
          "name": "operator",
          "type": "address"
        },
        {
          "indexed": false,
          "internalType": "bool",
          "name": "approved",
          "type": "bool"
        }
      ],
      "name": "ApprovalForAll",
      "type": "event"
    },
    {
      "anonymous": false,
      "inputs": [
        {
          "indexed": false,
          "internalType": "uint256",
          "name": "id",
          "type": "uint256"
        },
        {
          "indexed": false,
          "internalType": "address",
          "name": "owner",
          "type": "address"
        }
      ],
      "name": "CampaignCancelled",
      "type": "event"
    },
    {
      "anonymous": false,
      "inputs": [
        {
          "indexed": false,
          "internalType": "uint256",
          "name": "id",
          "type": "uint256"
        },
        {
          "indexed": false,
          "internalType": "address",
          "name": "owner",
          "type": "address"
        },
        {
          "indexed": false,
          "internalType": "string",
          "name": "title",
          "type": "string"
        },
        {
          "indexed": false,
          "internalType": "string",
          "name": "description",
          "type": "string"
        },
        {
          "indexed": false,
          "internalType": "uint256",
          "name": "target",
          "type": "uint256"
        },
        {
          "indexed": false,
          "internalType": "uint256",
          "name": "deadline",
          "type": "uint256"
        },
        {
          "indexed": false,
          "internalType": "string",
          "name": "image",
          "type": "string"
        },
        {
          "indexed": false,
          "internalType": "enum CrowdFunding.Category",
          "name": "category",
          "type": "uint8"
        },
        {
          "indexed": false,
          "internalType": "enum CrowdFunding.CampaignStatus",
          "name": "status",
          "type": "uint8"
        },
        {
          "indexed": false,
          "internalType": "bool",
          "name": "allowFlexibleWithdrawal",
          "type": "bool"
        }
      ],
      "name": "CampaignCreated",
      "type": "event"
    },
    {
      "anonymous": false,
      "inputs": [
        {
          "indexed": false,
          "internalType": "uint256",
          "name": "id",
          "type": "uint256"
        },
        {
          "indexed": false,
          "internalType": "address",
          "name": "donator",
          "type": "address"
        },
        {
          "indexed": false,
          "internalType": "uint256",
          "name": "amount",
          "type": "uint256"
        }
      ],
      "name": "CampaignDonated",
      "type": "event"
    },
    {
      "anonymous": false,
      "inputs": [
        {
          "indexed": false,
          "internalType": "uint256",
          "name": "id",
          "type": "uint256"
        },
        {
          "indexed": false,
          "internalType": "address",
          "name": "owner",
          "type": "address"
        }
      ],
      "name": "CampaignPublished",
      "type": "event"
    },
    {
      "anonymous": false,
      "inputs": [
        {
          "indexed": false,
          "internalType": "uint256",
          "name": "id",
          "type": "uint256"
        },
        {
          "indexed": false,
          "internalType": "string",
          "name": "title",
          "type": "string"
        },
        {
          "indexed": false,
          "internalType": "string",
          "name": "description",
          "type": "string"
        },
        {
          "indexed": false,
          "internalType": "uint256",
          "name": "target",
          "type": "uint256"
        },
        {
          "indexed": false,
          "internalType": "uint256",
          "name": "deadline",
          "type": "uint256"
        },
        {
          "indexed": false,
          "internalType": "string",
          "name": "image",
          "type": "string"
        },
        {
          "indexed": false,
          "internalType": "enum CrowdFunding.Category",
          "name": "category",
          "type": "uint8"
        }
      ],
      "name": "CampaignUpdated",
      "type": "event"
    },
    {
      "anonymous": false,
      "inputs": [
        {
          "indexed": false,
          "internalType": "uint256",
          "name": "id",
          "type": "uint256"
        },
        {
          "indexed": false,
          "internalType": "address",
          "name": "owner",
          "type": "address"
        },
        {
          "indexed": false,
          "internalType": "uint256",
          "name": "amount",
          "type": "uint256"
        }
      ],
      "name": "FundsWithdrawn",
      "type": "event"
    },
    {
      "anonymous": false,
      "inputs": [
        {
          "indexed": true,
          "internalType": "address",
          "name": "previousOwner",
          "type": "address"
        },
        {
          "indexed": true,
          "internalType": "address",
          "name": "newOwner",
          "type": "address"
        }
      ],
      "name": "OwnershipTransferred",
      "type": "event"
    },
    {
      "anonymous": false,
      "inputs": [
        {
          "indexed": true,
          "internalType": "address",
          "name": "from",
          "type": "address"
        },
        {
          "indexed": true,
          "internalType": "address",
          "name": "to",
          "type": "address"
        },
        {
          "indexed": true,
          "internalType": "uint256",
          "name": "tokenId",
          "type": "uint256"
        }
      ],
      "name": "Transfer",
      "type": "event"
    },
    {
      "inputs": [
        {
          "internalType": "address",
          "name": "to",
          "type": "address"
        },
        {
          "internalType": "uint256",
          "name": "tokenId",
          "type": "uint256"
        }
      ],
      "name": "approve",
      "outputs": [],
      "stateMutability": "nonpayable",
      "type": "function"
    },
    {
      "inputs": [
        {
          "internalType": "address",
          "name": "owner",
          "type": "address"
        }
      ],
      "name": "balanceOf",
      "outputs": [
        {
          "internalType": "uint256",
          "name": "",
          "type": "uint256"
        }
      ],
      "stateMutability": "view",
      "type": "function"
    },
    {
      "inputs": [],
      "name": "campaignCount",
      "outputs": [
        {
          "internalType": "uint256",
          "name": "",
          "type": "uint256"
        }
      ],
      "stateMutability": "view",
      "type": "function"
    },
    {
      "inputs": [
        {
          "internalType": "uint256",
          "name": "",
          "type": "uint256"
        },
        {
          "internalType": "address",
          "name": "",
          "type": "address"
        }
      ],
      "name": "campaignDonors",
      "outputs": [
        {
          "internalType": "uint128",
          "name": "amount",
          "type": "uint128"
        },
        {
          "internalType": "uint64",
          "name": "timestamp",
          "type": "uint64"
        },
        {
          "internalType": "bool",
          "name": "hasDonated",
          "type": "bool"
        },
        {
          "internalType": "uint16",
          "name": "noOfDonations",
          "type": "uint16"
        }
      ],
      "stateMutability": "view",
      "type": "function"
    },
    {
      "inputs": [
        {
          "internalType": "uint256",
          "name": "",
          "type": "uint256"
        }
      ],
      "name": "campaigns",
      "outputs": [
        {
          "internalType": "uint256",
          "name": "id",
          "type": "uint256"
        },
        {
          "internalType": "address",
          "name": "owner",
          "type": "address"
        },
        {
          "internalType": "string",
          "name": "title",
          "type": "string"
        },
        {
          "internalType": "string",
          "name": "description",
          "type": "string"
        },
        {
          "internalType": "uint256",
          "name": "target",
          "type": "uint256"
        },
        {
          "internalType": "uint256",
          "name": "deadline",
          "type": "uint256"
        },
        {
          "internalType": "uint256",
          "name": "amountCollected",
          "type": "uint256"
        },
        {
          "internalType": "uint256",
          "name": "withdrawnAmount",
          "type": "uint256"
        },
        {
          "internalType": "string",
          "name": "image",
          "type": "string"
        },
        {
          "internalType": "enum CrowdFunding.Category",
          "name": "category",
          "type": "uint8"
        },
        {
          "internalType": "enum CrowdFunding.CampaignStatus",
          "name": "status",
          "type": "uint8"
        },
        {
          "internalType": "uint256",
          "name": "donorCount",
          "type": "uint256"
        },
        {
          "internalType": "bool",
          "name": "allowFlexibleWithdrawal",
          "type": "bool"
        }
      ],
      "stateMutability": "view",
      "type": "function"
    },
    {
      "inputs": [
        {
          "internalType": "uint256",
          "name": "_id",
          "type": "uint256"
        }
      ],
      "name": "cancelDraftCampaign",
      "outputs": [],
      "stateMutability": "nonpayable",
      "type": "function"
    },
    {
      "inputs": [
        {
          "internalType": "string",
          "name": "_title",
          "type": "string"
        },
        {
          "internalType": "string",
          "name": "_description",
          "type": "string"
        },
        {
          "internalType": "uint256",
          "name": "_target",
          "type": "uint256"
        },
        {
          "internalType": "uint256",
          "name": "_deadline",
          "type": "uint256"
        },
        {
          "internalType": "string",
          "name": "_image",
          "type": "string"
        },
        {
          "internalType": "enum CrowdFunding.Category",
          "name": "_category",
          "type": "uint8"
        },
        {
          "internalType": "bool",
          "name": "_publishImmediately",
          "type": "bool"
        },
        {
          "internalType": "bool",
          "name": "_allowFlexibleWithdrawal",
          "type": "bool"
        }
      ],
      "name": "createCampaign",
      "outputs": [
        {
          "internalType": "uint256",
          "name": "",
          "type": "uint256"
        }
      ],
      "stateMutability": "nonpayable",
      "type": "function"
    },
    {
      "inputs": [
        {
          "internalType": "uint256",
          "name": "_id",
          "type": "uint256"
        }
      ],
      "name": "donateToCampaign",
      "outputs": [],
      "stateMutability": "payable",
      "type": "function"
    },
    {
      "inputs": [],
      "name": "getActiveCampaigns",
      "outputs": [
        {
          "components": [
            {
              "internalType": "uint256",
              "name": "id",
              "type": "uint256"
            },
            {
              "internalType": "address",
              "name": "owner",
              "type": "address"
            },
            {
              "internalType": "string",
              "name": "title",
              "type": "string"
            },
            {
              "internalType": "string",
              "name": "description",
              "type": "string"
            },
            {
              "internalType": "uint256",
              "name": "target",
              "type": "uint256"
            },
            {
              "internalType": "uint256",
              "name": "deadline",
              "type": "uint256"
            },
            {
              "internalType": "uint256",
              "name": "amountCollected",
              "type": "uint256"
            },
            {
              "internalType": "uint256",
              "name": "withdrawnAmount",
              "type": "uint256"
            },
            {
              "internalType": "string",
              "name": "image",
              "type": "string"
            },
            {
              "internalType": "enum CrowdFunding.Category",
              "name": "category",
              "type": "uint8"
            },
            {
              "internalType": "enum CrowdFunding.CampaignStatus",
              "name": "status",
              "type": "uint8"
            },
            {
              "internalType": "uint256",
              "name": "donorCount",
              "type": "uint256"
            },
            {
              "internalType": "bool",
              "name": "allowFlexibleWithdrawal",
              "type": "bool"
            }
          ],
          "internalType": "struct CrowdFunding.Campaign[]",
          "name": "",
          "type": "tuple[]"
        }
      ],
      "stateMutability": "view",
      "type": "function"
    },
    {
      "inputs": [
        {
          "internalType": "uint256",
          "name": "tokenId",
          "type": "uint256"
        }
      ],
      "name": "getApproved",
      "outputs": [
        {
          "internalType": "address",
          "name": "",
          "type": "address"
        }
      ],
      "stateMutability": "view",
      "type": "function"
    },
    {
      "inputs": [
        {
          "internalType": "uint256",
          "name": "_id",
          "type": "uint256"
        },
        {
          "internalType": "bool",
          "name": "publishedOnly",
          "type": "bool"
        }
      ],
      "name": "getCampaign",
      "outputs": [
        {
          "components": [
            {
              "internalType": "uint256",
              "name": "id",
              "type": "uint256"
            },
            {
              "internalType": "address",
              "name": "owner",
              "type": "address"
            },
            {
              "internalType": "string",
              "name": "title",
              "type": "string"
            },
            {
              "internalType": "string",
              "name": "description",
              "type": "string"
            },
            {
              "internalType": "uint256",
              "name": "target",
              "type": "uint256"
            },
            {
              "internalType": "uint256",
              "name": "deadline",
              "type": "uint256"
            },
            {
              "internalType": "uint256",
              "name": "amountCollected",
              "type": "uint256"
            },
            {
              "internalType": "uint256",
              "name": "withdrawnAmount",
              "type": "uint256"
            },
            {
              "internalType": "string",
              "name": "image",
              "type": "string"
            },
            {
              "internalType": "enum CrowdFunding.Category",
              "name": "category",
              "type": "uint8"
            },
            {
              "internalType": "enum CrowdFunding.CampaignStatus",
              "name": "status",
              "type": "uint8"
            },
            {
              "internalType": "uint256",
              "name": "donorCount",
              "type": "uint256"
            },
            {
              "internalType": "bool",
              "name": "allowFlexibleWithdrawal",
              "type": "bool"
            }
          ],
          "internalType": "struct CrowdFunding.Campaign",
          "name": "",
          "type": "tuple"
        }
      ],
      "stateMutability": "view",
      "type": "function"
    },
    {
      "inputs": [],
      "name": "getCampaigns",
      "outputs": [
        {
          "components": [
            {
              "internalType": "uint256",
              "name": "id",
              "type": "uint256"
            },
            {
              "internalType": "address",
              "name": "owner",
              "type": "address"
            },
            {
              "internalType": "string",
              "name": "title",
              "type": "string"
            },
            {
              "internalType": "string",
              "name": "description",
              "type": "string"
            },
            {
              "internalType": "uint256",
              "name": "target",
              "type": "uint256"
            },
            {
              "internalType": "uint256",
              "name": "deadline",
              "type": "uint256"
            },
            {
              "internalType": "uint256",
              "name": "amountCollected",
              "type": "uint256"
            },
            {
              "internalType": "uint256",
              "name": "withdrawnAmount",
              "type": "uint256"
            },
            {
              "internalType": "string",
              "name": "image",
              "type": "string"
            },
            {
              "internalType": "enum CrowdFunding.Category",
              "name": "category",
              "type": "uint8"
            },
            {
              "internalType": "enum CrowdFunding.CampaignStatus",
              "name": "status",
              "type": "uint8"
            },
            {
              "internalType": "uint256",
              "name": "donorCount",
              "type": "uint256"
            },
            {
              "internalType": "bool",
              "name": "allowFlexibleWithdrawal",
              "type": "bool"
            }
          ],
          "internalType": "struct CrowdFunding.Campaign[]",
          "name": "",
          "type": "tuple[]"
        }
      ],
      "stateMutability": "view",
      "type": "function"
    },
    {
      "inputs": [
        {
          "internalType": "enum CrowdFunding.Category",
          "name": "_category",
          "type": "uint8"
        }
      ],
      "name": "getCampaignsByCategory",
      "outputs": [
        {
          "components": [
            {
              "internalType": "uint256",
              "name": "id",
              "type": "uint256"
            },
            {
              "internalType": "address",
              "name": "owner",
              "type": "address"
            },
            {
              "internalType": "string",
              "name": "title",
              "type": "string"
            },
            {
              "internalType": "string",
              "name": "description",
              "type": "string"
            },
            {
              "internalType": "uint256",
              "name": "target",
              "type": "uint256"
            },
            {
              "internalType": "uint256",
              "name": "deadline",
              "type": "uint256"
            },
            {
              "internalType": "uint256",
              "name": "amountCollected",
              "type": "uint256"
            },
            {
              "internalType": "uint256",
              "name": "withdrawnAmount",
              "type": "uint256"
            },
            {
              "internalType": "string",
              "name": "image",
              "type": "string"
            },
            {
              "internalType": "enum CrowdFunding.Category",
              "name": "category",
              "type": "uint8"
            },
            {
              "internalType": "enum CrowdFunding.CampaignStatus",
              "name": "status",
              "type": "uint8"
            },
            {
              "internalType": "uint256",
              "name": "donorCount",
              "type": "uint256"
            },
            {
              "internalType": "bool",
              "name": "allowFlexibleWithdrawal",
              "type": "bool"
            }
          ],
          "internalType": "struct CrowdFunding.Campaign[]",
          "name": "",
          "type": "tuple[]"
        }
      ],
      "stateMutability": "view",
      "type": "function"
    },
    {
      "inputs": [
        {
          "internalType": "uint256",
          "name": "_id",
          "type": "uint256"
        }
      ],
      "name": "getDonorCount",
      "outputs": [
        {
          "internalType": "uint256",
          "name": "",
          "type": "uint256"
        }
      ],
      "stateMutability": "view",
      "type": "function"
    },
    {
      "inputs": [
        {
          "internalType": "uint256",
          "name": "_id",
          "type": "uint256"
        },
        {
          "internalType": "address",
          "name": "_donor",
          "type": "address"
        }
      ],
      "name": "getDonorInfo",
      "outputs": [
        {
          "internalType": "uint256",
          "name": "amount",
          "type": "uint256"
        },
        {
          "internalType": "uint256",
          "name": "timestamp",
          "type": "uint256"
        },
        {
          "internalType": "uint16",
          "name": "noOfDonations",
          "type": "uint16"
        }
      ],
      "stateMutability": "view",
      "type": "function"
    },
    {
      "inputs": [],
      "name": "getPublishedCampaigns",
      "outputs": [
        {
          "components": [
            {
              "internalType": "uint256",
              "name": "id",
              "type": "uint256"
            },
            {
              "internalType": "address",
              "name": "owner",
              "type": "address"
            },
            {
              "internalType": "string",
              "name": "title",
              "type": "string"
            },
            {
              "internalType": "string",
              "name": "description",
              "type": "string"
            },
            {
              "internalType": "uint256",
              "name": "target",
              "type": "uint256"
            },
            {
              "internalType": "uint256",
              "name": "deadline",
              "type": "uint256"
            },
            {
              "internalType": "uint256",
              "name": "amountCollected",
              "type": "uint256"
            },
            {
              "internalType": "uint256",
              "name": "withdrawnAmount",
              "type": "uint256"
            },
            {
              "internalType": "string",
              "name": "image",
              "type": "string"
            },
            {
              "internalType": "enum CrowdFunding.Category",
              "name": "category",
              "type": "uint8"
            },
            {
              "internalType": "enum CrowdFunding.CampaignStatus",
              "name": "status",
              "type": "uint8"
            },
            {
              "internalType": "uint256",
              "name": "donorCount",
              "type": "uint256"
            },
            {
              "internalType": "bool",
              "name": "allowFlexibleWithdrawal",
              "type": "bool"
            }
          ],
          "internalType": "struct CrowdFunding.Campaign[]",
          "name": "",
          "type": "tuple[]"
        }
      ],
      "stateMutability": "view",
      "type": "function"
    },
    {
      "inputs": [
        {
          "internalType": "uint256",
          "name": "_id",
          "type": "uint256"
        }
      ],
      "name": "getRemainingBalance",
      "outputs": [
        {
          "internalType": "uint256",
          "name": "",
          "type": "uint256"
        }
      ],
      "stateMutability": "view",
      "type": "function"
    },
    {
      "inputs": [
        {
          "internalType": "address",
          "name": "_owner",
          "type": "address"
        }
      ],
      "name": "getUserDraftCampaigns",
      "outputs": [
        {
          "components": [
            {
              "internalType": "uint256",
              "name": "id",
              "type": "uint256"
            },
            {
              "internalType": "address",
              "name": "owner",
              "type": "address"
            },
            {
              "internalType": "string",
              "name": "title",
              "type": "string"
            },
            {
              "internalType": "string",
              "name": "description",
              "type": "string"
            },
            {
              "internalType": "uint256",
              "name": "target",
              "type": "uint256"
            },
            {
              "internalType": "uint256",
              "name": "deadline",
              "type": "uint256"
            },
            {
              "internalType": "uint256",
              "name": "amountCollected",
              "type": "uint256"
            },
            {
              "internalType": "uint256",
              "name": "withdrawnAmount",
              "type": "uint256"
            },
            {
              "internalType": "string",
              "name": "image",
              "type": "string"
            },
            {
              "internalType": "enum CrowdFunding.Category",
              "name": "category",
              "type": "uint8"
            },
            {
              "internalType": "enum CrowdFunding.CampaignStatus",
              "name": "status",
              "type": "uint8"
            },
            {
              "internalType": "uint256",
              "name": "donorCount",
              "type": "uint256"
            },
            {
              "internalType": "bool",
              "name": "allowFlexibleWithdrawal",
              "type": "bool"
            }
          ],
          "internalType": "struct CrowdFunding.Campaign[]",
          "name": "",
          "type": "tuple[]"
        }
      ],
      "stateMutability": "view",
      "type": "function"
    },
    {
      "inputs": [
        {
          "internalType": "address",
          "name": "owner",
          "type": "address"
        },
        {
          "internalType": "address",
          "name": "operator",
          "type": "address"
        }
      ],
      "name": "isApprovedForAll",
      "outputs": [
        {
          "internalType": "bool",
          "name": "",
          "type": "bool"
        }
      ],
      "stateMutability": "view",
      "type": "function"
    },
    {
      "inputs": [],
      "name": "name",
      "outputs": [
        {
          "internalType": "string",
          "name": "",
          "type": "string"
        }
      ],
      "stateMutability": "view",
      "type": "function"
    },
    {
      "inputs": [],
      "name": "owner",
      "outputs": [
        {
          "internalType": "address",
          "name": "",
          "type": "address"
        }
      ],
      "stateMutability": "view",
      "type": "function"
    },
    {
      "inputs": [
        {
          "internalType": "uint256",
          "name": "tokenId",
          "type": "uint256"
        }
      ],
      "name": "ownerOf",
      "outputs": [
        {
          "internalType": "address",
          "name": "",
          "type": "address"
        }
      ],
      "stateMutability": "view",
      "type": "function"
    },
    {
      "inputs": [
        {
          "internalType": "uint256",
          "name": "_id",
          "type": "uint256"
        }
      ],
      "name": "publishCampaign",
      "outputs": [],
      "stateMutability": "nonpayable",
      "type": "function"
    },
    {
      "inputs": [],
      "name": "renounceOwnership",
      "outputs": [],
      "stateMutability": "nonpayable",
      "type": "function"
    },
    {
      "inputs": [
        {
          "internalType": "address",
          "name": "from",
          "type": "address"
        },
        {
          "internalType": "address",
          "name": "to",
          "type": "address"
        },
        {
          "internalType": "uint256",
          "name": "tokenId",
          "type": "uint256"
        }
      ],
      "name": "safeTransferFrom",
      "outputs": [],
      "stateMutability": "nonpayable",
      "type": "function"
    },
    {
      "inputs": [
        {
          "internalType": "address",
          "name": "from",
          "type": "address"
        },
        {
          "internalType": "address",
          "name": "to",
          "type": "address"
        },
        {
          "internalType": "uint256",
          "name": "tokenId",
          "type": "uint256"
        },
        {
          "internalType": "bytes",
          "name": "data",
          "type": "bytes"
        }
      ],
      "name": "safeTransferFrom",
      "outputs": [],
      "stateMutability": "nonpayable",
      "type": "function"
    },
    {
      "inputs": [
        {
          "internalType": "address",
          "name": "operator",
          "type": "address"
        },
        {
          "internalType": "bool",
          "name": "approved",
          "type": "bool"
        }
      ],
      "name": "setApprovalForAll",
      "outputs": [],
      "stateMutability": "nonpayable",
      "type": "function"
    },
    {
      "inputs": [
        {
          "internalType": "bytes4",
          "name": "interfaceId",
          "type": "bytes4"
        }
      ],
      "name": "supportsInterface",
      "outputs": [
        {
          "internalType": "bool",
          "name": "",
          "type": "bool"
        }
      ],
      "stateMutability": "view",
      "type": "function"
    },
    {
      "inputs": [],
      "name": "symbol",
      "outputs": [
        {
          "internalType": "string",
          "name": "",
          "type": "string"
        }
      ],
      "stateMutability": "view",
      "type": "function"
    },
    {
      "inputs": [
        {
          "internalType": "uint256",
          "name": "tokenId",
          "type": "uint256"
        }
      ],
      "name": "tokenURI",
      "outputs": [
        {
          "internalType": "string",
          "name": "",
          "type": "string"
        }
      ],
      "stateMutability": "view",
      "type": "function"
    },
    {
      "inputs": [
        {
          "internalType": "address",
          "name": "from",
          "type": "address"
        },
        {
          "internalType": "address",
          "name": "to",
          "type": "address"
        },
        {
          "internalType": "uint256",
          "name": "tokenId",
          "type": "uint256"
        }
      ],
      "name": "transferFrom",
      "outputs": [],
      "stateMutability": "nonpayable",
      "type": "function"
    },
    {
      "inputs": [
        {
          "internalType": "address",
          "name": "newOwner",
          "type": "address"
        }
      ],
      "name": "transferOwnership",
      "outputs": [],
      "stateMutability": "nonpayable",
      "type": "function"
    },
    {
      "inputs": [
        {
          "internalType": "uint256",
          "name": "_id",
          "type": "uint256"
        },
        {
          "internalType": "string",
          "name": "_title",
          "type": "string"
        },
        {
          "internalType": "string",
          "name": "_description",
          "type": "string"
        },
        {
          "internalType": "uint256",
          "name": "_target",
          "type": "uint256"
        },
        {
          "internalType": "uint256",
          "name": "_deadline",
          "type": "uint256"
        },
        {
          "internalType": "string",
          "name": "_image",
          "type": "string"
        },
        {
          "internalType": "enum CrowdFunding.Category",
          "name": "_category",
          "type": "uint8"
        }
      ],
      "name": "updateDraftCampaign",
      "outputs": [],
      "stateMutability": "nonpayable",
      "type": "function"
    },
    {
      "inputs": [
        {
          "internalType": "uint256",
          "name": "_id",
          "type": "uint256"
        }
      ],
      "name": "withdrawCampaignFunds",
      "outputs": [],
      "stateMutability": "nonpayable",
      "type": "function"
    }
  ],
  "bytecode": "0x6080604052600060095534801561001557600080fd5b50336040518060400160405280600c81526020016b43726f776446756e64696e6760a01b8152506040518060400160405280600581526020016410d493d5d160da1b815250816000908161006991906101a7565b50600161007682826101a7565b5050506001600160a01b0381166100a757604051631e4fbdf760e01b81526000600482015260240160405180910390fd5b6100b0816100b6565b50610265565b600680546001600160a01b038381166001600160a01b0319831681179093556040519116919082907f8be0079c531659141344cd1fd0a4f28419497f9722a3daafe3b4186f6b6457e090600090a35050565b634e487b7160e01b600052604160045260246000fd5b600181811c9082168061013257607f821691505b60208210810361015257634e487b7160e01b600052602260045260246000fd5b50919050565b601f8211156101a257806000526020600020601f840160051c8101602085101561017f5750805b601f840160051c820191505b8181101561019f576000815560010161018b565b50505b505050565b81516001600160401b038111156101c0576101c0610108565b6101d4816101ce845461011e565b84610158565b6020601f82116001811461020857600083156101f05750848201515b600019600385901b1c1916600184901b17845561019f565b600084815260208120601f198516915b828110156102385787850151825560209485019460019092019101610218565b50848210156102565786840151600019600387901b60f8161c191681555b50505050600190811b01905550565b613e93806102746000396000f3fe6080604052600436106101f95760003560e01c80637274e30d1161010d578063c362b156116100a0578063e2205ecf1161006f578063e2205ecf14610680578063e985e9c5146106a0578063ec1c36ea146106c0578063f0a603bc146106d5578063f2fde38b146106f557600080fd5b8063c362b156146105fe578063c87b56dd14610613578063d224d9ec14610633578063d93df3a11461066057600080fd5b8063a22cb465116100dc578063a22cb4651461056a578063a6b036331461058a578063b222f8aa1461059f578063b88d4fde146105de57600080fd5b80637274e30d1461050157806378e94dd2146105175780638da5cb5b1461053757806395d89b411461055557600080fd5b8063293543db11610190578063575057721161015f578063575057721461044e5780635943c7051461047c5780636352211e146104ac57806370a08231146104cc578063715018a6146104ec57600080fd5b8063293543db1461035557806342842e0e1461037557806342a4fda8146103955780634fa4479a146103a857600080fd5b80630cfc1e73116101cc5780630cfc1e73146102af57806314169e2a146102dc578063141961bc146102fc57806323b872dd1461033557600080fd5b806301ffc9a7146101fe57806306fdde0314610233578063081812fc14610255578063095ea7b31461028d575b600080fd5b34801561020a57600080fd5b5061021e6102193660046133e5565b610715565b60405190151581526020015b60405180910390f35b34801561023f57600080fd5b50610248610767565b60405161022a9190613452565b34801561026157600080fd5b50610275610270366004613465565b6107f9565b6040516001600160a01b03909116815260200161022a565b34801561029957600080fd5b506102ad6102a836600461349a565b610822565b005b3480156102bb57600080fd5b506102cf6102ca3660046134c4565b610831565b60405161022a9190613600565b3480156102e857600080fd5b506102ad6102f7366004613465565b610c4e565b34801561030857600080fd5b5061031c610317366004613465565b610dec565b60405161022a9d9c9b9a99989796959493929190613665565b34801561034157600080fd5b506102ad610350366004613716565b610ff7565b34801561036157600080fd5b506102ad610370366004613810565b611087565b34801561038157600080fd5b506102ad610390366004613716565b611242565b6102ad6103a3366004613465565b611262565b3480156103b457600080fd5b506104126103c33660046138cf565b60076020908152600092835260408084209091529082529020546001600160801b03811690600160801b81046001600160401b031690600160c01b810460ff1690600160c81b900461ffff1684565b604080516001600160801b0390951685526001600160401b0390931660208501529015159183019190915261ffff16606082015260800161022a565b34801561045a57600080fd5b5061046e61046936600461390b565b611437565b60405190815260200161022a565b34801561048857600080fd5b5061046e610497366004613465565b6000908152600860205260409020600a015490565b3480156104b857600080fd5b506102756104c7366004613465565b611610565b3480156104d857600080fd5b5061046e6104e73660046134c4565b61161b565b3480156104f857600080fd5b506102ad611663565b34801561050d57600080fd5b5061046e60095481565b34801561052357600080fd5b5061046e610532366004613465565b611677565b34801561054357600080fd5b506006546001600160a01b0316610275565b34801561056157600080fd5b506102486116a0565b34801561057657600080fd5b506102ad6105853660046139e2565b6116af565b34801561059657600080fd5b506102cf6116ba565b3480156105ab57600080fd5b506105bf6105ba3660046138cf565b6119ec565b60408051938452602084019290925261ffff169082015260600161022a565b3480156105ea57600080fd5b506102ad6105f9366004613a0c565b611aac565b34801561060a57600080fd5b506102cf611ac4565b34801561061f57600080fd5b5061024861062e366004613465565b611eca565b34801561063f57600080fd5b5061065361064e366004613a87565b611f3e565b60405161022a9190613aaa565b34801561066c57600080fd5b506102cf61067b366004613abd565b612246565b34801561068c57600080fd5b506102ad61069b366004613465565b61268d565b3480156106ac57600080fd5b5061021e6106bb366004613ad8565b612779565b3480156106cc57600080fd5b506102cf6127a7565b3480156106e157600080fd5b506102ad6106f0366004613465565b612b6a565b34801561070157600080fd5b506102ad6107103660046134c4565b612c4c565b60006001600160e01b031982166380ac58cd60e01b148061074657506001600160e01b03198216635b5e139f60e01b145b8061076157506301ffc9a760e01b6001600160e01b03198316145b92915050565b60606000805461077690613b02565b80601f01602080910402602001604051908101604052809291908181526020018280546107a290613b02565b80156107ef5780601f106107c4576101008083540402835291602001916107ef565b820191906000526020600020905b8154815290600101906020018083116107d257829003601f168201915b5050505050905090565b600061080482612c8a565b506000828152600460205260409020546001600160a01b0316610761565b61082d828233612cc3565b5050565b60606000805b6009548110156108b1576000818152600860205260409020600101546001600160a01b038581169116148015610896575060008082815260086020526040902060090154610100900460ff166002811115610894576108946134df565b145b156108a957816108a581613b4c565b9250505b600101610837565b506000816001600160401b038111156108cc576108cc613753565b60405190808252806020026020018201604052801561090557816020015b6108f261334d565b8152602001906001900390816108ea5790505b5090506000805b600954811015610c44576000818152600860205260409020600101546001600160a01b03878116911614801561096b575060008082815260086020526040902060090154610100900460ff166002811115610969576109696134df565b145b15610c3c5760008181526008602090815260409182902082516101a0810184528154815260018201546001600160a01b03169281019290925260028101805492939192918401916109bb90613b02565b80601f01602080910402602001604051908101604052809291908181526020018280546109e790613b02565b8015610a345780601f10610a0957610100808354040283529160200191610a34565b820191906000526020600020905b815481529060010190602001808311610a1757829003601f168201915b50505050508152602001600382018054610a4d90613b02565b80601f0160208091040260200160405190810160405280929190818152602001828054610a7990613b02565b8015610ac65780601f10610a9b57610100808354040283529160200191610ac6565b820191906000526020600020905b815481529060010190602001808311610aa957829003601f168201915b5050505050815260200160048201548152602001600582015481526020016006820154815260200160078201548152602001600882018054610b0790613b02565b80601f0160208091040260200160405190810160405280929190818152602001828054610b3390613b02565b8015610b805780601f10610b5557610100808354040283529160200191610b80565b820191906000526020600020905b815481529060010190602001808311610b6357829003601f168201915b5050509183525050600982015460209091019060ff166005811115610ba757610ba76134df565b6005811115610bb857610bb86134df565b81526020016009820160019054906101000a900460ff166002811115610be057610be06134df565b6002811115610bf157610bf16134df565b8152600a8201546020820152600b9091015460ff1615156040909101528351849084908110610c2257610c22613b65565b60200260200101819052508180610c3890613b4c565b9250505b60010161090c565b5090949350505050565b60008181526008602052604090206001015481906001600160a01b03163314610c8a57604051632552cded60e11b815260040160405180910390fd5b600082815260086020526040812060078101546006820154919291610caf9190613b7b565b905080600003610cd257604051631e9acf1760e31b815260040160405180910390fd5b600b82015460ff16610d025781600501544211610d025760405163b4469b3560e01b815260040160405180910390fd5b600081905080836007016000828254610d1b9190613b8e565b909155505060018301546040516000916001600160a01b03169083908381818185875af1925050503d8060008114610d6f576040519150601f19603f3d011682016040523d82523d6000602084013e610d74565b606091505b5050905080610d96576040516327fcd9d160e01b815260040160405180910390fd5b6001840154604080518881526001600160a01b03909216602083015281018390527ff440aec6b52895984d061d622e6edeba6210f7c3e059be920663140c084560d79060600160405180910390a1505050505050565b60086020526000908152604090208054600182015460028301805492936001600160a01b0390921692610e1e90613b02565b80601f0160208091040260200160405190810160405280929190818152602001828054610e4a90613b02565b8015610e975780601f10610e6c57610100808354040283529160200191610e97565b820191906000526020600020905b815481529060010190602001808311610e7a57829003601f168201915b505050505090806003018054610eac90613b02565b80601f0160208091040260200160405190810160405280929190818152602001828054610ed890613b02565b8015610f255780601f10610efa57610100808354040283529160200191610f25565b820191906000526020600020905b815481529060010190602001808311610f0857829003601f168201915b505050505090806004015490806005015490806006015490806007015490806008018054610f5290613b02565b80601f0160208091040260200160405190810160405280929190818152602001828054610f7e90613b02565b8015610fcb5780601f10610fa057610100808354040283529160200191610fcb565b820191906000526020600020905b815481529060010190602001808311610fae57829003601f168201915b5050506009840154600a850154600b90950154939460ff8083169561010090930481169450909250168d565b6001600160a01b03821661102657604051633250574960e11b8152600060048201526024015b60405180910390fd5b6000611033838333612cd0565b9050836001600160a01b0316816001600160a01b031614611081576040516364283d7b60e01b81526001600160a01b038086166004830152602482018490528216604482015260640161101d565b50505050565b60008781526008602052604090206001015487906001600160a01b031633146110c357604051632552cded60e11b815260040160405180910390fd5b8760008082815260086020526040902060090154610100900460ff1660028111156110f0576110f06134df565b1461110e5760405163ac49f26560e01b815260040160405180910390fd5b8560000361112f5760405163416aebb560e11b815260040160405180910390fd5b42851161114f57604051631da7447960e21b815260040160405180910390fd5b60058381811115611162576111626134df565b60ff16111561118457604051636b3ac97b60e11b815260040160405180910390fd5b6000898152600860205260409020600281016111a08a82613be8565b50600381016111af8982613be8565b506004810187905560058101869055600881016111cc8682613be8565b5060098101805485919060ff191660018360058111156111ee576111ee6134df565b02179055507f730eed3777e8c78ef5f6bbc1eb91b4cfdd522072e57afe212003300ac61594058a8a8a8a8a8a8a60405161122e9796959493929190613ca6565b60405180910390a150505050505050505050565b61125d83838360405180602001604052806000815250611aac565b505050565b60008181526008602052604081209034900361129157604051636370392160e11b815260040160405180910390fd5b60016009820154610100900460ff1660028111156112b1576112b16134df565b146112cf57604051639109fdd160e01b815260040160405180910390fd5b428160050154116112f35760405163154eb81560e21b815260040160405180910390fd5b600082815260076020908152604080832033845290915290208054600160c01b900460ff1661133457600a8201805490600061132e83613b4c565b91905055505b8054349082906000906113519084906001600160801b0316613d01565b82546001600160801b039182166101009390930a928302919092021990911617905550805460ff60c01b196001600160401b034216600160801b021668ffffffffffffffffff60801b1990911617600160c01b1780825561ffff600160c81b909104168160196113c083613d20565b91906101000a81548161ffff021916908361ffff16021790555050348260060160008282546113ef9190613b8e565b909155505060408051848152336020820152348183015290517fab9c35171e39c1e9e36544edfe4e6f20d5ebcb0daefd9c2ea9a533e991fd60879181900360600190a1505050565b60008660000361145a5760405163416aebb560e11b815260040160405180910390fd5b42861161147a57604051631da7447960e21b815260040160405180910390fd5b6005848181111561148d5761148d6134df565b60ff1611156114af57604051636b3ac97b60e11b815260040160405180910390fd5b60095460008181526008602052604090208181556001810180546001600160a01b03191633179055600281016114e58c82613be8565b50600381016114f48b82613be8565b50600481018990556005810188905560006006820181905560078201556008810161151f8882613be8565b5060098101805487919060ff19166001836005811115611541576115416134df565b021790555084611552576000611555565b60015b60098201805461ff001916610100836002811115611575576115756134df565b02179055506000600a8201819055600b8201805460ff191686151517905560098054916115a183613b4c565b91905055507f09375c8fc084ab8b671524155b2ae86852a734633be8f5264e41eac4c2e53ece82338d8d8d8d8d8d8960090160019054906101000a900460ff168d6040516115f89a99989796959493929190613d41565b60405180910390a15090505b98975050505050505050565b600061076182612c8a565b60006001600160a01b038216611647576040516322718ad960e21b81526000600482015260240161101d565b506001600160a01b031660009081526003602052604090205490565b61166b612dc9565b6116756000612df6565b565b6000818152600860205260408120600781015460068201546116999190613b7b565b9392505050565b60606001805461077690613b02565b61082d338383612e48565b606060006009546001600160401b038111156116d8576116d8613753565b60405190808252806020026020018201604052801561171157816020015b6116fe61334d565b8152602001906001900390816116f65790505b50905060005b6009548110156119e65760008181526008602090815260409182902082516101a0810184528154815260018201546001600160a01b031692810192909252600281018054929391929184019161176c90613b02565b80601f016020809104026020016040519081016040528092919081815260200182805461179890613b02565b80156117e55780601f106117ba576101008083540402835291602001916117e5565b820191906000526020600020905b8154815290600101906020018083116117c857829003601f168201915b505050505081526020016003820180546117fe90613b02565b80601f016020809104026020016040519081016040528092919081815260200182805461182a90613b02565b80156118775780601f1061184c57610100808354040283529160200191611877565b820191906000526020600020905b81548152906001019060200180831161185a57829003601f168201915b50505050508152602001600482015481526020016005820154815260200160068201548152602001600782015481526020016008820180546118b890613b02565b80601f01602080910402602001604051908101604052809291908181526020018280546118e490613b02565b80156119315780601f1061190657610100808354040283529160200191611931565b820191906000526020600020905b81548152906001019060200180831161191457829003601f168201915b5050509183525050600982015460209091019060ff166005811115611958576119586134df565b6005811115611969576119696134df565b81526020016009820160019054906101000a900460ff166002811115611991576119916134df565b60028111156119a2576119a26134df565b8152600a8201546020820152600b9091015460ff16151560409091015282518390839081106119d3576119d3613b65565b6020908102919091010152600101611717565b50919050565b60008281526007602090815260408083206001600160a01b03851684528252808320815160808101835290546001600160801b0381168252600160801b81046001600160401b031693820193909352600160c01b830460ff161515918101829052600160c81b90920461ffff16606083015282918291611a7e576040516285968560e71b815260040160405180910390fd5b805160208201516060909201516001600160801b03909116976001600160401b039092169650945092505050565b611ab7848484610ff7565b6110813385858585612ee7565b60606000805b600954811015611b39576001600082815260086020526040902060090154610100900460ff166002811115611b0157611b016134df565b148015611b1e575060008181526008602052604090206005015442105b15611b315781611b2d81613b4c565b9250505b600101611aca565b506000816001600160401b03811115611b5457611b54613753565b604051908082528060200260200182016040528015611b8d57816020015b611b7a61334d565b815260200190600190039081611b725790505b5090506000805b600954811015611ec1576001600082815260086020526040902060090154610100900460ff166002811115611bcb57611bcb6134df565b148015611be8575060008181526008602052604090206005015442105b15611eb95760008181526008602090815260409182902082516101a0810184528154815260018201546001600160a01b0316928101929092526002810180549293919291840191611c3890613b02565b80601f0160208091040260200160405190810160405280929190818152602001828054611c6490613b02565b8015611cb15780601f10611c8657610100808354040283529160200191611cb1565b820191906000526020600020905b815481529060010190602001808311611c9457829003601f168201915b50505050508152602001600382018054611cca90613b02565b80601f0160208091040260200160405190810160405280929190818152602001828054611cf690613b02565b8015611d435780601f10611d1857610100808354040283529160200191611d43565b820191906000526020600020905b815481529060010190602001808311611d2657829003601f168201915b5050505050815260200160048201548152602001600582015481526020016006820154815260200160078201548152602001600882018054611d8490613b02565b80601f0160208091040260200160405190810160405280929190818152602001828054611db090613b02565b8015611dfd5780601f10611dd257610100808354040283529160200191611dfd565b820191906000526020600020905b815481529060010190602001808311611de057829003601f168201915b5050509183525050600982015460209091019060ff166005811115611e2457611e246134df565b6005811115611e3557611e356134df565b81526020016009820160019054906101000a900460ff166002811115611e5d57611e5d6134df565b6002811115611e6e57611e6e6134df565b8152600a8201546020820152600b9091015460ff1615156040909101528351849084908110611e9f57611e9f613b65565b60200260200101819052508180611eb590613b4c565b9250505b600101611b94565b50909392505050565b6060611ed582612c8a565b506000611eed60408051602081019091526000815290565b90506000815111611f0d5760405180602001604052806000815250611699565b80611f1784613012565b604051602001611f28929190613dd4565b6040516020818303038152906040529392505050565b611f4661334d565b6009548310611f68576040516337f9b70b60e11b815260040160405180910390fd5b600083815260086020908152604080832081516101a0810183528154815260018201546001600160a01b0316938101939093526002810180549192840191611faf90613b02565b80601f0160208091040260200160405190810160405280929190818152602001828054611fdb90613b02565b80156120285780601f10611ffd57610100808354040283529160200191612028565b820191906000526020600020905b81548152906001019060200180831161200b57829003601f168201915b5050505050815260200160038201805461204190613b02565b80601f016020809104026020016040519081016040528092919081815260200182805461206d90613b02565b80156120ba5780601f1061208f576101008083540402835291602001916120ba565b820191906000526020600020905b81548152906001019060200180831161209d57829003601f168201915b50505050508152602001600482015481526020016005820154815260200160068201548152602001600782015481526020016008820180546120fb90613b02565b80601f016020809104026020016040519081016040528092919081815260200182805461212790613b02565b80156121745780601f1061214957610100808354040283529160200191612174565b820191906000526020600020905b81548152906001019060200180831161215757829003601f168201915b5050509183525050600982015460209091019060ff16600581111561219b5761219b6134df565b60058111156121ac576121ac6134df565b81526020016009820160019054906101000a900460ff1660028111156121d4576121d46134df565b60028111156121e5576121e56134df565b8152600a8201546020820152600b9091015460ff1615156040909101529050828015612228575060018161014001516002811115612225576122256134df565b14155b1561169957604051639109fdd160e01b815260040160405180910390fd5b60606000805b6009548110156122e057836005811115612268576122686134df565b60008281526008602052604090206009015460ff16600581111561228e5761228e6134df565b1480156122c557506001600082815260086020526040902060090154610100900460ff1660028111156122c3576122c36134df565b145b156122d857816122d481613b4c565b9250505b60010161224c565b506000816001600160401b038111156122fb576122fb613753565b60405190808252806020026020018201604052801561233457816020015b61232161334d565b8152602001906001900390816123195790505b5090506000805b600954811015610c4457856005811115612357576123576134df565b60008281526008602052604090206009015460ff16600581111561237d5761237d6134df565b1480156123b457506001600082815260086020526040902060090154610100900460ff1660028111156123b2576123b26134df565b145b156126855760008181526008602090815260409182902082516101a0810184528154815260018201546001600160a01b031692810192909252600281018054929391929184019161240490613b02565b80601f016020809104026020016040519081016040528092919081815260200182805461243090613b02565b801561247d5780601f106124525761010080835404028352916020019161247d565b820191906000526020600020905b81548152906001019060200180831161246057829003601f168201915b5050505050815260200160038201805461249690613b02565b80601f01602080910402602001604051908101604052809291908181526020018280546124c290613b02565b801561250f5780601f106124e45761010080835404028352916020019161250f565b820191906000526020600020905b8154815290600101906020018083116124f257829003601f168201915b505050505081526020016004820154815260200160058201548152602001600682015481526020016007820154815260200160088201805461255090613b02565b80601f016020809104026020016040519081016040528092919081815260200182805461257c90613b02565b80156125c95780601f1061259e576101008083540402835291602001916125c9565b820191906000526020600020905b8154815290600101906020018083116125ac57829003601f168201915b5050509183525050600982015460209091019060ff1660058111156125f0576125f06134df565b6005811115612601576126016134df565b81526020016009820160019054906101000a900460ff166002811115612629576126296134df565b600281111561263a5761263a6134df565b8152600a8201546020820152600b9091015460ff161515604090910152835184908490811061266b5761266b613b65565b6020026020010181905250818061268190613b4c565b9250505b60010161233b565b60008181526008602052604090206001015481906001600160a01b031633146126c957604051632552cded60e11b815260040160405180910390fd5b8160008082815260086020526040902060090154610100900460ff1660028111156126f6576126f66134df565b146127145760405163ac49f26560e01b815260040160405180910390fd5b60008381526008602052604090206009810180546002919061ff001916610100830217905550604080518581523360208201527f844c792f3d122ddfe76f9173cd5b48de3087f78395e0f62b94f9d471c991dcb291015b60405180910390a150505050565b6001600160a01b03918216600090815260056020908152604080832093909416825291909152205460ff1690565b60606000805b6009548110156127ff576001600082815260086020526040902060090154610100900460ff1660028111156127e4576127e46134df565b036127f757816127f381613b4c565b9250505b6001016127ad565b506000816001600160401b0381111561281a5761281a613753565b60405190808252806020026020018201604052801561285357816020015b61284061334d565b8152602001906001900390816128385790505b5090506000805b600954811015611ec1576001600082815260086020526040902060090154610100900460ff166002811115612891576128916134df565b03612b625760008181526008602090815260409182902082516101a0810184528154815260018201546001600160a01b03169281019290925260028101805492939192918401916128e190613b02565b80601f016020809104026020016040519081016040528092919081815260200182805461290d90613b02565b801561295a5780601f1061292f5761010080835404028352916020019161295a565b820191906000526020600020905b81548152906001019060200180831161293d57829003601f168201915b5050505050815260200160038201805461297390613b02565b80601f016020809104026020016040519081016040528092919081815260200182805461299f90613b02565b80156129ec5780601f106129c1576101008083540402835291602001916129ec565b820191906000526020600020905b8154815290600101906020018083116129cf57829003601f168201915b5050505050815260200160048201548152602001600582015481526020016006820154815260200160078201548152602001600882018054612a2d90613b02565b80601f0160208091040260200160405190810160405280929190818152602001828054612a5990613b02565b8015612aa65780601f10612a7b57610100808354040283529160200191612aa6565b820191906000526020600020905b815481529060010190602001808311612a8957829003601f168201915b5050509183525050600982015460209091019060ff166005811115612acd57612acd6134df565b6005811115612ade57612ade6134df565b81526020016009820160019054906101000a900460ff166002811115612b0657612b066134df565b6002811115612b1757612b176134df565b8152600a8201546020820152600b9091015460ff1615156040909101528351849084908110612b4857612b48613b65565b60200260200101819052508180612b5e90613b4c565b9250505b60010161285a565b60008181526008602052604090206001015481906001600160a01b03163314612ba657604051632552cded60e11b815260040160405180910390fd5b8160008082815260086020526040902060090154610100900460ff166002811115612bd357612bd36134df565b14612bf15760405163ac49f26560e01b815260040160405180910390fd5b60008381526008602052604090206009810180546001919061ff001916610100830217905550604080518581523360208201527f0a7083224233fc5630db51d4d433adf417be6f67e2f466bf1329565a341580a6910161276b565b612c54612dc9565b6001600160a01b038116612c7e57604051631e4fbdf760e01b81526000600482015260240161101d565b612c8781612df6565b50565b6000818152600260205260408120546001600160a01b03168061076157604051637e27328960e01b81526004810184905260240161101d565b61125d83838360016130a5565b6000828152600260205260408120546001600160a01b0390811690831615612cfd57612cfd8184866131ab565b6001600160a01b03811615612d3b57612d1a6000856000806130a5565b6001600160a01b038116600090815260036020526040902080546000190190555b6001600160a01b03851615612d6a576001600160a01b0385166000908152600360205260409020805460010190555b60008481526002602052604080822080546001600160a01b0319166001600160a01b0389811691821790925591518793918516917fddf252ad1be2c89b69c2b068fc378daa952ba7f163c4a11628f55a4df523b3ef91a4949350505050565b6006546001600160a01b031633146116755760405163118cdaa760e01b815233600482015260240161101d565b600680546001600160a01b038381166001600160a01b0319831681179093556040519116919082907f8be0079c531659141344cd1fd0a4f28419497f9722a3daafe3b4186f6b6457e090600090a35050565b6001600160a01b038216612e7a57604051630b61174360e31b81526001600160a01b038316600482015260240161101d565b6001600160a01b03838116600081815260056020908152604080832094871680845294825291829020805460ff191686151590811790915591519182527f17307eab39ab6107e8899845ad3d59bd9653f200f220920489ca2b5937696c31910160405180910390a3505050565b6001600160a01b0383163b1561300b57604051630a85bd0160e11b81526001600160a01b0384169063150b7a0290612f29908890889087908790600401613e03565b6020604051808303816000875af1925050508015612f64575060408051601f3d908101601f19168201909252612f6191810190613e40565b60015b612fcd573d808015612f92576040519150601f19603f3d011682016040523d82523d6000602084013e612f97565b606091505b508051600003612fc557604051633250574960e11b81526001600160a01b038516600482015260240161101d565b805181602001fd5b6001600160e01b03198116630a85bd0160e11b1461300957604051633250574960e11b81526001600160a01b038516600482015260240161101d565b505b5050505050565b6060600061301f8361320f565b60010190506000816001600160401b0381111561303e5761303e613753565b6040519080825280601f01601f191660200182016040528015613068576020820181803683370190505b5090508181016020015b600019016f181899199a1a9b1b9c1cb0b131b232b360811b600a86061a8153600a8504945084613072575b509392505050565b80806130b957506001600160a01b03821615155b1561317b5760006130c984612c8a565b90506001600160a01b038316158015906130f55750826001600160a01b0316816001600160a01b031614155b801561310857506131068184612779565b155b156131315760405163a9fbf51f60e01b81526001600160a01b038416600482015260240161101d565b81156131795783856001600160a01b0316826001600160a01b03167f8c5be1e5ebec7d5bd14f71427d1e84f3dd0314c0f7b2291e5b200ac8c7c3b92560405160405180910390a45b505b5050600090815260046020526040902080546001600160a01b0319166001600160a01b0392909216919091179055565b6131b68383836132e7565b61125d576001600160a01b0383166131e457604051637e27328960e01b81526004810182905260240161101d565b60405163177e802f60e01b81526001600160a01b03831660048201526024810182905260440161101d565b60008072184f03e93ff9f4daa797ed6e38ed64bf6a1f0160401b831061324e5772184f03e93ff9f4daa797ed6e38ed64bf6a1f0160401b830492506040015b6d04ee2d6d415b85acef8100000000831061327a576d04ee2d6d415b85acef8100000000830492506020015b662386f26fc10000831061329857662386f26fc10000830492506010015b6305f5e10083106132b0576305f5e100830492506008015b61271083106132c457612710830492506004015b606483106132d6576064830492506002015b600a83106107615760010192915050565b60006001600160a01b038316158015906133455750826001600160a01b0316846001600160a01b0316148061332157506133218484612779565b8061334557506000828152600460205260409020546001600160a01b038481169116145b949350505050565b604051806101a001604052806000815260200160006001600160a01b0316815260200160608152602001606081526020016000815260200160008152602001600081526020016000815260200160608152602001600060058111156133b4576133b46134df565b81526020016000815260006020820181905260409091015290565b6001600160e01b031981168114612c8757600080fd5b6000602082840312156133f757600080fd5b8135611699816133cf565b60005b8381101561341d578181015183820152602001613405565b50506000910152565b6000815180845261343e816020860160208601613402565b601f01601f19169290920160200192915050565b6020815260006116996020830184613426565b60006020828403121561347757600080fd5b5035919050565b80356001600160a01b038116811461349557600080fd5b919050565b600080604083850312156134ad57600080fd5b6134b68361347e565b946020939093013593505050565b6000602082840312156134d657600080fd5b6116998261347e565b634e487b7160e01b600052602160045260246000fd5b60068110613505576135056134df565b9052565b60038110613505576135056134df565b805182526000602082015161353960208501826001600160a01b03169052565b5060408201516101a060408501526135556101a0850182613426565b90506060830151848203606086015261356e8282613426565b9150506080830151608085015260a083015160a085015260c083015160c085015260e083015160e08501526101008301518482036101008601526135b28282613426565b9150506101208301516135c96101208601826134f5565b506101408301516135de610140860182613509565b5061016083015161016085015261018083015161309d61018086018215159052565b6000602082016020835280845180835260408501915060408160051b86010192506020860160005b8281101561365957603f19878603018452613644858351613519565b94506020938401939190910190600101613628565b50929695505050505050565b8d81526001600160a01b038d1660208201526101a0604082018190526000906136909083018e613426565b82810360608401526136a2818e613426565b90508b60808401528a60a08401528960c08401528860e08401528281036101008401526136cf8189613426565b9150506136e06101208301876134f5565b6136ee610140830186613509565b8361016083015261370461018083018415159052565b9e9d5050505050505050505050505050565b60008060006060848603121561372b57600080fd5b6137348461347e565b92506137426020850161347e565b929592945050506040919091013590565b634e487b7160e01b600052604160045260246000fd5b6000806001600160401b0384111561378357613783613753565b50604051601f19601f85018116603f011681018181106001600160401b03821117156137b1576137b1613753565b6040528381529050808284018510156137c957600080fd5b83836020830137600060208583010152509392505050565b600082601f8301126137f257600080fd5b61169983833560208501613769565b80356006811061349557600080fd5b600080600080600080600060e0888a03121561382b57600080fd5b8735965060208801356001600160401b0381111561384857600080fd5b6138548a828b016137e1565b96505060408801356001600160401b0381111561387057600080fd5b61387c8a828b016137e1565b955050606088013593506080880135925060a08801356001600160401b038111156138a657600080fd5b6138b28a828b016137e1565b9250506138c160c08901613801565b905092959891949750929550565b600080604083850312156138e257600080fd5b823591506138f26020840161347e565b90509250929050565b8035801515811461349557600080fd5b600080600080600080600080610100898b03121561392857600080fd5b88356001600160401b0381111561393e57600080fd5b61394a8b828c016137e1565b98505060208901356001600160401b0381111561396657600080fd5b6139728b828c016137e1565b975050604089013595506060890135945060808901356001600160401b0381111561399c57600080fd5b6139a88b828c016137e1565b9450506139b760a08a01613801565b92506139c560c08a016138fb565b91506139d360e08a016138fb565b90509295985092959890939650565b600080604083850312156139f557600080fd5b6139fe8361347e565b91506138f2602084016138fb565b60008060008060808587031215613a2257600080fd5b613a2b8561347e565b9350613a396020860161347e565b92506040850135915060608501356001600160401b03811115613a5b57600080fd5b8501601f81018713613a6c57600080fd5b613a7b87823560208401613769565b91505092959194509250565b60008060408385031215613a9a57600080fd5b823591506138f2602084016138fb565b6020815260006116996020830184613519565b600060208284031215613acf57600080fd5b61169982613801565b60008060408385031215613aeb57600080fd5b613af48361347e565b91506138f26020840161347e565b600181811c90821680613b1657607f821691505b6020821081036119e657634e487b7160e01b600052602260045260246000fd5b634e487b7160e01b600052601160045260246000fd5b600060018201613b5e57613b5e613b36565b5060010190565b634e487b7160e01b600052603260045260246000fd5b8181038181111561076157610761613b36565b8082018082111561076157610761613b36565b601f82111561125d57806000526020600020601f840160051c81016020851015613bc85750805b601f840160051c820191505b8181101561300b5760008155600101613bd4565b81516001600160401b03811115613c0157613c01613753565b613c1581613c0f8454613b02565b84613ba1565b6020601f821160018114613c495760008315613c315750848201515b600019600385901b1c1916600184901b17845561300b565b600084815260208120601f198516915b82811015613c795787850151825560209485019460019092019101613c59565b5084821015613c975786840151600019600387901b60f8161c191681555b50505050600190811b01905550565b87815260e060208201526000613cbf60e0830189613426565b8281036040840152613cd18189613426565b905086606084015285608084015282810360a0840152613cf18186613426565b91505061160460c08301846134f5565b6001600160801b03818116838216019081111561076157610761613b36565b600061ffff821661ffff8103613d3857613d38613b36565b60010192915050565b8a81526001600160a01b038a16602082015261014060408201819052600090613d6c9083018b613426565b8281036060840152613d7e818b613426565b90508860808401528760a084015282810360c0840152613d9e8188613426565b915050613dae60e08301866134f5565b613dbc610100830185613509565b8215156101208301529b9a5050505050505050505050565b60008351613de6818460208801613402565b835190830190613dfa818360208801613402565b01949350505050565b6001600160a01b0385811682528416602082015260408101839052608060608201819052600090613e3690830184613426565b9695505050505050565b600060208284031215613e5257600080fd5b8151611699816133cf56fea2646970667358221220082e755c240ed569937bb4943f7bce1de79ad76e7c7971125a962bf74f3df86864736f6c634300081b0033",
  "linkReferences": {},
  "deployedLinkReferences": {}
}