{
  "_format": "hh-sol-artifact-1",
  "contractName": "CrowdFunding",
  "sourceName": "contracts/CrowdFunding.sol",
  "abi": [
    {
      "inputs": [],
      "stateMutability": "nonpayable",
      "type": "constructor"
    },
    {
      "inputs": [],
      "name": "CampaignActive",
      "type": "error"
    },
    {
      "inputs": [],
      "name": "CampaignEnded",
      "type": "error"
    },
    {
      "inputs": [],
      "name": "CampaignNotFound",
      "type": "error"
    },
    {
      "inputs": [],
      "name": "CampaignNotPublished",
      "type": "error"
    },
    {
      "inputs": [],
      "name": "DeadlinePassed",
      "type": "error"
    },
    {
      "inputs": [],
      "name": "InsufficientBalance",
      "type": "error"
    },
    {
      "inputs": [],
      "name": "InvalidCategory",
      "type": "error"
    },
    {
      "inputs": [],
      "name": "InvalidDeadline",
      "type": "error"
    },
    {
      "inputs": [],
      "name": "InvalidTarget",
      "type": "error"
    },
    {
      "inputs": [],
      "name": "NoDonationsMade",
      "type": "error"
    },
    {
      "inputs": [],
      "name": "NotCampaignOwner",
      "type": "error"
    },
    {
      "inputs": [],
      "name": "NotDraftStatus",
      "type": "error"
    },
    {
      "inputs": [
        {
          "internalType": "address",
          "name": "owner",
          "type": "address"
        }
      ],
      "name": "OwnableInvalidOwner",
      "type": "error"
    },
    {
      "inputs": [
        {
          "internalType": "address",
          "name": "account",
          "type": "address"
        }
      ],
      "name": "OwnableUnauthorizedAccount",
      "type": "error"
    },
    {
      "inputs": [],
      "name": "WithdrawalFailed",
      "type": "error"
    },
    {
      "inputs": [],
      "name": "WithdrawalNotAllowed",
      "type": "error"
    },
    {
      "inputs": [],
      "name": "ZeroDonation",
      "type": "error"
    },
    {
      "anonymous": false,
      "inputs": [
        {
          "indexed": false,
          "internalType": "uint256",
          "name": "id",
          "type": "uint256"
        },
        {
          "indexed": false,
          "internalType": "address",
          "name": "owner",
          "type": "address"
        }
      ],
      "name": "CampaignCancelled",
      "type": "event"
    },
    {
      "anonymous": false,
      "inputs": [
        {
          "indexed": false,
          "internalType": "uint256",
          "name": "id",
          "type": "uint256"
        },
        {
          "indexed": false,
          "internalType": "address",
          "name": "owner",
          "type": "address"
        },
        {
          "indexed": false,
          "internalType": "string",
          "name": "title",
          "type": "string"
        },
        {
          "indexed": false,
          "internalType": "string",
          "name": "description",
          "type": "string"
        },
        {
          "indexed": false,
          "internalType": "uint256",
          "name": "target",
          "type": "uint256"
        },
        {
          "indexed": false,
          "internalType": "uint256",
          "name": "deadline",
          "type": "uint256"
        },
        {
          "indexed": false,
          "internalType": "string",
          "name": "image",
          "type": "string"
        },
        {
          "indexed": false,
          "internalType": "enum CrowdFunding.Category",
          "name": "category",
          "type": "uint8"
        },
        {
          "indexed": false,
          "internalType": "enum CrowdFunding.CampaignStatus",
          "name": "status",
          "type": "uint8"
        },
        {
          "indexed": false,
          "internalType": "bool",
          "name": "allowFlexibleWithdrawal",
          "type": "bool"
        }
      ],
      "name": "CampaignCreated",
      "type": "event"
    },
    {
      "anonymous": false,
      "inputs": [
        {
          "indexed": false,
          "internalType": "uint256",
          "name": "id",
          "type": "uint256"
        },
        {
          "indexed": false,
          "internalType": "address",
          "name": "donator",
          "type": "address"
        },
        {
          "indexed": false,
          "internalType": "uint256",
          "name": "amount",
          "type": "uint256"
        }
      ],
      "name": "CampaignDonated",
      "type": "event"
    },
    {
      "anonymous": false,
      "inputs": [
        {
          "indexed": false,
          "internalType": "uint256",
          "name": "id",
          "type": "uint256"
        },
        {
          "indexed": false,
          "internalType": "address",
          "name": "owner",
          "type": "address"
        }
      ],
      "name": "CampaignPublished",
      "type": "event"
    },
    {
      "anonymous": false,
      "inputs": [
        {
          "indexed": false,
          "internalType": "uint256",
          "name": "id",
          "type": "uint256"
        },
        {
          "indexed": false,
          "internalType": "string",
          "name": "title",
          "type": "string"
        },
        {
          "indexed": false,
          "internalType": "string",
          "name": "description",
          "type": "string"
        },
        {
          "indexed": false,
          "internalType": "uint256",
          "name": "target",
          "type": "uint256"
        },
        {
          "indexed": false,
          "internalType": "uint256",
          "name": "deadline",
          "type": "uint256"
        },
        {
          "indexed": false,
          "internalType": "string",
          "name": "image",
          "type": "string"
        },
        {
          "indexed": false,
          "internalType": "enum CrowdFunding.Category",
          "name": "category",
          "type": "uint8"
        }
      ],
      "name": "CampaignUpdated",
      "type": "event"
    },
    {
      "anonymous": false,
      "inputs": [
        {
          "indexed": false,
          "internalType": "uint256",
          "name": "id",
          "type": "uint256"
        },
        {
          "indexed": false,
          "internalType": "address",
          "name": "owner",
          "type": "address"
        },
        {
          "indexed": false,
          "internalType": "uint256",
          "name": "amount",
          "type": "uint256"
        }
      ],
      "name": "FundsWithdrawn",
      "type": "event"
    },
    {
      "anonymous": false,
      "inputs": [
        {
          "indexed": true,
          "internalType": "address",
          "name": "previousOwner",
          "type": "address"
        },
        {
          "indexed": true,
          "internalType": "address",
          "name": "newOwner",
          "type": "address"
        }
      ],
      "name": "OwnershipTransferred",
      "type": "event"
    },
    {
      "inputs": [],
      "name": "campaignCount",
      "outputs": [
        {
          "internalType": "uint256",
          "name": "",
          "type": "uint256"
        }
      ],
      "stateMutability": "view",
      "type": "function"
    },
    {
      "inputs": [
        {
          "internalType": "uint256",
          "name": "",
          "type": "uint256"
        },
        {
          "internalType": "address",
          "name": "",
          "type": "address"
        }
      ],
      "name": "campaignDonors",
      "outputs": [
        {
          "internalType": "uint128",
          "name": "amount",
          "type": "uint128"
        },
        {
          "internalType": "uint64",
          "name": "timestamp",
          "type": "uint64"
        },
        {
          "internalType": "bool",
          "name": "hasDonated",
          "type": "bool"
        },
        {
          "internalType": "uint16",
          "name": "noOfDonations",
          "type": "uint16"
        }
      ],
      "stateMutability": "view",
      "type": "function"
    },
    {
      "inputs": [
        {
          "internalType": "uint256",
          "name": "",
          "type": "uint256"
        }
      ],
      "name": "campaigns",
      "outputs": [
        {
          "internalType": "uint256",
          "name": "id",
          "type": "uint256"
        },
        {
          "internalType": "address",
          "name": "owner",
          "type": "address"
        },
        {
          "internalType": "string",
          "name": "title",
          "type": "string"
        },
        {
          "internalType": "string",
          "name": "description",
          "type": "string"
        },
        {
          "internalType": "uint256",
          "name": "target",
          "type": "uint256"
        },
        {
          "internalType": "uint256",
          "name": "deadline",
          "type": "uint256"
        },
        {
          "internalType": "uint256",
          "name": "amountCollected",
          "type": "uint256"
        },
        {
          "internalType": "uint256",
          "name": "withdrawnAmount",
          "type": "uint256"
        },
        {
          "internalType": "string",
          "name": "image",
          "type": "string"
        },
        {
          "internalType": "enum CrowdFunding.Category",
          "name": "category",
          "type": "uint8"
        },
        {
          "internalType": "enum CrowdFunding.CampaignStatus",
          "name": "status",
          "type": "uint8"
        },
        {
          "internalType": "uint256",
          "name": "donorCount",
          "type": "uint256"
        },
        {
          "internalType": "bool",
          "name": "allowFlexibleWithdrawal",
          "type": "bool"
        }
      ],
      "stateMutability": "view",
      "type": "function"
    },
    {
      "inputs": [
        {
          "internalType": "uint256",
          "name": "_id",
          "type": "uint256"
        }
      ],
      "name": "cancelDraftCampaign",
      "outputs": [],
      "stateMutability": "nonpayable",
      "type": "function"
    },
    {
      "inputs": [
        {
          "internalType": "string",
          "name": "_title",
          "type": "string"
        },
        {
          "internalType": "string",
          "name": "_description",
          "type": "string"
        },
        {
          "internalType": "uint256",
          "name": "_target",
          "type": "uint256"
        },
        {
          "internalType": "uint256",
          "name": "_deadline",
          "type": "uint256"
        },
        {
          "internalType": "string",
          "name": "_image",
          "type": "string"
        },
        {
          "internalType": "enum CrowdFunding.Category",
          "name": "_category",
          "type": "uint8"
        },
        {
          "internalType": "bool",
          "name": "_publishImmediately",
          "type": "bool"
        },
        {
          "internalType": "bool",
          "name": "_allowFlexibleWithdrawal",
          "type": "bool"
        }
      ],
      "name": "createCampaign",
      "outputs": [
        {
          "internalType": "uint256",
          "name": "",
          "type": "uint256"
        }
      ],
      "stateMutability": "nonpayable",
      "type": "function"
    },
    {
      "inputs": [
        {
          "internalType": "uint256",
          "name": "_id",
          "type": "uint256"
        }
      ],
      "name": "donateToCampaign",
      "outputs": [],
      "stateMutability": "payable",
      "type": "function"
    },
    {
      "inputs": [],
      "name": "getActiveCampaigns",
      "outputs": [
        {
          "components": [
            {
              "internalType": "uint256",
              "name": "id",
              "type": "uint256"
            },
            {
              "internalType": "address",
              "name": "owner",
              "type": "address"
            },
            {
              "internalType": "string",
              "name": "title",
              "type": "string"
            },
            {
              "internalType": "string",
              "name": "description",
              "type": "string"
            },
            {
              "internalType": "uint256",
              "name": "target",
              "type": "uint256"
            },
            {
              "internalType": "uint256",
              "name": "deadline",
              "type": "uint256"
            },
            {
              "internalType": "uint256",
              "name": "amountCollected",
              "type": "uint256"
            },
            {
              "internalType": "uint256",
              "name": "withdrawnAmount",
              "type": "uint256"
            },
            {
              "internalType": "string",
              "name": "image",
              "type": "string"
            },
            {
              "internalType": "enum CrowdFunding.Category",
              "name": "category",
              "type": "uint8"
            },
            {
              "internalType": "enum CrowdFunding.CampaignStatus",
              "name": "status",
              "type": "uint8"
            },
            {
              "internalType": "uint256",
              "name": "donorCount",
              "type": "uint256"
            },
            {
              "internalType": "bool",
              "name": "allowFlexibleWithdrawal",
              "type": "bool"
            }
          ],
          "internalType": "struct CrowdFunding.Campaign[]",
          "name": "",
          "type": "tuple[]"
        }
      ],
      "stateMutability": "view",
      "type": "function"
    },
    {
      "inputs": [
        {
          "internalType": "uint256",
          "name": "_id",
          "type": "uint256"
        }
      ],
      "name": "getCampaign",
      "outputs": [
        {
          "components": [
            {
              "internalType": "uint256",
              "name": "id",
              "type": "uint256"
            },
            {
              "internalType": "address",
              "name": "owner",
              "type": "address"
            },
            {
              "internalType": "string",
              "name": "title",
              "type": "string"
            },
            {
              "internalType": "string",
              "name": "description",
              "type": "string"
            },
            {
              "internalType": "uint256",
              "name": "target",
              "type": "uint256"
            },
            {
              "internalType": "uint256",
              "name": "deadline",
              "type": "uint256"
            },
            {
              "internalType": "uint256",
              "name": "amountCollected",
              "type": "uint256"
            },
            {
              "internalType": "uint256",
              "name": "withdrawnAmount",
              "type": "uint256"
            },
            {
              "internalType": "string",
              "name": "image",
              "type": "string"
            },
            {
              "internalType": "enum CrowdFunding.Category",
              "name": "category",
              "type": "uint8"
            },
            {
              "internalType": "enum CrowdFunding.CampaignStatus",
              "name": "status",
              "type": "uint8"
            },
            {
              "internalType": "uint256",
              "name": "donorCount",
              "type": "uint256"
            },
            {
              "internalType": "bool",
              "name": "allowFlexibleWithdrawal",
              "type": "bool"
            }
          ],
          "internalType": "struct CrowdFunding.Campaign",
          "name": "",
          "type": "tuple"
        }
      ],
      "stateMutability": "view",
      "type": "function"
    },
    {
      "inputs": [],
      "name": "getCampaigns",
      "outputs": [
        {
          "components": [
            {
              "internalType": "uint256",
              "name": "id",
              "type": "uint256"
            },
            {
              "internalType": "address",
              "name": "owner",
              "type": "address"
            },
            {
              "internalType": "string",
              "name": "title",
              "type": "string"
            },
            {
              "internalType": "string",
              "name": "description",
              "type": "string"
            },
            {
              "internalType": "uint256",
              "name": "target",
              "type": "uint256"
            },
            {
              "internalType": "uint256",
              "name": "deadline",
              "type": "uint256"
            },
            {
              "internalType": "uint256",
              "name": "amountCollected",
              "type": "uint256"
            },
            {
              "internalType": "uint256",
              "name": "withdrawnAmount",
              "type": "uint256"
            },
            {
              "internalType": "string",
              "name": "image",
              "type": "string"
            },
            {
              "internalType": "enum CrowdFunding.Category",
              "name": "category",
              "type": "uint8"
            },
            {
              "internalType": "enum CrowdFunding.CampaignStatus",
              "name": "status",
              "type": "uint8"
            },
            {
              "internalType": "uint256",
              "name": "donorCount",
              "type": "uint256"
            },
            {
              "internalType": "bool",
              "name": "allowFlexibleWithdrawal",
              "type": "bool"
            }
          ],
          "internalType": "struct CrowdFunding.Campaign[]",
          "name": "",
          "type": "tuple[]"
        }
      ],
      "stateMutability": "view",
      "type": "function"
    },
    {
      "inputs": [
        {
          "internalType": "enum CrowdFunding.Category",
          "name": "_category",
          "type": "uint8"
        }
      ],
      "name": "getCampaignsByCategory",
      "outputs": [
        {
          "components": [
            {
              "internalType": "uint256",
              "name": "id",
              "type": "uint256"
            },
            {
              "internalType": "address",
              "name": "owner",
              "type": "address"
            },
            {
              "internalType": "string",
              "name": "title",
              "type": "string"
            },
            {
              "internalType": "string",
              "name": "description",
              "type": "string"
            },
            {
              "internalType": "uint256",
              "name": "target",
              "type": "uint256"
            },
            {
              "internalType": "uint256",
              "name": "deadline",
              "type": "uint256"
            },
            {
              "internalType": "uint256",
              "name": "amountCollected",
              "type": "uint256"
            },
            {
              "internalType": "uint256",
              "name": "withdrawnAmount",
              "type": "uint256"
            },
            {
              "internalType": "string",
              "name": "image",
              "type": "string"
            },
            {
              "internalType": "enum CrowdFunding.Category",
              "name": "category",
              "type": "uint8"
            },
            {
              "internalType": "enum CrowdFunding.CampaignStatus",
              "name": "status",
              "type": "uint8"
            },
            {
              "internalType": "uint256",
              "name": "donorCount",
              "type": "uint256"
            },
            {
              "internalType": "bool",
              "name": "allowFlexibleWithdrawal",
              "type": "bool"
            }
          ],
          "internalType": "struct CrowdFunding.Campaign[]",
          "name": "",
          "type": "tuple[]"
        }
      ],
      "stateMutability": "view",
      "type": "function"
    },
    {
      "inputs": [
        {
          "internalType": "uint256",
          "name": "_id",
          "type": "uint256"
        }
      ],
      "name": "getDonorCount",
      "outputs": [
        {
          "internalType": "uint256",
          "name": "",
          "type": "uint256"
        }
      ],
      "stateMutability": "view",
      "type": "function"
    },
    {
      "inputs": [
        {
          "internalType": "uint256",
          "name": "_id",
          "type": "uint256"
        },
        {
          "internalType": "address",
          "name": "_donor",
          "type": "address"
        }
      ],
      "name": "getDonorInfo",
      "outputs": [
        {
          "internalType": "uint256",
          "name": "amount",
          "type": "uint256"
        },
        {
          "internalType": "uint256",
          "name": "timestamp",
          "type": "uint256"
        },
        {
          "internalType": "uint16",
          "name": "noOfDonations",
          "type": "uint16"
        }
      ],
      "stateMutability": "view",
      "type": "function"
    },
    {
      "inputs": [],
      "name": "getPublishedCampaigns",
      "outputs": [
        {
          "components": [
            {
              "internalType": "uint256",
              "name": "id",
              "type": "uint256"
            },
            {
              "internalType": "address",
              "name": "owner",
              "type": "address"
            },
            {
              "internalType": "string",
              "name": "title",
              "type": "string"
            },
            {
              "internalType": "string",
              "name": "description",
              "type": "string"
            },
            {
              "internalType": "uint256",
              "name": "target",
              "type": "uint256"
            },
            {
              "internalType": "uint256",
              "name": "deadline",
              "type": "uint256"
            },
            {
              "internalType": "uint256",
              "name": "amountCollected",
              "type": "uint256"
            },
            {
              "internalType": "uint256",
              "name": "withdrawnAmount",
              "type": "uint256"
            },
            {
              "internalType": "string",
              "name": "image",
              "type": "string"
            },
            {
              "internalType": "enum CrowdFunding.Category",
              "name": "category",
              "type": "uint8"
            },
            {
              "internalType": "enum CrowdFunding.CampaignStatus",
              "name": "status",
              "type": "uint8"
            },
            {
              "internalType": "uint256",
              "name": "donorCount",
              "type": "uint256"
            },
            {
              "internalType": "bool",
              "name": "allowFlexibleWithdrawal",
              "type": "bool"
            }
          ],
          "internalType": "struct CrowdFunding.Campaign[]",
          "name": "",
          "type": "tuple[]"
        }
      ],
      "stateMutability": "view",
      "type": "function"
    },
    {
      "inputs": [
        {
          "internalType": "uint256",
          "name": "_id",
          "type": "uint256"
        }
      ],
      "name": "getRemainingBalance",
      "outputs": [
        {
          "internalType": "uint256",
          "name": "",
          "type": "uint256"
        }
      ],
      "stateMutability": "view",
      "type": "function"
    },
    {
      "inputs": [
        {
          "internalType": "address",
          "name": "_owner",
          "type": "address"
        }
      ],
      "name": "getUserDraftCampaigns",
      "outputs": [
        {
          "components": [
            {
              "internalType": "uint256",
              "name": "id",
              "type": "uint256"
            },
            {
              "internalType": "address",
              "name": "owner",
              "type": "address"
            },
            {
              "internalType": "string",
              "name": "title",
              "type": "string"
            },
            {
              "internalType": "string",
              "name": "description",
              "type": "string"
            },
            {
              "internalType": "uint256",
              "name": "target",
              "type": "uint256"
            },
            {
              "internalType": "uint256",
              "name": "deadline",
              "type": "uint256"
            },
            {
              "internalType": "uint256",
              "name": "amountCollected",
              "type": "uint256"
            },
            {
              "internalType": "uint256",
              "name": "withdrawnAmount",
              "type": "uint256"
            },
            {
              "internalType": "string",
              "name": "image",
              "type": "string"
            },
            {
              "internalType": "enum CrowdFunding.Category",
              "name": "category",
              "type": "uint8"
            },
            {
              "internalType": "enum CrowdFunding.CampaignStatus",
              "name": "status",
              "type": "uint8"
            },
            {
              "internalType": "uint256",
              "name": "donorCount",
              "type": "uint256"
            },
            {
              "internalType": "bool",
              "name": "allowFlexibleWithdrawal",
              "type": "bool"
            }
          ],
          "internalType": "struct CrowdFunding.Campaign[]",
          "name": "",
          "type": "tuple[]"
        }
      ],
      "stateMutability": "view",
      "type": "function"
    },
    {
      "inputs": [],
      "name": "owner",
      "outputs": [
        {
          "internalType": "address",
          "name": "",
          "type": "address"
        }
      ],
      "stateMutability": "view",
      "type": "function"
    },
    {
      "inputs": [
        {
          "internalType": "uint256",
          "name": "_id",
          "type": "uint256"
        }
      ],
      "name": "publishCampaign",
      "outputs": [],
      "stateMutability": "nonpayable",
      "type": "function"
    },
    {
      "inputs": [],
      "name": "renounceOwnership",
      "outputs": [],
      "stateMutability": "nonpayable",
      "type": "function"
    },
    {
      "inputs": [
        {
          "internalType": "address",
          "name": "newOwner",
          "type": "address"
        }
      ],
      "name": "transferOwnership",
      "outputs": [],
      "stateMutability": "nonpayable",
      "type": "function"
    },
    {
      "inputs": [
        {
          "internalType": "uint256",
          "name": "_id",
          "type": "uint256"
        },
        {
          "internalType": "string",
          "name": "_title",
          "type": "string"
        },
        {
          "internalType": "string",
          "name": "_description",
          "type": "string"
        },
        {
          "internalType": "uint256",
          "name": "_target",
          "type": "uint256"
        },
        {
          "internalType": "uint256",
          "name": "_deadline",
          "type": "uint256"
        },
        {
          "internalType": "string",
          "name": "_image",
          "type": "string"
        },
        {
          "internalType": "enum CrowdFunding.Category",
          "name": "_category",
          "type": "uint8"
        }
      ],
      "name": "updateDraftCampaign",
      "outputs": [],
      "stateMutability": "nonpayable",
      "type": "function"
    },
    {
      "inputs": [
        {
          "internalType": "uint256",
          "name": "_id",
          "type": "uint256"
        }
      ],
      "name": "withdrawCampaignFunds",
      "outputs": [],
      "stateMutability": "nonpayable",
      "type": "function"
    }
  ],
  "bytecode": "0x60808060405234607a57331560645760008054336001600160a01b0319821681178355916001600160a01b03909116907f8be0079c531659141344cd1fd0a4f28419497f9722a3daafe3b4186f6b6457e09080a3600060035561233490816100808239f35b631e4fbdf760e01b600052600060045260246000fd5b600080fdfe6080604052600436101561001257600080fd5b60003560e01c80630cfc1e7314611c5957806314169e2a14611b07578063141961bc146119ec578063293543db146114f657806342a4fda81461134f5780634fa4479a146112d25780635598f8cc146111ab5780635750577214610c345780635943c70514610c05578063715018a614610bac5780637274e30d14610b8e57806378e94dd214610b505780638da5cb5b14610b27578063a6b03633146109f9578063b222f8aa14610906578063c362b1561461071a578063d93df3a1146104ef578063e2205ecf1461043d578063ec1c36ea1461027c578063f0a603bc146101915763f2fde38b1461010357600080fd5b3461018c57602036600319011261018c5761011c611e74565b6101246122d5565b6001600160a01b0316801561017657600080546001600160a01b03198116831782556001600160a01b0316907f8be0079c531659141344cd1fd0a4f28419497f9722a3daafe3b4186f6b6457e09080a3005b631e4fbdf760e01b600052600060045260246000fd5b600080fd5b3461018c57602036600319011261018c576004356000818152600260205260409020600101546001600160a01b0316330361026b5780600052600260205260ff60096040600020015460081c1660038110156102555761024457600081815260026020908152604091829020600901805461ff001916610100179055815192835233908301527f0a7083224233fc5630db51d4d433adf417be6f67e2f466bf1329565a341580a69190819081015b0390a1005b63ac49f26560e01b60005260046000fd5b634e487b7160e01b600052602160045260246000fd5b632552cded60e11b60005260046000fd5b3461018c57600036600319011261018c576003546000805b8281106103f857506102a590612229565b906000805b8281106102c357604051806102bf8682611fc4565b0390f35b80600052600260205260ff60096040600020015460081c166003811015610255576001146102f4575b6001016102aa565b90816000526002602052604060002090604051906103118261205e565b8254825260018301546001600160a01b031660208301526103346002840161209b565b60408301526103456003840161209b565b606083015260048301546080830152600583015460a0830152600683015460c0830152600783015460e083015261037e6008840161209b565b610100830152600983015460ff81169060068210156102555760ff9161012085015260081c169160038310156102555760ff600b6001956103f095610140850152600a81015461016085015201541615156101808201526103df8288612279565b526103ea8187612279565b506121a1565b9190506102ec565b80600052600260205260ff60096040600020015460081c16600381101561025557600114610429575b600101610294565b906104356001916121a1565b919050610421565b3461018c57602036600319011261018c576004356000818152600260205260409020600101546001600160a01b0316330361026b5780600052600260205260ff60096040600020015460081c1660038110156102555761024457600081815260026020908152604091829020600901805461ff001916610200179055815192835233908301527f844c792f3d122ddfe76f9173cd5b48de3087f78395e0f62b94f9d471c991dcb291908190810161023f565b3461018c57602036600319011261018c5760043560068110158061018c57600354906000805b8381106106a3575061052690612229565b9260009160005b84811061054257604051806102bf8882611fc4565b8060005260026020528160ff600960406000200154169061025557600681101561025557831480610679575b61057b575b60010161052d565b92836000526002602052604060002090604051906105988261205e565b8254825260018301546001600160a01b031660208301526105bb6002840161209b565b60408301526105cc6003840161209b565b606083015260048301546080830152600583015460a0830152600683015460c0830152600783015460e08301526106056008840161209b565b610100830152600983015460ff81169060068210156102555760ff9161012085015260081c169160038310156102555760ff600b60019561067195610140850152600a8101546101608501520154161515610180820152610666828a612279565b526103ea8189612279565b939050610573565b5080600052600260205260ff60096040600020015460081c1660038110156102555760011461056e565b8060005260026020528260ff6009604060002001541690610255576006811015610255578514806106f0575b6106dc575b600101610515565b906106e86001916121a1565b9190506106d4565b5080600052600260205260ff60096040600020015460081c166003811015610255576001146106cf565b3461018c57600036600319011261018c576003546000805b8281106108a1575061074390612229565b906000805b82811061075d57604051806102bf8682611fc4565b80600052600260205260ff60096040600020015460081c1660038110156102555760011480610887575b610794575b600101610748565b90816000526002602052604060002090604051906107b18261205e565b8254825260018301546001600160a01b031660208301526107d46002840161209b565b60408301526107e56003840161209b565b606083015260048301546080830152600583015460a0830152600683015460c0830152600783015460e083015261081e6008840161209b565b610100830152600983015460ff81169060068210156102555760ff9161012085015260081c169160038310156102555760ff600b60019561087f95610140850152600a81015461016085015201541615156101808201526103df8288612279565b91905061078c565b508060005260026020526005604060002001544210610787565b80600052600260205260ff60096040600020015460081c16600381101561025557600114806108ec575b6108d8575b600101610732565b906108e46001916121a1565b9190506108d0565b5080600052600260205260056040600020015442106108cb565b3461018c57604036600319011261018c5761091f611e8a565b600435600052600160205260406000209060018060a01b0316600052602052604060002060405190608082018281106001600160401b038211176109e357604052546001600160801b038116825260208201906001600160401b038160801c16825260ff8160c01c16158015604085015261ffff606085019260c81c1682526109d35761ffff6001600160401b036001600160801b0360609551169351169151169060405192835260208301526040820152f35b6285968560e71b60005260046000fd5b634e487b7160e01b600052604160045260246000fd5b3461018c57600036600319011261018c57600354610a1681612229565b9060005b818110610a2f57604051806102bf8582611fc4565b806000526002602052604060002090604051610a4a8161205e565b8254815260018301546001600160a01b03166020820152610a6d6002840161209b565b6040820152610a7e6003840161209b565b606082015260048301546080820152600583015460a0820152600683015460c0820152600783015460e0820152610ab76008840161209b565b610100820152600983015460ff81169060068210156102555760ff9161012084015260081c1692600384101561025557600b60ff91600195610140850152600a8101546101608501520154161515610180820152610b158286612279565b52610b208185612279565b5001610a1a565b3461018c57600036600319011261018c576000546040516001600160a01b039091168152602090f35b3461018c57602036600319011261018c5760043560005260026020526020610b86604060002060076006820154910154906122a3565b604051908152f35b3461018c57600036600319011261018c576020600354604051908152f35b3461018c57600036600319011261018c57610bc56122d5565b600080546001600160a01b0319811682556001600160a01b03167f8be0079c531659141344cd1fd0a4f28419497f9722a3daafe3b4186f6b6457e08280a3005b3461018c57602036600319011261018c5760043560005260026020526020600a60406000200154604051908152f35b3461018c5761010036600319011261018c576004356001600160401b03811161018c57610c6590369060040161215a565b6024356001600160401b03811161018c57610c8490369060040161215a565b9060443591606435916084356001600160401b03811161018c57610cac90369060040161215a565b9360a43594600686101561018c5760c43594851515860361018c5760e4359485151580960361018c57831561119a574282111561118957600096600560ff8a161161117a57600354978881526002602052604081209089825560018201336bffffffffffffffffffffffff60a01b8254161790556002820188516001600160401b03811161100257610d3e8254612024565b601f8111611135575b50806020601f82116001146110d25784916110c7575b508160011b916000199060031b1c19161790555b6003820184516001600160401b03811161100257610d8f8254612024565b601f8111611082575b50806020601f8211600114611021578491611016575b508160011b916000199060031b1c19161790555b8660048301558460058301558060068301558060078301556008820186516001600160401b03811161100257610df88254612024565b601f8111610fbd575b50806020601f8211600114610f5a578491610f4f575b508160011b916000199060031b1c19161790555b6009820192610e3a8c856122bd565b15610f495760015b6003811015610f35579660209b967f09375c8fc084ab8b671524155b2ae86852a734633be8f5264e41eac4c2e53ece9a96610ef6610f2497610ee88f9c896101409f9a610f199a610f0e9a60ff9461ff00600b94549160081b169061ff001916178455600a820155018d8380198354169116179055610ec26003546121a1565b6003555460081c16986040519e8f9e8f9081523360208201528160408201520190611ea0565b8c810360608e015290611ea0565b9260808b015260a08a015288820360c08a0152611ea0565b9460e0870190611ee1565b610100850190611eee565b6101208301520390a1604051908152f35b634e487b7160e01b82526021600452602482fd5b80610e42565b90508801518e610e17565b8385528085209150601f198316855b8b828210610fa55750509083600194939210610f8c575b5050811b019055610e2b565b8a015160001960f88460031b161c191690558e80610f80565b60018495602093958493015181550194019201610f69565b82845260208420601f830160051c81019160208410610ff8575b601f0160051c01905b818110610fed5750610e01565b848155600101610fe0565b9091508190610fd7565b634e487b7160e01b83526041600452602483fd5b90508601518e610dae565b8385528085209150601f198316855b81811061106a57509083600194939210611051575b5050811b019055610dc2565b88015160001960f88460031b161c191690558e80611045565b9192602060018192868d015181550194019201611030565b82845260208420601f830160051c810191602084106110bd575b601f0160051c01905b8181106110b25750610d98565b8481556001016110a5565b909150819061109c565b90508a01518e610d5d565b8385528085209150601f198316855b8d82821061111d5750509083600194939210611104575b5050811b019055610d71565b8c015160001960f88460031b161c191690558e806110f8565b600184956020939584930151815501940192016110e1565b82845260208420601f830160051c81019160208410611170575b601f0160051c01905b8181106111655750610d47565b848155600101611158565b909150819061114f565b636b3ac97b60e11b8852600488fd5b631da7447960e21b60005260046000fd5b63416aebb560e11b60005260046000fd5b3461018c57602036600319011261018c576004356111c76121c7565b506003548110156112c157600052600260205260406000206040516111eb8161205e565b8154815260018201546001600160a01b0316602082015261120e6002830161209b565b604082015261121f6003830161209b565b606082015260048201546080820152600582015460a0820152600682015460c0820152600782015460e08201526112586008830161209b565b610100820152600982015460ff81169060068210156102555760ff9161012084015260081c1691600383101561025557600b60ff916102bf94610140850152600a8101546101608501520154161515610180820152604051918291602083526020830190611efb565b6337f9b70b60e11b60005260046000fd5b3461018c57604036600319011261018c576112eb611e8a565b600435600052600160205260406000209060018060a01b0316600052602052608060406000205461ffff604051916001600160801b03811683526001600160401b0381851c16602084015260ff8160c01c161515604084015260c81c166060820152f35b602036600319011261018c57600435806000526002602052604060002034156114e55760ff600982015460081c166003811015610255576001036114d45760058101544210156114c35760008281526001602090815260408083203384529091529020805490929060c01c60ff16156114ae575b82546001600160801b0334166001600160801b03821601906001600160801b038211611498576001600160801b03600160c01b92169066ffffffffffffff60c81b16176001600160401b0360801b4260801b1617179161ffff8360c81c169061ffff8214611498577fab9c35171e39c1e9e36544edfe4e6f20d5ebcb0daefd9c2ea9a533e991fd60879461023f94600693600161ffff60c81b910160c81b169061ffff60c81b19161790550161147a3482546122b0565b90556040805191825233602083015234908201529081906060820190565b634e487b7160e01b600052601160045260246000fd5b600a82016114bc81546121a1565b90556113c3565b63154eb81560e21b60005260046000fd5b639109fdd160e01b60005260046000fd5b636370392160e11b60005260046000fd5b3461018c5760e036600319011261018c576004356024356001600160401b03811161018c5761152990369060040161215a565b6044356001600160401b03811161018c5761154890369060040161215a565b906064359260843560a4356001600160401b03811161018c5761156f90369060040161215a565b9460c43591600683101561018c576000848152600260205260409020600101546001600160a01b0316330361026b5783600052600260205260ff60096040600020015460081c1660038110156102555761024457811561119a574281111561118957600095600560ff8516116119dd578487526002602052604087206002810187516001600160401b038111611865576116098254612024565b601f8111611998575b50806020601f8211600114611935578b9161192a575b508160011b916000199060031b1c19161790555b6003810182516001600160401b0381116118655761165a8254612024565b601f81116118e5575b50806020601f8211600114611884578b91611879575b508160011b916000199060031b1c19161790555b8360048201558260058201556008810189516001600160401b038111611865576116b78254612024565b601f8111611820575b506020601f8211600114611788579361172a8860098d9e9661176c99967f730eed3777e8c78ef5f6bbc1eb91b4cfdd522072e57afe212003300ac61594059f96806117779d9b611754999161177d575b508160011b916000199060031b1c19161790555b016122bd565b6117466040519a8b9a8b5260e060208c015260e08b0190611ea0565b9089820360408b0152611ea0565b926060880152608087015285820360a0870152611ea0565b9160c0840190611ee1565b0390a180f35b90508a015138611710565b828b52808b2090601f1983168c5b818110611808575060097f730eed3777e8c78ef5f6bbc1eb91b4cfdd522072e57afe212003300ac61594059d9e9661176c99966001876117779d9b978f96976117549a61172a99106117ef575b5050811b019055611724565b8c015160001960f88460031b161c1916905538806117e3565b8e830151845560019093019260209283019201611796565b828b5260208b20601f830160051c8101916020841061185b575b601f0160051c01905b81811061185057506116c0565b8b8155600101611843565b909150819061183a565b634e487b7160e01b8a52604160045260248afd5b90508401518c611679565b838c52808c209150601f1983168c5b8181106118cd575090836001949392106118b4575b5050811b01905561168d565b86015160001960f88460031b161c191690558c806118a8565b9192602060018192868b015181550194019201611893565b828b5260208b20601f830160051c81019160208410611920575b601f0160051c01905b8181106119155750611663565b8b8155600101611908565b90915081906118ff565b90508901518c611628565b838c52808c209150601f1983168c5b8c8282106119805750509083600194939210611967575b5050811b01905561163c565b8b015160001960f88460031b161c191690558c8061195b565b60018495602093958493015181550194019201611944565b828b5260208b20601f830160051c810191602084106119d3575b601f0160051c01905b8181106119c85750611612565b8b81556001016119bb565b90915081906119b2565b636b3ac97b60e11b8752600487fd5b3461018c57602036600319011261018c57600435600052600260205260406000208054600160a01b600190036001830154169160028101611a2c9061209b565b611a386003830161209b565b916004810154600582015490600683015460078401549060088501611a5c9061209b565b93600986015497600a87015496600b015460ff16976040519b8c9b8c5260208c015260408b016101a090526101a08b01611a9591611ea0565b8a810360608c0152611aa691611ea0565b9360808a015260a089015260c088015260e0870152858103610100870152611acd91611ea0565b92611adf610120860160ff8316611ee1565b61014085019060081c60ff1690611af591611eee565b61016084015215156101808301520390f35b3461018c57602036600319011261018c576004356000818152600260205260409020600101546001600160a01b0316330361026b57806000526002602052604060002060068101546007820191611b60835480936122a3565b928315611c48578360ff600b8401541615611c24575b611b82906001946122b0565b9055019160008080808560018060a01b038854165af13d15611c1f573d611ba88161213f565b90611bb6604051928361207a565b8152600060203d92013e5b15611c0e579154604080519384526001600160a01b0390911660208401528201527ff440aec6b52895984d061d622e6edeba6210f7c3e059be920663140c084560d790806060810161023f565b6327fcd9d160e01b60005260046000fd5b611bc1565b506005820154421115611c375783611b76565b63b4469b3560e01b60005260046000fd5b631e9acf1760e31b60005260046000fd5b3461018c57602036600319011261018c57611c72611e74565b6003546001600160a01b03909116906000805b828110611e085750611c9690612229565b9160009060005b838110611cb257604051806102bf8782611fc4565b6000818152600260205260409020600101546001600160a01b0316821480611de0575b611ce2575b600101611c9d565b9182600052600260205260406000209060405190611cff8261205e565b8254825260018301546001600160a01b03166020830152611d226002840161209b565b6040830152611d336003840161209b565b606083015260048301546080830152600583015460a0830152600683015460c0830152600783015460e0830152611d6c6008840161209b565b610100830152600983015460ff81169060068210156102555760ff9161012085015260081c169160038310156102555760ff600b600195611dd895610140850152600a8101546101608501520154161515610180820152611dcd8289612279565b526103ea8188612279565b929050611cda565b5080600052600260205260ff60096040600020015460081c1660038110156102555715611cd5565b6000818152600260205260409020600101546001600160a01b0316841480611e4c575b611e38575b600101611c85565b90611e446001916121a1565b919050611e30565b5080600052600260205260ff60096040600020015460081c1660038110156102555715611e2b565b600435906001600160a01b038216820361018c57565b602435906001600160a01b038216820361018c57565b919082519283825260005b848110611ecc575050826000602080949584010152601f8019910116010190565b80602080928401015182828601015201611eab565b9060068210156102555752565b9060038210156102555752565b908151815260018060a01b03602083015116602082015261018080611f85611f49611f3760408701516101a060408801526101a0870190611ea0565b60608701518682036060880152611ea0565b6080860151608086015260a086015160a086015260c086015160c086015260e086015160e0860152610100860151858203610100870152611ea0565b93611f9a610120820151610120860190611ee1565b611fae610140820151610140860190611eee565b6101608101516101608501520151151591015290565b602081016020825282518091526040820191602060408360051b8301019401926000915b838310611ff757505050505090565b9091929394602080612015600193603f198682030187528951611efb565b97019301930191939290611fe8565b90600182811c92168015612054575b602083101461203e57565b634e487b7160e01b600052602260045260246000fd5b91607f1691612033565b6101a081019081106001600160401b038211176109e357604052565b90601f801991011681019081106001600160401b038211176109e357604052565b90604051918260008254926120af84612024565b808452936001811690811561211d57506001146120d6575b506120d49250038361207a565b565b90506000929192526020600020906000915b8183106121015750509060206120d492820101386120c7565b60209193508060019154838589010152019101909184926120e8565b9050602092506120d494915060ff191682840152151560051b820101386120c7565b6001600160401b0381116109e357601f01601f191660200190565b81601f8201121561018c578035906121718261213f565b9261217f604051948561207a565b8284526020838301011161018c57816000926020809301838601378301015290565b60001981146114985760010190565b6001600160401b0381116109e35760051b60200190565b604051906121d48261205e565b600061018083828152826020820152606060408201526060808201528260808201528260a08201528260c08201528260e082015260606101008201528261012082015282610140820152826101608201520152565b90612233826121b0565b612240604051918261207a565b8281528092612251601f19916121b0565b019060005b82811061226257505050565b60209061226d6121c7565b82828501015201612256565b805182101561228d5760209160051b010190565b634e487b7160e01b600052603260045260246000fd5b9190820391821161149857565b9190820180921161149857565b9060068110156102555760ff80198354169116179055565b6000546001600160a01b031633036122e957565b63118cdaa760e01b6000523360045260246000fdfea26469706673582212207be71c3323de4f7f44c3bc2c82d81a8c304a8d7d88eb2a22fea7e7f3ee8bd87b64736f6c634300081b0033",
  "linkReferences": {},
  "deployedLinkReferences": {}
}