{
  "_format": "hh-sol-artifact-1",
  "contractName": "CrowdFunding",
  "sourceName": "contracts/CrowdFunding.sol",
  "abi": [
    {
      "inputs": [],
      "stateMutability": "nonpayable",
      "type": "constructor"
    },
    {
      "inputs": [
        {
          "internalType": "address",
          "name": "sender",
          "type": "address"
        },
        {
          "internalType": "uint256",
          "name": "tokenId",
          "type": "uint256"
        },
        {
          "internalType": "address",
          "name": "owner",
          "type": "address"
        }
      ],
      "name": "ERC721IncorrectOwner",
      "type": "error"
    },
    {
      "inputs": [
        {
          "internalType": "address",
          "name": "operator",
          "type": "address"
        },
        {
          "internalType": "uint256",
          "name": "tokenId",
          "type": "uint256"
        }
      ],
      "name": "ERC721InsufficientApproval",
      "type": "error"
    },
    {
      "inputs": [
        {
          "internalType": "address",
          "name": "approver",
          "type": "address"
        }
      ],
      "name": "ERC721InvalidApprover",
      "type": "error"
    },
    {
      "inputs": [
        {
          "internalType": "address",
          "name": "operator",
          "type": "address"
        }
      ],
      "name": "ERC721InvalidOperator",
      "type": "error"
    },
    {
      "inputs": [
        {
          "internalType": "address",
          "name": "owner",
          "type": "address"
        }
      ],
      "name": "ERC721InvalidOwner",
      "type": "error"
    },
    {
      "inputs": [
        {
          "internalType": "address",
          "name": "receiver",
          "type": "address"
        }
      ],
      "name": "ERC721InvalidReceiver",
      "type": "error"
    },
    {
      "inputs": [
        {
          "internalType": "address",
          "name": "sender",
          "type": "address"
        }
      ],
      "name": "ERC721InvalidSender",
      "type": "error"
    },
    {
      "inputs": [
        {
          "internalType": "uint256",
          "name": "tokenId",
          "type": "uint256"
        }
      ],
      "name": "ERC721NonexistentToken",
      "type": "error"
    },
    {
      "inputs": [
        {
          "internalType": "address",
          "name": "owner",
          "type": "address"
        }
      ],
      "name": "OwnableInvalidOwner",
      "type": "error"
    },
    {
      "inputs": [
        {
          "internalType": "address",
          "name": "account",
          "type": "address"
        }
      ],
      "name": "OwnableUnauthorizedAccount",
      "type": "error"
    },
    {
      "anonymous": false,
      "inputs": [
        {
          "indexed": true,
          "internalType": "address",
          "name": "owner",
          "type": "address"
        },
        {
          "indexed": true,
          "internalType": "address",
          "name": "approved",
          "type": "address"
        },
        {
          "indexed": true,
          "internalType": "uint256",
          "name": "tokenId",
          "type": "uint256"
        }
      ],
      "name": "Approval",
      "type": "event"
    },
    {
      "anonymous": false,
      "inputs": [
        {
          "indexed": true,
          "internalType": "address",
          "name": "owner",
          "type": "address"
        },
        {
          "indexed": true,
          "internalType": "address",
          "name": "operator",
          "type": "address"
        },
        {
          "indexed": false,
          "internalType": "bool",
          "name": "approved",
          "type": "bool"
        }
      ],
      "name": "ApprovalForAll",
      "type": "event"
    },
    {
      "anonymous": false,
      "inputs": [
        {
          "indexed": false,
          "internalType": "uint256",
          "name": "id",
          "type": "uint256"
        },
        {
          "indexed": false,
          "internalType": "address",
          "name": "owner",
          "type": "address"
        }
      ],
      "name": "CampaignCancelled",
      "type": "event"
    },
    {
      "anonymous": false,
      "inputs": [
        {
          "indexed": false,
          "internalType": "uint256",
          "name": "id",
          "type": "uint256"
        },
        {
          "indexed": false,
          "internalType": "address",
          "name": "owner",
          "type": "address"
        },
        {
          "indexed": false,
          "internalType": "string",
          "name": "title",
          "type": "string"
        },
        {
          "indexed": false,
          "internalType": "string",
          "name": "description",
          "type": "string"
        },
        {
          "indexed": false,
          "internalType": "uint256",
          "name": "target",
          "type": "uint256"
        },
        {
          "indexed": false,
          "internalType": "uint256",
          "name": "deadline",
          "type": "uint256"
        },
        {
          "indexed": false,
          "internalType": "string",
          "name": "image",
          "type": "string"
        },
        {
          "indexed": false,
          "internalType": "enum CrowdFunding.Category",
          "name": "category",
          "type": "uint8"
        },
        {
          "indexed": false,
          "internalType": "enum CrowdFunding.CampaignStatus",
          "name": "status",
          "type": "uint8"
        }
      ],
      "name": "CampaignCreated",
      "type": "event"
    },
    {
      "anonymous": false,
      "inputs": [
        {
          "indexed": false,
          "internalType": "uint256",
          "name": "id",
          "type": "uint256"
        },
        {
          "indexed": false,
          "internalType": "address",
          "name": "donator",
          "type": "address"
        },
        {
          "indexed": false,
          "internalType": "uint256",
          "name": "amount",
          "type": "uint256"
        }
      ],
      "name": "CampaignDonated",
      "type": "event"
    },
    {
      "anonymous": false,
      "inputs": [
        {
          "indexed": false,
          "internalType": "uint256",
          "name": "id",
          "type": "uint256"
        },
        {
          "indexed": false,
          "internalType": "address",
          "name": "owner",
          "type": "address"
        }
      ],
      "name": "CampaignPublished",
      "type": "event"
    },
    {
      "anonymous": false,
      "inputs": [
        {
          "indexed": false,
          "internalType": "uint256",
          "name": "id",
          "type": "uint256"
        },
        {
          "indexed": false,
          "internalType": "string",
          "name": "title",
          "type": "string"
        },
        {
          "indexed": false,
          "internalType": "string",
          "name": "description",
          "type": "string"
        },
        {
          "indexed": false,
          "internalType": "uint256",
          "name": "target",
          "type": "uint256"
        },
        {
          "indexed": false,
          "internalType": "uint256",
          "name": "deadline",
          "type": "uint256"
        },
        {
          "indexed": false,
          "internalType": "string",
          "name": "image",
          "type": "string"
        },
        {
          "indexed": false,
          "internalType": "enum CrowdFunding.Category",
          "name": "category",
          "type": "uint8"
        }
      ],
      "name": "CampaignUpdated",
      "type": "event"
    },
    {
      "anonymous": false,
      "inputs": [
        {
          "indexed": false,
          "internalType": "uint256",
          "name": "id",
          "type": "uint256"
        },
        {
          "indexed": false,
          "internalType": "address",
          "name": "owner",
          "type": "address"
        },
        {
          "indexed": false,
          "internalType": "uint256",
          "name": "amount",
          "type": "uint256"
        }
      ],
      "name": "FundsWithdrawn",
      "type": "event"
    },
    {
      "anonymous": false,
      "inputs": [
        {
          "indexed": true,
          "internalType": "address",
          "name": "previousOwner",
          "type": "address"
        },
        {
          "indexed": true,
          "internalType": "address",
          "name": "newOwner",
          "type": "address"
        }
      ],
      "name": "OwnershipTransferred",
      "type": "event"
    },
    {
      "anonymous": false,
      "inputs": [
        {
          "indexed": true,
          "internalType": "address",
          "name": "from",
          "type": "address"
        },
        {
          "indexed": true,
          "internalType": "address",
          "name": "to",
          "type": "address"
        },
        {
          "indexed": true,
          "internalType": "uint256",
          "name": "tokenId",
          "type": "uint256"
        }
      ],
      "name": "Transfer",
      "type": "event"
    },
    {
      "inputs": [
        {
          "internalType": "uint256",
          "name": "_id",
          "type": "uint256"
        }
      ],
      "name": "amountPaidToOwner",
      "outputs": [
        {
          "internalType": "uint256",
          "name": "",
          "type": "uint256"
        }
      ],
      "stateMutability": "view",
      "type": "function"
    },
    {
      "inputs": [
        {
          "internalType": "address",
          "name": "to",
          "type": "address"
        },
        {
          "internalType": "uint256",
          "name": "tokenId",
          "type": "uint256"
        }
      ],
      "name": "approve",
      "outputs": [],
      "stateMutability": "nonpayable",
      "type": "function"
    },
    {
      "inputs": [
        {
          "internalType": "address",
          "name": "owner",
          "type": "address"
        }
      ],
      "name": "balanceOf",
      "outputs": [
        {
          "internalType": "uint256",
          "name": "",
          "type": "uint256"
        }
      ],
      "stateMutability": "view",
      "type": "function"
    },
    {
      "inputs": [],
      "name": "campaignCount",
      "outputs": [
        {
          "internalType": "uint256",
          "name": "",
          "type": "uint256"
        }
      ],
      "stateMutability": "view",
      "type": "function"
    },
    {
      "inputs": [
        {
          "internalType": "uint256",
          "name": "",
          "type": "uint256"
        }
      ],
      "name": "campaigns",
      "outputs": [
        {
          "internalType": "address",
          "name": "owner",
          "type": "address"
        },
        {
          "internalType": "string",
          "name": "title",
          "type": "string"
        },
        {
          "internalType": "string",
          "name": "description",
          "type": "string"
        },
        {
          "internalType": "uint256",
          "name": "target",
          "type": "uint256"
        },
        {
          "internalType": "uint256",
          "name": "deadline",
          "type": "uint256"
        },
        {
          "internalType": "uint256",
          "name": "amountCollected",
          "type": "uint256"
        },
        {
          "internalType": "uint256",
          "name": "currentBalance",
          "type": "uint256"
        },
        {
          "internalType": "string",
          "name": "image",
          "type": "string"
        },
        {
          "internalType": "enum CrowdFunding.Category",
          "name": "category",
          "type": "uint8"
        },
        {
          "internalType": "enum CrowdFunding.CampaignStatus",
          "name": "status",
          "type": "uint8"
        }
      ],
      "stateMutability": "view",
      "type": "function"
    },
    {
      "inputs": [
        {
          "internalType": "uint256",
          "name": "_id",
          "type": "uint256"
        }
      ],
      "name": "cancelDraftCampaign",
      "outputs": [],
      "stateMutability": "nonpayable",
      "type": "function"
    },
    {
      "inputs": [
        {
          "internalType": "string",
          "name": "_title",
          "type": "string"
        },
        {
          "internalType": "string",
          "name": "_description",
          "type": "string"
        },
        {
          "internalType": "uint256",
          "name": "_target",
          "type": "uint256"
        },
        {
          "internalType": "uint256",
          "name": "_deadline",
          "type": "uint256"
        },
        {
          "internalType": "string",
          "name": "_image",
          "type": "string"
        },
        {
          "internalType": "enum CrowdFunding.Category",
          "name": "_category",
          "type": "uint8"
        },
        {
          "internalType": "bool",
          "name": "_publishImmediately",
          "type": "bool"
        }
      ],
      "name": "createCampaign",
      "outputs": [
        {
          "internalType": "uint256",
          "name": "",
          "type": "uint256"
        }
      ],
      "stateMutability": "nonpayable",
      "type": "function"
    },
    {
      "inputs": [
        {
          "internalType": "uint256",
          "name": "_id",
          "type": "uint256"
        }
      ],
      "name": "donateToCampaign",
      "outputs": [],
      "stateMutability": "payable",
      "type": "function"
    },
    {
      "inputs": [
        {
          "internalType": "uint256",
          "name": "tokenId",
          "type": "uint256"
        }
      ],
      "name": "getApproved",
      "outputs": [
        {
          "internalType": "address",
          "name": "",
          "type": "address"
        }
      ],
      "stateMutability": "view",
      "type": "function"
    },
    {
      "inputs": [],
      "name": "getCampaigns",
      "outputs": [
        {
          "components": [
            {
              "internalType": "address",
              "name": "owner",
              "type": "address"
            },
            {
              "internalType": "string",
              "name": "title",
              "type": "string"
            },
            {
              "internalType": "string",
              "name": "description",
              "type": "string"
            },
            {
              "internalType": "uint256",
              "name": "target",
              "type": "uint256"
            },
            {
              "internalType": "uint256",
              "name": "deadline",
              "type": "uint256"
            },
            {
              "internalType": "uint256",
              "name": "amountCollected",
              "type": "uint256"
            },
            {
              "internalType": "uint256",
              "name": "currentBalance",
              "type": "uint256"
            },
            {
              "internalType": "string",
              "name": "image",
              "type": "string"
            },
            {
              "internalType": "enum CrowdFunding.Category",
              "name": "category",
              "type": "uint8"
            },
            {
              "internalType": "enum CrowdFunding.CampaignStatus",
              "name": "status",
              "type": "uint8"
            },
            {
              "internalType": "address[]",
              "name": "donators",
              "type": "address[]"
            },
            {
              "internalType": "uint256[]",
              "name": "donations",
              "type": "uint256[]"
            }
          ],
          "internalType": "struct CrowdFunding.Campaign[]",
          "name": "",
          "type": "tuple[]"
        }
      ],
      "stateMutability": "view",
      "type": "function"
    },
    {
      "inputs": [
        {
          "internalType": "uint256",
          "name": "_id",
          "type": "uint256"
        }
      ],
      "name": "getDonators",
      "outputs": [
        {
          "internalType": "address[]",
          "name": "",
          "type": "address[]"
        },
        {
          "internalType": "uint256[]",
          "name": "",
          "type": "uint256[]"
        }
      ],
      "stateMutability": "view",
      "type": "function"
    },
    {
      "inputs": [],
      "name": "getPublishedCampaigns",
      "outputs": [
        {
          "components": [
            {
              "internalType": "address",
              "name": "owner",
              "type": "address"
            },
            {
              "internalType": "string",
              "name": "title",
              "type": "string"
            },
            {
              "internalType": "string",
              "name": "description",
              "type": "string"
            },
            {
              "internalType": "uint256",
              "name": "target",
              "type": "uint256"
            },
            {
              "internalType": "uint256",
              "name": "deadline",
              "type": "uint256"
            },
            {
              "internalType": "uint256",
              "name": "amountCollected",
              "type": "uint256"
            },
            {
              "internalType": "uint256",
              "name": "currentBalance",
              "type": "uint256"
            },
            {
              "internalType": "string",
              "name": "image",
              "type": "string"
            },
            {
              "internalType": "enum CrowdFunding.Category",
              "name": "category",
              "type": "uint8"
            },
            {
              "internalType": "enum CrowdFunding.CampaignStatus",
              "name": "status",
              "type": "uint8"
            },
            {
              "internalType": "address[]",
              "name": "donators",
              "type": "address[]"
            },
            {
              "internalType": "uint256[]",
              "name": "donations",
              "type": "uint256[]"
            }
          ],
          "internalType": "struct CrowdFunding.Campaign[]",
          "name": "",
          "type": "tuple[]"
        }
      ],
      "stateMutability": "view",
      "type": "function"
    },
    {
      "inputs": [
        {
          "internalType": "address",
          "name": "_owner",
          "type": "address"
        }
      ],
      "name": "getUserDraftCampaigns",
      "outputs": [
        {
          "components": [
            {
              "internalType": "address",
              "name": "owner",
              "type": "address"
            },
            {
              "internalType": "string",
              "name": "title",
              "type": "string"
            },
            {
              "internalType": "string",
              "name": "description",
              "type": "string"
            },
            {
              "internalType": "uint256",
              "name": "target",
              "type": "uint256"
            },
            {
              "internalType": "uint256",
              "name": "deadline",
              "type": "uint256"
            },
            {
              "internalType": "uint256",
              "name": "amountCollected",
              "type": "uint256"
            },
            {
              "internalType": "uint256",
              "name": "currentBalance",
              "type": "uint256"
            },
            {
              "internalType": "string",
              "name": "image",
              "type": "string"
            },
            {
              "internalType": "enum CrowdFunding.Category",
              "name": "category",
              "type": "uint8"
            },
            {
              "internalType": "enum CrowdFunding.CampaignStatus",
              "name": "status",
              "type": "uint8"
            },
            {
              "internalType": "address[]",
              "name": "donators",
              "type": "address[]"
            },
            {
              "internalType": "uint256[]",
              "name": "donations",
              "type": "uint256[]"
            }
          ],
          "internalType": "struct CrowdFunding.Campaign[]",
          "name": "",
          "type": "tuple[]"
        }
      ],
      "stateMutability": "view",
      "type": "function"
    },
    {
      "inputs": [
        {
          "internalType": "address",
          "name": "owner",
          "type": "address"
        },
        {
          "internalType": "address",
          "name": "operator",
          "type": "address"
        }
      ],
      "name": "isApprovedForAll",
      "outputs": [
        {
          "internalType": "bool",
          "name": "",
          "type": "bool"
        }
      ],
      "stateMutability": "view",
      "type": "function"
    },
    {
      "inputs": [],
      "name": "name",
      "outputs": [
        {
          "internalType": "string",
          "name": "",
          "type": "string"
        }
      ],
      "stateMutability": "view",
      "type": "function"
    },
    {
      "inputs": [],
      "name": "owner",
      "outputs": [
        {
          "internalType": "address",
          "name": "",
          "type": "address"
        }
      ],
      "stateMutability": "view",
      "type": "function"
    },
    {
      "inputs": [
        {
          "internalType": "uint256",
          "name": "tokenId",
          "type": "uint256"
        }
      ],
      "name": "ownerOf",
      "outputs": [
        {
          "internalType": "address",
          "name": "",
          "type": "address"
        }
      ],
      "stateMutability": "view",
      "type": "function"
    },
    {
      "inputs": [
        {
          "internalType": "uint256",
          "name": "_id",
          "type": "uint256"
        }
      ],
      "name": "publishCampaign",
      "outputs": [],
      "stateMutability": "nonpayable",
      "type": "function"
    },
    {
      "inputs": [],
      "name": "renounceOwnership",
      "outputs": [],
      "stateMutability": "nonpayable",
      "type": "function"
    },
    {
      "inputs": [
        {
          "internalType": "address",
          "name": "from",
          "type": "address"
        },
        {
          "internalType": "address",
          "name": "to",
          "type": "address"
        },
        {
          "internalType": "uint256",
          "name": "tokenId",
          "type": "uint256"
        }
      ],
      "name": "safeTransferFrom",
      "outputs": [],
      "stateMutability": "nonpayable",
      "type": "function"
    },
    {
      "inputs": [
        {
          "internalType": "address",
          "name": "from",
          "type": "address"
        },
        {
          "internalType": "address",
          "name": "to",
          "type": "address"
        },
        {
          "internalType": "uint256",
          "name": "tokenId",
          "type": "uint256"
        },
        {
          "internalType": "bytes",
          "name": "data",
          "type": "bytes"
        }
      ],
      "name": "safeTransferFrom",
      "outputs": [],
      "stateMutability": "nonpayable",
      "type": "function"
    },
    {
      "inputs": [
        {
          "internalType": "uint256",
          "name": "_id",
          "type": "uint256"
        }
      ],
      "name": "sendFundsToCampaignOwner",
      "outputs": [],
      "stateMutability": "nonpayable",
      "type": "function"
    },
    {
      "inputs": [
        {
          "internalType": "address",
          "name": "operator",
          "type": "address"
        },
        {
          "internalType": "bool",
          "name": "approved",
          "type": "bool"
        }
      ],
      "name": "setApprovalForAll",
      "outputs": [],
      "stateMutability": "nonpayable",
      "type": "function"
    },
    {
      "inputs": [
        {
          "internalType": "bytes4",
          "name": "interfaceId",
          "type": "bytes4"
        }
      ],
      "name": "supportsInterface",
      "outputs": [
        {
          "internalType": "bool",
          "name": "",
          "type": "bool"
        }
      ],
      "stateMutability": "view",
      "type": "function"
    },
    {
      "inputs": [],
      "name": "symbol",
      "outputs": [
        {
          "internalType": "string",
          "name": "",
          "type": "string"
        }
      ],
      "stateMutability": "view",
      "type": "function"
    },
    {
      "inputs": [
        {
          "internalType": "uint256",
          "name": "tokenId",
          "type": "uint256"
        }
      ],
      "name": "tokenURI",
      "outputs": [
        {
          "internalType": "string",
          "name": "",
          "type": "string"
        }
      ],
      "stateMutability": "view",
      "type": "function"
    },
    {
      "inputs": [
        {
          "internalType": "address",
          "name": "from",
          "type": "address"
        },
        {
          "internalType": "address",
          "name": "to",
          "type": "address"
        },
        {
          "internalType": "uint256",
          "name": "tokenId",
          "type": "uint256"
        }
      ],
      "name": "transferFrom",
      "outputs": [],
      "stateMutability": "nonpayable",
      "type": "function"
    },
    {
      "inputs": [
        {
          "internalType": "address",
          "name": "newOwner",
          "type": "address"
        }
      ],
      "name": "transferOwnership",
      "outputs": [],
      "stateMutability": "nonpayable",
      "type": "function"
    },
    {
      "inputs": [
        {
          "internalType": "uint256",
          "name": "_id",
          "type": "uint256"
        },
        {
          "internalType": "string",
          "name": "_title",
          "type": "string"
        },
        {
          "internalType": "string",
          "name": "_description",
          "type": "string"
        },
        {
          "internalType": "uint256",
          "name": "_target",
          "type": "uint256"
        },
        {
          "internalType": "uint256",
          "name": "_deadline",
          "type": "uint256"
        },
        {
          "internalType": "string",
          "name": "_image",
          "type": "string"
        },
        {
          "internalType": "enum CrowdFunding.Category",
          "name": "_category",
          "type": "uint8"
        }
      ],
      "name": "updateDraftCampaign",
      "outputs": [],
      "stateMutability": "nonpayable",
      "type": "function"
    },
    {
      "inputs": [
        {
          "internalType": "uint256",
          "name": "_id",
          "type": "uint256"
        }
      ],
      "name": "withdrawCampaignFunds",
      "outputs": [],
      "stateMutability": "nonpayable",
      "type": "function"
    }
  ],
  "bytecode": "0x6080604052600060085534801561001557600080fd5b50336040518060400160405280600c81526020017f43726f776446756e64696e6700000000000000000000000000000000000000008152506040518060400160405280600281526020017f434600000000000000000000000000000000000000000000000000000000000081525081600090816100929190610442565b5080600190816100a29190610442565b505050600073ffffffffffffffffffffffffffffffffffffffff168173ffffffffffffffffffffffffffffffffffffffff16036101175760006040517f1e4fbdf700000000000000000000000000000000000000000000000000000000815260040161010e9190610555565b60405180910390fd5b6101268161012c60201b60201c565b50610570565b6000600660009054906101000a900473ffffffffffffffffffffffffffffffffffffffff16905081600660006101000a81548173ffffffffffffffffffffffffffffffffffffffff021916908373ffffffffffffffffffffffffffffffffffffffff1602179055508173ffffffffffffffffffffffffffffffffffffffff168173ffffffffffffffffffffffffffffffffffffffff167f8be0079c531659141344cd1fd0a4f28419497f9722a3daafe3b4186f6b6457e060405160405180910390a35050565b600081519050919050565b7f4e487b7100000000000000000000000000000000000000000000000000000000600052604160045260246000fd5b7f4e487b7100000000000000000000000000000000000000000000000000000000600052602260045260246000fd5b6000600282049050600182168061027357607f821691505b6020821081036102865761028561022c565b5b50919050565b60008190508160005260206000209050919050565b60006020601f8301049050919050565b600082821b905092915050565b6000600883026102ee7fffffffffffffffffffffffffffffffffffffffffffffffffffffffffffffffff826102b1565b6102f886836102b1565b95508019841693508086168417925050509392505050565b6000819050919050565b6000819050919050565b600061033f61033a61033584610310565b61031a565b610310565b9050919050565b6000819050919050565b61035983610324565b61036d61036582610346565b8484546102be565b825550505050565b600090565b610382610375565b61038d818484610350565b505050565b5b818110156103b1576103a660008261037a565b600181019050610393565b5050565b601f8211156103f6576103c78161028c565b6103d0846102a1565b810160208510156103df578190505b6103f36103eb856102a1565b830182610392565b50505b505050565b600082821c905092915050565b6000610419600019846008026103fb565b1980831691505092915050565b60006104328383610408565b9150826002028217905092915050565b61044b826101f2565b67ffffffffffffffff811115610464576104636101fd565b5b61046e825461025b565b6104798282856103b5565b600060209050601f8311600181146104ac576000841561049a578287015190505b6104a48582610426565b86555061050c565b601f1984166104ba8661028c565b60005b828110156104e2578489015182556001820191506020850194506020810190506104bd565b868310156104ff57848901516104fb601f891682610408565b8355505b6001600288020188555050505b505050505050565b600073ffffffffffffffffffffffffffffffffffffffff82169050919050565b600061053f82610514565b9050919050565b61054f81610534565b82525050565b600060208201905061056a6000830184610546565b92915050565b615c648061057f6000396000f3fe6080604052600436106101cd5760003560e01c806370a08231116100f7578063b88d4fde11610095578063e985e9c511610064578063e985e9c5146106b9578063ec1c36ea146106f6578063f0a603bc14610721578063f2fde38b1461074a576101cd565b8063b88d4fde146105ed578063c277a4a814610616578063c87b56dd14610653578063e2205ecf14610690576101cd565b80638da5cb5b116100d15780638da5cb5b1461054357806395d89b411461056e578063a22cb46514610599578063a6b03633146105c2576101cd565b806370a08231146104c4578063715018a6146105015780637274e30d14610518576101cd565b8063141961bc1161016f5780633fba31ab1161013e5780633fba31ab1461041957806342842e0e1461044257806342a4fda81461046b5780636352211e14610487576101cd565b8063141961bc146103445780631d115bf51461038a57806323b872dd146103c7578063293543db146103f0576101cd565b8063095ea7b3116101ab578063095ea7b3146102775780630cfc1e73146102a05780630fa91fa9146102dd57806314169e2a1461031b576101cd565b806301ffc9a7146101d257806306fdde031461020f578063081812fc1461023a575b600080fd5b3480156101de57600080fd5b506101f960048036038101906101f49190614049565b610773565b6040516102069190614091565b60405180910390f35b34801561021b57600080fd5b50610224610855565b604051610231919061413c565b60405180910390f35b34801561024657600080fd5b50610261600480360381019061025c9190614194565b6108e7565b60405161026e9190614202565b60405180910390f35b34801561028357600080fd5b5061029e60048036038101906102999190614249565b610903565b005b3480156102ac57600080fd5b506102c760048036038101906102c29190614289565b610919565b6040516102d4919061471d565b60405180910390f35b3480156102e957600080fd5b5061030460048036038101906102ff9190614194565b610f1b565b60405161031292919061481d565b60405180910390f35b34801561032757600080fd5b50610342600480360381019061033d9190614194565b611021565b005b34801561035057600080fd5b5061036b60048036038101906103669190614194565b6112b3565b6040516103819a99989796959493929190614881565b60405180910390f35b34801561039657600080fd5b506103b160048036038101906103ac9190614194565b6114d9565b6040516103be9190614932565b60405180910390f35b3480156103d357600080fd5b506103ee60048036038101906103e9919061494d565b61150d565b005b3480156103fc57600080fd5b5061041760048036038101906104129190614afa565b61160f565b005b34801561042557600080fd5b50610440600480360381019061043b9190614194565b61190b565b005b34801561044e57600080fd5b506104696004803603810190610464919061494d565b611af1565b005b61048560048036038101906104809190614194565b611b11565b005b34801561049357600080fd5b506104ae60048036038101906104a99190614194565b611d2e565b6040516104bb9190614202565b60405180910390f35b3480156104d057600080fd5b506104eb60048036038101906104e69190614289565b611d40565b6040516104f89190614932565b60405180910390f35b34801561050d57600080fd5b50610516611dfa565b005b34801561052457600080fd5b5061052d611e0e565b60405161053a9190614932565b60405180910390f35b34801561054f57600080fd5b50610558611e14565b6040516105659190614202565b60405180910390f35b34801561057a57600080fd5b50610583611e3e565b604051610590919061413c565b60405180910390f35b3480156105a557600080fd5b506105c060048036038101906105bb9190614c1c565b611ed0565b005b3480156105ce57600080fd5b506105d7611ee6565b6040516105e4919061471d565b60405180910390f35b3480156105f957600080fd5b50610614600480360381019061060f9190614cfd565b612331565b005b34801561062257600080fd5b5061063d60048036038101906106389190614d80565b612356565b60405161064a9190614932565b60405180910390f35b34801561065f57600080fd5b5061067a60048036038101906106759190614194565b6126b2565b604051610687919061413c565b60405180910390f35b34801561069c57600080fd5b506106b760048036038101906106b29190614194565b61271b565b005b3480156106c557600080fd5b506106e060048036038101906106db9190614e76565b6128ce565b6040516106ed9190614091565b60405180910390f35b34801561070257600080fd5b5061070b612962565b604051610718919061471d565b60405180910390f35b34801561072d57600080fd5b5061074860048036038101906107439190614194565b612e86565b005b34801561075657600080fd5b50610771600480360381019061076c9190614289565b613039565b005b60007f80ac58cd000000000000000000000000000000000000000000000000000000007bffffffffffffffffffffffffffffffffffffffffffffffffffffffff1916827bffffffffffffffffffffffffffffffffffffffffffffffffffffffff1916148061083e57507f5b5e139f000000000000000000000000000000000000000000000000000000007bffffffffffffffffffffffffffffffffffffffffffffffffffffffff1916827bffffffffffffffffffffffffffffffffffffffffffffffffffffffff1916145b8061084e575061084d826130bf565b5b9050919050565b60606000805461086490614ee5565b80601f016020809104026020016040519081016040528092919081815260200182805461089090614ee5565b80156108dd5780601f106108b2576101008083540402835291602001916108dd565b820191906000526020600020905b8154815290600101906020018083116108c057829003601f168201915b5050505050905090565b60006108f282613129565b506108fc826131b1565b9050919050565b61091582826109106131ee565b6131f6565b5050565b60606000805b600854811015610a02578373ffffffffffffffffffffffffffffffffffffffff166007600083815260200190815260200160002060000160009054906101000a900473ffffffffffffffffffffffffffffffffffffffff1673ffffffffffffffffffffffffffffffffffffffff161480156109e15750600060028111156109a9576109a861434a565b5b6007600083815260200190815260200160002060080160019054906101000a900460ff1660028111156109df576109de61434a565b5b145b156109f55781806109f190614f45565b9250505b808060010191505061091f565b5060008167ffffffffffffffff811115610a1f57610a1e6149aa565b5b604051908082528060200260200182016040528015610a5857816020015b610a45613e4e565b815260200190600190039081610a3d5790505b5090506000805b600854811015610f0f578573ffffffffffffffffffffffffffffffffffffffff166007600083815260200190815260200160002060000160009054906101000a900473ffffffffffffffffffffffffffffffffffffffff1673ffffffffffffffffffffffffffffffffffffffff16148015610b21575060006002811115610ae957610ae861434a565b5b6007600083815260200190815260200160002060080160019054906101000a900460ff166002811115610b1f57610b1e61434a565b5b145b15610f025760076000828152602001908152602001600020604051806101800160405290816000820160009054906101000a900473ffffffffffffffffffffffffffffffffffffffff1673ffffffffffffffffffffffffffffffffffffffff1673ffffffffffffffffffffffffffffffffffffffff168152602001600182018054610bab90614ee5565b80601f0160208091040260200160405190810160405280929190818152602001828054610bd790614ee5565b8015610c245780601f10610bf957610100808354040283529160200191610c24565b820191906000526020600020905b815481529060010190602001808311610c0757829003601f168201915b50505050508152602001600282018054610c3d90614ee5565b80601f0160208091040260200160405190810160405280929190818152602001828054610c6990614ee5565b8015610cb65780601f10610c8b57610100808354040283529160200191610cb6565b820191906000526020600020905b815481529060010190602001808311610c9957829003601f168201915b5050505050815260200160038201548152602001600482015481526020016005820154815260200160068201548152602001600782018054610cf790614ee5565b80601f0160208091040260200160405190810160405280929190818152602001828054610d2390614ee5565b8015610d705780601f10610d4557610100808354040283529160200191610d70565b820191906000526020600020905b815481529060010190602001808311610d5357829003601f168201915b505050505081526020016008820160009054906101000a900460ff166005811115610d9e57610d9d61434a565b5b6005811115610db057610daf61434a565b5b81526020016008820160019054906101000a900460ff166002811115610dd957610dd861434a565b5b6002811115610deb57610dea61434a565b5b815260200160098201805480602002602001604051908101604052809291908181526020018280548015610e7457602002820191906000526020600020905b8160009054906101000a900473ffffffffffffffffffffffffffffffffffffffff1673ffffffffffffffffffffffffffffffffffffffff1681526020019060010190808311610e2a575b50505050508152602001600a8201805480602002602001604051908101604052809291908181526020018280548015610ecc57602002820191906000526020600020905b815481526020019060010190808311610eb8575b505050505081525050838381518110610ee857610ee7614f8d565b5b60200260200101819052508180610efe90614f45565b9250505b8080600101915050610a5f565b50819350505050919050565b60608060006007600085815260200190815260200160002090508060090181600a0181805480602002602001604051908101604052809291908181526020018280548015610fbe57602002820191906000526020600020905b8160009054906101000a900473ffffffffffffffffffffffffffffffffffffffff1673ffffffffffffffffffffffffffffffffffffffff1681526020019060010190808311610f74575b505050505091508080548060200260200160405190810160405280929190818152602001828054801561101057602002820191906000526020600020905b815481526020019060010190808311610ffc575b505050505090509250925050915091565b806007600082815260200190815260200160002060000160009054906101000a900473ffffffffffffffffffffffffffffffffffffffff1673ffffffffffffffffffffffffffffffffffffffff163373ffffffffffffffffffffffffffffffffffffffff16146110c6576040517f08c379a00000000000000000000000000000000000000000000000000000000081526004016110bd9061502e565b60405180910390fd5b60006007600084815260200190815260200160002090506000816006015411611124576040517f08c379a000000000000000000000000000000000000000000000000000000000815260040161111b9061509a565b60405180910390fd5b4281600401541061116a576040517f08c379a000000000000000000000000000000000000000000000000000000000815260040161116190615106565b60405180910390fd5b6000816006015490506000826006018190555060008260000160009054906101000a900473ffffffffffffffffffffffffffffffffffffffff1673ffffffffffffffffffffffffffffffffffffffff16826040516111c790615157565b60006040518083038185875af1925050503d8060008114611204576040519150601f19603f3d011682016040523d82523d6000602084013e611209565b606091505b505090508061124d576040517f08c379a0000000000000000000000000000000000000000000000000000000008152600401611244906151b8565b60405180910390fd5b7ff440aec6b52895984d061d622e6edeba6210f7c3e059be920663140c084560d7858460000160009054906101000a900473ffffffffffffffffffffffffffffffffffffffff16846040516112a4939291906151d8565b60405180910390a15050505050565b60076020528060005260406000206000915090508060000160009054906101000a900473ffffffffffffffffffffffffffffffffffffffff16908060010180546112fc90614ee5565b80601f016020809104026020016040519081016040528092919081815260200182805461132890614ee5565b80156113755780601f1061134a57610100808354040283529160200191611375565b820191906000526020600020905b81548152906001019060200180831161135857829003601f168201915b50505050509080600201805461138a90614ee5565b80601f01602080910402602001604051908101604052809291908181526020018280546113b690614ee5565b80156114035780601f106113d857610100808354040283529160200191611403565b820191906000526020600020905b8154815290600101906020018083116113e657829003601f168201915b50505050509080600301549080600401549080600501549080600601549080600701805461143090614ee5565b80601f016020809104026020016040519081016040528092919081815260200182805461145c90614ee5565b80156114a95780601f1061147e576101008083540402835291602001916114a9565b820191906000526020600020905b81548152906001019060200180831161148c57829003601f168201915b5050505050908060080160009054906101000a900460ff16908060080160019054906101000a900460ff1690508a565b60008060076000848152602001908152602001600020905080600601548160050154611505919061520f565b915050919050565b600073ffffffffffffffffffffffffffffffffffffffff168273ffffffffffffffffffffffffffffffffffffffff160361157f5760006040517f64a0ae920000000000000000000000000000000000000000000000000000000081526004016115769190614202565b60405180910390fd5b6000611593838361158e6131ee565b613208565b90508373ffffffffffffffffffffffffffffffffffffffff168173ffffffffffffffffffffffffffffffffffffffff1614611609578382826040517f64283d7b00000000000000000000000000000000000000000000000000000000815260040161160093929190615243565b60405180910390fd5b50505050565b866007600082815260200190815260200160002060000160009054906101000a900473ffffffffffffffffffffffffffffffffffffffff1673ffffffffffffffffffffffffffffffffffffffff163373ffffffffffffffffffffffffffffffffffffffff16146116b4576040517f08c379a00000000000000000000000000000000000000000000000000000000081526004016116ab9061502e565b60405180910390fd5b87600060028111156116c9576116c861434a565b5b6007600083815260200190815260200160002060080160019054906101000a900460ff1660028111156116ff576116fe61434a565b5b1461173f576040517f08c379a0000000000000000000000000000000000000000000000000000000008152600401611736906152c6565b60405180910390fd5b60008611611782576040517f08c379a000000000000000000000000000000000000000000000000000000000815260040161177990615358565b60405180910390fd5b4285116117c4576040517f08c379a00000000000000000000000000000000000000000000000000000000081526004016117bb906153c4565b60405180910390fd5b6005808111156117d7576117d661434a565b5b60ff168360058111156117ed576117ec61434a565b5b60ff161115611831576040517f08c379a000000000000000000000000000000000000000000000000000000000815260040161182890615430565b60405180910390fd5b6000600760008b815260200190815260200160002090508881600101908161185991906155fc565b508781600201908161186b91906155fc565b508681600301819055508581600401819055508481600701908161188f91906155fc565b50838160080160006101000a81548160ff021916908360058111156118b7576118b661434a565b5b02179055507f730eed3777e8c78ef5f6bbc1eb91b4cfdd522072e57afe212003300ac61594058a8a8a8a8a8a8a6040516118f797969594939291906156ce565b60405180910390a150505050505050505050565b611913613422565b60006007600083815260200190815260200160002090506000816005015411611971576040517f08c379a00000000000000000000000000000000000000000000000000000000081526004016119689061579e565b60405180910390fd5b60008160060154116119b8576040517f08c379a00000000000000000000000000000000000000000000000000000000081526004016119af9061579e565b60405180910390fd5b428160040154106119fe576040517f08c379a00000000000000000000000000000000000000000000000000000000081526004016119f59061580a565b60405180910390fd5b6000816006015490506000826006018190555060008260000160009054906101000a900473ffffffffffffffffffffffffffffffffffffffff1673ffffffffffffffffffffffffffffffffffffffff1682604051611a5b90615157565b60006040518083038185875af1925050503d8060008114611a98576040519150601f19603f3d011682016040523d82523d6000602084013e611a9d565b606091505b5050905080611ae1576040517f08c379a0000000000000000000000000000000000000000000000000000000008152600401611ad8906151b8565b60405180910390fd5b6000836006018190555050505050565b611b0c83838360405180602001604052806000815250612331565b505050565b600060076000838152602001908152602001600020905060003411611b6b576040517f08c379a0000000000000000000000000000000000000000000000000000000008152600401611b629061589c565b60405180910390fd5b60016002811115611b7f57611b7e61434a565b5b8160080160019054906101000a900460ff166002811115611ba357611ba261434a565b5b14611be3576040517f08c379a0000000000000000000000000000000000000000000000000000000008152600401611bda90615908565b60405180910390fd5b42816004015411611c29576040517f08c379a0000000000000000000000000000000000000000000000000000000008152600401611c2090615974565b60405180910390fd5b80600901339080600181540180825580915050600190039060005260206000200160009091909190916101000a81548173ffffffffffffffffffffffffffffffffffffffff021916908373ffffffffffffffffffffffffffffffffffffffff16021790555080600a0134908060018154018082558091505060019003906000526020600020016000909190919091505534816005016000828254611ccd9190615994565b9250508190555034816006016000828254611ce89190615994565b925050819055507fab9c35171e39c1e9e36544edfe4e6f20d5ebcb0daefd9c2ea9a533e991fd6087823334604051611d22939291906151d8565b60405180910390a15050565b6000611d3982613129565b9050919050565b60008073ffffffffffffffffffffffffffffffffffffffff168273ffffffffffffffffffffffffffffffffffffffff1603611db35760006040517f89c62b64000000000000000000000000000000000000000000000000000000008152600401611daa9190614202565b60405180910390fd5b600360008373ffffffffffffffffffffffffffffffffffffffff1673ffffffffffffffffffffffffffffffffffffffff168152602001908152602001600020549050919050565b611e02613422565b611e0c60006134a9565b565b60085481565b6000600660009054906101000a900473ffffffffffffffffffffffffffffffffffffffff16905090565b606060018054611e4d90614ee5565b80601f0160208091040260200160405190810160405280929190818152602001828054611e7990614ee5565b8015611ec65780601f10611e9b57610100808354040283529160200191611ec6565b820191906000526020600020905b815481529060010190602001808311611ea957829003601f168201915b5050505050905090565b611ee2611edb6131ee565b838361356f565b5050565b6060600060085467ffffffffffffffff811115611f0657611f056149aa565b5b604051908082528060200260200182016040528015611f3f57816020015b611f2c613e4e565b815260200190600190039081611f245790505b50905060005b6008548110156123295760076000828152602001908152602001600020604051806101800160405290816000820160009054906101000a900473ffffffffffffffffffffffffffffffffffffffff1673ffffffffffffffffffffffffffffffffffffffff1673ffffffffffffffffffffffffffffffffffffffff168152602001600182018054611fd490614ee5565b80601f016020809104026020016040519081016040528092919081815260200182805461200090614ee5565b801561204d5780601f106120225761010080835404028352916020019161204d565b820191906000526020600020905b81548152906001019060200180831161203057829003601f168201915b5050505050815260200160028201805461206690614ee5565b80601f016020809104026020016040519081016040528092919081815260200182805461209290614ee5565b80156120df5780601f106120b4576101008083540402835291602001916120df565b820191906000526020600020905b8154815290600101906020018083116120c257829003601f168201915b505050505081526020016003820154815260200160048201548152602001600582015481526020016006820154815260200160078201805461212090614ee5565b80601f016020809104026020016040519081016040528092919081815260200182805461214c90614ee5565b80156121995780601f1061216e57610100808354040283529160200191612199565b820191906000526020600020905b81548152906001019060200180831161217c57829003601f168201915b505050505081526020016008820160009054906101000a900460ff1660058111156121c7576121c661434a565b5b60058111156121d9576121d861434a565b5b81526020016008820160019054906101000a900460ff1660028111156122025761220161434a565b5b60028111156122145761221361434a565b5b81526020016009820180548060200260200160405190810160405280929190818152602001828054801561229d57602002820191906000526020600020905b8160009054906101000a900473ffffffffffffffffffffffffffffffffffffffff1673ffffffffffffffffffffffffffffffffffffffff1681526020019060010190808311612253575b50505050508152602001600a82018054806020026020016040519081016040528092919081815260200182805480156122f557602002820191906000526020600020905b8154815260200190600101908083116122e1575b50505050508152505082828151811061231157612310614f8d565b5b60200260200101819052508080600101915050611f45565b508091505090565b61233c84848461150d565b6123506123476131ee565b858585856136de565b50505050565b600080861161239a576040517f08c379a000000000000000000000000000000000000000000000000000000000815260040161239190615358565b60405180910390fd5b4285116123dc576040517f08c379a00000000000000000000000000000000000000000000000000000000081526004016123d3906153c4565b60405180910390fd5b6005808111156123ef576123ee61434a565b5b60ff168360058111156124055761240461434a565b5b60ff161115612449576040517f08c379a000000000000000000000000000000000000000000000000000000000815260040161244090615430565b60405180910390fd5b60006007600060085481526020019081526020016000209050338160000160006101000a81548173ffffffffffffffffffffffffffffffffffffffff021916908373ffffffffffffffffffffffffffffffffffffffff160217905550888160010190816124b691906155fc565b50878160020190816124c891906155fc565b5086816003018190555085816004018190555060008160050181905550600081600601819055508481600701908161250091906155fc565b50838160080160006101000a81548160ff021916908360058111156125285761252761434a565b5b02179055508261253957600061253c565b60015b8160080160016101000a81548160ff021916908360028111156125625761256161434a565b5b0217905550600067ffffffffffffffff811115612582576125816149aa565b5b6040519080825280602002602001820160405280156125b05781602001602082028036833780820191505090505b508160090190805190602001906125c8929190613ee9565b50600067ffffffffffffffff8111156125e4576125e36149aa565b5b6040519080825280602002602001820160405280156126125781602001602082028036833780820191505090505b5081600a01908051906020019061262a929190613f73565b50600060085490506008600081548092919061264590614f45565b91905055507f80ed8ceda43ee892efa3c26ed204c4e34c23eb0399f88280c5ba7839c866b1f681338c8c8c8c8c8c8a60080160019054906101000a900460ff1660405161269a999897969594939291906159c8565b60405180910390a18092505050979650505050505050565b60606126bd82613129565b5060006126c861388f565b905060008151116126e85760405180602001604052806000815250612713565b806126f2846138a6565b604051602001612703929190615aa6565b6040516020818303038152906040525b915050919050565b806007600082815260200190815260200160002060000160009054906101000a900473ffffffffffffffffffffffffffffffffffffffff1673ffffffffffffffffffffffffffffffffffffffff163373ffffffffffffffffffffffffffffffffffffffff16146127c0576040517f08c379a00000000000000000000000000000000000000000000000000000000081526004016127b79061502e565b60405180910390fd5b81600060028111156127d5576127d461434a565b5b6007600083815260200190815260200160002060080160019054906101000a900460ff16600281111561280b5761280a61434a565b5b1461284b576040517f08c379a0000000000000000000000000000000000000000000000000000000008152600401612842906152c6565b60405180910390fd5b600060076000858152602001908152602001600020905060028160080160016101000a81548160ff0219169083600281111561288a5761288961434a565b5b02179055507f844c792f3d122ddfe76f9173cd5b48de3087f78395e0f62b94f9d471c991dcb284336040516128c0929190615aca565b60405180910390a150505050565b6000600560008473ffffffffffffffffffffffffffffffffffffffff1673ffffffffffffffffffffffffffffffffffffffff16815260200190815260200160002060008373ffffffffffffffffffffffffffffffffffffffff1673ffffffffffffffffffffffffffffffffffffffff16815260200190815260200160002060009054906101000a900460ff16905092915050565b60606000805b6008548110156129dd57600160028111156129865761298561434a565b5b6007600083815260200190815260200160002060080160019054906101000a900460ff1660028111156129bc576129bb61434a565b5b036129d05781806129cc90614f45565b9250505b8080600101915050612968565b5060008167ffffffffffffffff8111156129fa576129f96149aa565b5b604051908082528060200260200182016040528015612a3357816020015b612a20613e4e565b815260200190600190039081612a185790505b5090506000805b600854811015612e7c5760016002811115612a5857612a5761434a565b5b6007600083815260200190815260200160002060080160019054906101000a900460ff166002811115612a8e57612a8d61434a565b5b03612e6f5760076000828152602001908152602001600020604051806101800160405290816000820160009054906101000a900473ffffffffffffffffffffffffffffffffffffffff1673ffffffffffffffffffffffffffffffffffffffff1673ffffffffffffffffffffffffffffffffffffffff168152602001600182018054612b1890614ee5565b80601f0160208091040260200160405190810160405280929190818152602001828054612b4490614ee5565b8015612b915780601f10612b6657610100808354040283529160200191612b91565b820191906000526020600020905b815481529060010190602001808311612b7457829003601f168201915b50505050508152602001600282018054612baa90614ee5565b80601f0160208091040260200160405190810160405280929190818152602001828054612bd690614ee5565b8015612c235780601f10612bf857610100808354040283529160200191612c23565b820191906000526020600020905b815481529060010190602001808311612c0657829003601f168201915b5050505050815260200160038201548152602001600482015481526020016005820154815260200160068201548152602001600782018054612c6490614ee5565b80601f0160208091040260200160405190810160405280929190818152602001828054612c9090614ee5565b8015612cdd5780601f10612cb257610100808354040283529160200191612cdd565b820191906000526020600020905b815481529060010190602001808311612cc057829003601f168201915b505050505081526020016008820160009054906101000a900460ff166005811115612d0b57612d0a61434a565b5b6005811115612d1d57612d1c61434a565b5b81526020016008820160019054906101000a900460ff166002811115612d4657612d4561434a565b5b6002811115612d5857612d5761434a565b5b815260200160098201805480602002602001604051908101604052809291908181526020018280548015612de157602002820191906000526020600020905b8160009054906101000a900473ffffffffffffffffffffffffffffffffffffffff1673ffffffffffffffffffffffffffffffffffffffff1681526020019060010190808311612d97575b50505050508152602001600a8201805480602002602001604051908101604052809291908181526020018280548015612e3957602002820191906000526020600020905b815481526020019060010190808311612e25575b505050505081525050838381518110612e5557612e54614f8d565b5b60200260200101819052508180612e6b90614f45565b9250505b8080600101915050612a3a565b5081935050505090565b806007600082815260200190815260200160002060000160009054906101000a900473ffffffffffffffffffffffffffffffffffffffff1673ffffffffffffffffffffffffffffffffffffffff163373ffffffffffffffffffffffffffffffffffffffff1614612f2b576040517f08c379a0000000000000000000000000000000000000000000000000000000008152600401612f229061502e565b60405180910390fd5b8160006002811115612f4057612f3f61434a565b5b6007600083815260200190815260200160002060080160019054906101000a900460ff166002811115612f7657612f7561434a565b5b14612fb6576040517f08c379a0000000000000000000000000000000000000000000000000000000008152600401612fad906152c6565b60405180910390fd5b600060076000858152602001908152602001600020905060018160080160016101000a81548160ff02191690836002811115612ff557612ff461434a565b5b02179055507f0a7083224233fc5630db51d4d433adf417be6f67e2f466bf1329565a341580a6843360405161302b929190615aca565b60405180910390a150505050565b613041613422565b600073ffffffffffffffffffffffffffffffffffffffff168173ffffffffffffffffffffffffffffffffffffffff16036130b35760006040517f1e4fbdf70000000000000000000000000000000000000000000000000000000081526004016130aa9190614202565b60405180910390fd5b6130bc816134a9565b50565b60007f01ffc9a7000000000000000000000000000000000000000000000000000000007bffffffffffffffffffffffffffffffffffffffffffffffffffffffff1916827bffffffffffffffffffffffffffffffffffffffffffffffffffffffff1916149050919050565b60008061313583613974565b9050600073ffffffffffffffffffffffffffffffffffffffff168173ffffffffffffffffffffffffffffffffffffffff16036131a857826040517f7e27328900000000000000000000000000000000000000000000000000000000815260040161319f9190614932565b60405180910390fd5b80915050919050565b60006004600083815260200190815260200160002060009054906101000a900473ffffffffffffffffffffffffffffffffffffffff169050919050565b600033905090565b61320383838360016139b1565b505050565b60008061321484613974565b9050600073ffffffffffffffffffffffffffffffffffffffff168373ffffffffffffffffffffffffffffffffffffffff161461325657613255818486613b76565b5b600073ffffffffffffffffffffffffffffffffffffffff168173ffffffffffffffffffffffffffffffffffffffff16146132e7576132986000856000806139b1565b6001600360008373ffffffffffffffffffffffffffffffffffffffff1673ffffffffffffffffffffffffffffffffffffffff168152602001908152602001600020600082825403925050819055505b600073ffffffffffffffffffffffffffffffffffffffff168573ffffffffffffffffffffffffffffffffffffffff161461336a576001600360008773ffffffffffffffffffffffffffffffffffffffff1673ffffffffffffffffffffffffffffffffffffffff168152602001908152602001600020600082825401925050819055505b846002600086815260200190815260200160002060006101000a81548173ffffffffffffffffffffffffffffffffffffffff021916908373ffffffffffffffffffffffffffffffffffffffff160217905550838573ffffffffffffffffffffffffffffffffffffffff168273ffffffffffffffffffffffffffffffffffffffff167fddf252ad1be2c89b69c2b068fc378daa952ba7f163c4a11628f55a4df523b3ef60405160405180910390a4809150509392505050565b61342a6131ee565b73ffffffffffffffffffffffffffffffffffffffff16613448611e14565b73ffffffffffffffffffffffffffffffffffffffff16146134a75761346b6131ee565b6040517f118cdaa700000000000000000000000000000000000000000000000000000000815260040161349e9190614202565b60405180910390fd5b565b6000600660009054906101000a900473ffffffffffffffffffffffffffffffffffffffff16905081600660006101000a81548173ffffffffffffffffffffffffffffffffffffffff021916908373ffffffffffffffffffffffffffffffffffffffff1602179055508173ffffffffffffffffffffffffffffffffffffffff168173ffffffffffffffffffffffffffffffffffffffff167f8be0079c531659141344cd1fd0a4f28419497f9722a3daafe3b4186f6b6457e060405160405180910390a35050565b600073ffffffffffffffffffffffffffffffffffffffff168273ffffffffffffffffffffffffffffffffffffffff16036135e057816040517f5b08ba180000000000000000000000000000000000000000000000000000000081526004016135d79190614202565b60405180910390fd5b80600560008573ffffffffffffffffffffffffffffffffffffffff1673ffffffffffffffffffffffffffffffffffffffff16815260200190815260200160002060008473ffffffffffffffffffffffffffffffffffffffff1673ffffffffffffffffffffffffffffffffffffffff16815260200190815260200160002060006101000a81548160ff0219169083151502179055508173ffffffffffffffffffffffffffffffffffffffff168373ffffffffffffffffffffffffffffffffffffffff167f17307eab39ab6107e8899845ad3d59bd9653f200f220920489ca2b5937696c31836040516136d19190614091565b60405180910390a3505050565b60008373ffffffffffffffffffffffffffffffffffffffff163b1115613888578273ffffffffffffffffffffffffffffffffffffffff1663150b7a02868685856040518563ffffffff1660e01b815260040161373d9493929190615b48565b6020604051808303816000875af192505050801561377957506040513d601f19601f820116820180604052508101906137769190615ba9565b60015b6137fd573d80600081146137a9576040519150601f19603f3d011682016040523d82523d6000602084013e6137ae565b606091505b5060008151036137f557836040517f64a0ae920000000000000000000000000000000000000000000000000000000081526004016137ec9190614202565b60405180910390fd5b805181602001fd5b63150b7a0260e01b7bffffffffffffffffffffffffffffffffffffffffffffffffffffffff1916817bffffffffffffffffffffffffffffffffffffffffffffffffffffffff19161461388657836040517f64a0ae9200000000000000000000000000000000000000000000000000000000815260040161387d9190614202565b60405180910390fd5b505b5050505050565b606060405180602001604052806000815250905090565b6060600060016138b584613c3a565b01905060008167ffffffffffffffff8111156138d4576138d36149aa565b5b6040519080825280601f01601f1916602001820160405280156139065781602001600182028036833780820191505090505b509050600082602001820190505b600115613969578080600190039150507f3031323334353637383961626364656600000000000000000000000000000000600a86061a8153600a858161395d5761395c615bd6565b5b04945060008503613914575b819350505050919050565b60006002600083815260200190815260200160002060009054906101000a900473ffffffffffffffffffffffffffffffffffffffff169050919050565b80806139ea5750600073ffffffffffffffffffffffffffffffffffffffff168273ffffffffffffffffffffffffffffffffffffffff1614155b15613b1e5760006139fa84613129565b9050600073ffffffffffffffffffffffffffffffffffffffff168373ffffffffffffffffffffffffffffffffffffffff1614158015613a6557508273ffffffffffffffffffffffffffffffffffffffff168173ffffffffffffffffffffffffffffffffffffffff1614155b8015613a785750613a7681846128ce565b155b15613aba57826040517fa9fbf51f000000000000000000000000000000000000000000000000000000008152600401613ab19190614202565b60405180910390fd5b8115613b1c57838573ffffffffffffffffffffffffffffffffffffffff168273ffffffffffffffffffffffffffffffffffffffff167f8c5be1e5ebec7d5bd14f71427d1e84f3dd0314c0f7b2291e5b200ac8c7c3b92560405160405180910390a45b505b836004600085815260200190815260200160002060006101000a81548173ffffffffffffffffffffffffffffffffffffffff021916908373ffffffffffffffffffffffffffffffffffffffff16021790555050505050565b613b81838383613d8d565b613c3557600073ffffffffffffffffffffffffffffffffffffffff168373ffffffffffffffffffffffffffffffffffffffff1603613bf657806040517f7e273289000000000000000000000000000000000000000000000000000000008152600401613bed9190614932565b60405180910390fd5b81816040517f177e802f000000000000000000000000000000000000000000000000000000008152600401613c2c929190615c05565b60405180910390fd5b505050565b600080600090507a184f03e93ff9f4daa797ed6e38ed64bf6a1f0100000000000000008310613c98577a184f03e93ff9f4daa797ed6e38ed64bf6a1f0100000000000000008381613c8e57613c8d615bd6565b5b0492506040810190505b6d04ee2d6d415b85acef81000000008310613cd5576d04ee2d6d415b85acef81000000008381613ccb57613cca615bd6565b5b0492506020810190505b662386f26fc100008310613d0457662386f26fc100008381613cfa57613cf9615bd6565b5b0492506010810190505b6305f5e1008310613d2d576305f5e1008381613d2357613d22615bd6565b5b0492506008810190505b6127108310613d52576127108381613d4857613d47615bd6565b5b0492506004810190505b60648310613d755760648381613d6b57613d6a615bd6565b5b0492506002810190505b600a8310613d84576001810190505b80915050919050565b60008073ffffffffffffffffffffffffffffffffffffffff168373ffffffffffffffffffffffffffffffffffffffff1614158015613e4557508273ffffffffffffffffffffffffffffffffffffffff168473ffffffffffffffffffffffffffffffffffffffff161480613e065750613e0584846128ce565b5b80613e4457508273ffffffffffffffffffffffffffffffffffffffff16613e2c836131b1565b73ffffffffffffffffffffffffffffffffffffffff16145b5b90509392505050565b604051806101800160405280600073ffffffffffffffffffffffffffffffffffffffff1681526020016060815260200160608152602001600081526020016000815260200160008152602001600081526020016060815260200160006005811115613ebc57613ebb61434a565b5b815260200160006002811115613ed557613ed461434a565b5b815260200160608152602001606081525090565b828054828255906000526020600020908101928215613f62579160200282015b82811115613f615782518260006101000a81548173ffffffffffffffffffffffffffffffffffffffff021916908373ffffffffffffffffffffffffffffffffffffffff16021790555091602001919060010190613f09565b5b509050613f6f9190613fc0565b5090565b828054828255906000526020600020908101928215613faf579160200282015b82811115613fae578251825591602001919060010190613f93565b5b509050613fbc9190613fc0565b5090565b5b80821115613fd9576000816000905550600101613fc1565b5090565b6000604051905090565b600080fd5b600080fd5b60007fffffffff0000000000000000000000000000000000000000000000000000000082169050919050565b61402681613ff1565b811461403157600080fd5b50565b6000813590506140438161401d565b92915050565b60006020828403121561405f5761405e613fe7565b5b600061406d84828501614034565b91505092915050565b60008115159050919050565b61408b81614076565b82525050565b60006020820190506140a66000830184614082565b92915050565b600081519050919050565b600082825260208201905092915050565b60005b838110156140e65780820151818401526020810190506140cb565b60008484015250505050565b6000601f19601f8301169050919050565b600061410e826140ac565b61411881856140b7565b93506141288185602086016140c8565b614131816140f2565b840191505092915050565b600060208201905081810360008301526141568184614103565b905092915050565b6000819050919050565b6141718161415e565b811461417c57600080fd5b50565b60008135905061418e81614168565b92915050565b6000602082840312156141aa576141a9613fe7565b5b60006141b88482850161417f565b91505092915050565b600073ffffffffffffffffffffffffffffffffffffffff82169050919050565b60006141ec826141c1565b9050919050565b6141fc816141e1565b82525050565b600060208201905061421760008301846141f3565b92915050565b614226816141e1565b811461423157600080fd5b50565b6000813590506142438161421d565b92915050565b600080604083850312156142605761425f613fe7565b5b600061426e85828601614234565b925050602061427f8582860161417f565b9150509250929050565b60006020828403121561429f5761429e613fe7565b5b60006142ad84828501614234565b91505092915050565b600081519050919050565b600082825260208201905092915050565b6000819050602082019050919050565b6142eb816141e1565b82525050565b600082825260208201905092915050565b600061430d826140ac565b61431781856142f1565b93506143278185602086016140c8565b614330816140f2565b840191505092915050565b6143448161415e565b82525050565b7f4e487b7100000000000000000000000000000000000000000000000000000000600052602160045260246000fd5b6006811061438a5761438961434a565b5b50565b600081905061439b82614379565b919050565b60006143ab8261438d565b9050919050565b6143bb816143a0565b82525050565b600381106143d2576143d161434a565b5b50565b60008190506143e3826143c1565b919050565b60006143f3826143d5565b9050919050565b614403816143e8565b82525050565b600081519050919050565b600082825260208201905092915050565b6000819050602082019050919050565b600061444183836142e2565b60208301905092915050565b6000602082019050919050565b600061446582614409565b61446f8185614414565b935061447a83614425565b8060005b838110156144ab5781516144928882614435565b975061449d8361444d565b92505060018101905061447e565b5085935050505092915050565b600081519050919050565b600082825260208201905092915050565b6000819050602082019050919050565b60006144f0838361433b565b60208301905092915050565b6000602082019050919050565b6000614514826144b8565b61451e81856144c3565b9350614529836144d4565b8060005b8381101561455a57815161454188826144e4565b975061454c836144fc565b92505060018101905061452d565b5085935050505092915050565b60006101808301600083015161458060008601826142e2565b50602083015184820360208601526145988282614302565b915050604083015184820360408601526145b28282614302565b91505060608301516145c7606086018261433b565b5060808301516145da608086018261433b565b5060a08301516145ed60a086018261433b565b5060c083015161460060c086018261433b565b5060e083015184820360e08601526146188282614302565b91505061010083015161462f6101008601826143b2565b506101208301516146446101208601826143fa565b5061014083015184820361014086015261465e828261445a565b91505061016083015184820361016086015261467a8282614509565b9150508091505092915050565b60006146938383614567565b905092915050565b6000602082019050919050565b60006146b3826142b6565b6146bd81856142c1565b9350836020820285016146cf856142d2565b8060005b8581101561470b57848403895281516146ec8582614687565b94506146f78361469b565b925060208a019950506001810190506146d3565b50829750879550505050505092915050565b6000602082019050818103600083015261473781846146a8565b905092915050565b600082825260208201905092915050565b600061475b82614409565b614765818561473f565b935061477083614425565b8060005b838110156147a15781516147888882614435565b97506147938361444d565b925050600181019050614774565b5085935050505092915050565b600082825260208201905092915050565b60006147ca826144b8565b6147d481856147ae565b93506147df836144d4565b8060005b838110156148105781516147f788826144e4565b9750614802836144fc565b9250506001810190506147e3565b5085935050505092915050565b600060408201905081810360008301526148378185614750565b9050818103602083015261484b81846147bf565b90509392505050565b61485d8161415e565b82525050565b61486c816143a0565b82525050565b61487b816143e8565b82525050565b600061014082019050614897600083018d6141f3565b81810360208301526148a9818c614103565b905081810360408301526148bd818b614103565b90506148cc606083018a614854565b6148d96080830189614854565b6148e660a0830188614854565b6148f360c0830187614854565b81810360e08301526149058186614103565b9050614915610100830185614863565b614923610120830184614872565b9b9a5050505050505050505050565b60006020820190506149476000830184614854565b92915050565b60008060006060848603121561496657614965613fe7565b5b600061497486828701614234565b935050602061498586828701614234565b92505060406149968682870161417f565b9150509250925092565b600080fd5b600080fd5b7f4e487b7100000000000000000000000000000000000000000000000000000000600052604160045260246000fd5b6149e2826140f2565b810181811067ffffffffffffffff82111715614a0157614a006149aa565b5b80604052505050565b6000614a14613fdd565b9050614a2082826149d9565b919050565b600067ffffffffffffffff821115614a4057614a3f6149aa565b5b614a49826140f2565b9050602081019050919050565b82818337600083830152505050565b6000614a78614a7384614a25565b614a0a565b905082815260208101848484011115614a9457614a936149a5565b5b614a9f848285614a56565b509392505050565b600082601f830112614abc57614abb6149a0565b5b8135614acc848260208601614a65565b91505092915050565b60068110614ae257600080fd5b50565b600081359050614af481614ad5565b92915050565b600080600080600080600060e0888a031215614b1957614b18613fe7565b5b6000614b278a828b0161417f565b975050602088013567ffffffffffffffff811115614b4857614b47613fec565b5b614b548a828b01614aa7565b965050604088013567ffffffffffffffff811115614b7557614b74613fec565b5b614b818a828b01614aa7565b9550506060614b928a828b0161417f565b9450506080614ba38a828b0161417f565b93505060a088013567ffffffffffffffff811115614bc457614bc3613fec565b5b614bd08a828b01614aa7565b92505060c0614be18a828b01614ae5565b91505092959891949750929550565b614bf981614076565b8114614c0457600080fd5b50565b600081359050614c1681614bf0565b92915050565b60008060408385031215614c3357614c32613fe7565b5b6000614c4185828601614234565b9250506020614c5285828601614c07565b9150509250929050565b600067ffffffffffffffff821115614c7757614c766149aa565b5b614c80826140f2565b9050602081019050919050565b6000614ca0614c9b84614c5c565b614a0a565b905082815260208101848484011115614cbc57614cbb6149a5565b5b614cc7848285614a56565b509392505050565b600082601f830112614ce457614ce36149a0565b5b8135614cf4848260208601614c8d565b91505092915050565b60008060008060808587031215614d1757614d16613fe7565b5b6000614d2587828801614234565b9450506020614d3687828801614234565b9350506040614d478782880161417f565b925050606085013567ffffffffffffffff811115614d6857614d67613fec565b5b614d7487828801614ccf565b91505092959194509250565b600080600080600080600060e0888a031215614d9f57614d9e613fe7565b5b600088013567ffffffffffffffff811115614dbd57614dbc613fec565b5b614dc98a828b01614aa7565b975050602088013567ffffffffffffffff811115614dea57614de9613fec565b5b614df68a828b01614aa7565b9650506040614e078a828b0161417f565b9550506060614e188a828b0161417f565b945050608088013567ffffffffffffffff811115614e3957614e38613fec565b5b614e458a828b01614aa7565b93505060a0614e568a828b01614ae5565b92505060c0614e678a828b01614c07565b91505092959891949750929550565b60008060408385031215614e8d57614e8c613fe7565b5b6000614e9b85828601614234565b9250506020614eac85828601614234565b9150509250929050565b7f4e487b7100000000000000000000000000000000000000000000000000000000600052602260045260246000fd5b60006002820490506001821680614efd57607f821691505b602082108103614f1057614f0f614eb6565b5b50919050565b7f4e487b7100000000000000000000000000000000000000000000000000000000600052601160045260246000fd5b6000614f508261415e565b91507fffffffffffffffffffffffffffffffffffffffffffffffffffffffffffffffff8203614f8257614f81614f16565b5b600182019050919050565b7f4e487b7100000000000000000000000000000000000000000000000000000000600052603260045260246000fd5b7f4f6e6c7920746865206f776e65722063616e2063616c6c20746869732066756e60008201527f6374696f6e000000000000000000000000000000000000000000000000000000602082015250565b60006150186025836140b7565b915061502382614fbc565b604082019050919050565b600060208201905081810360008301526150478161500b565b9050919050565b7f4e6f2066756e647320746f207769746864726177000000000000000000000000600082015250565b60006150846014836140b7565b915061508f8261504e565b602082019050919050565b600060208201905081810360008301526150b381615077565b9050919050565b7f43616d706169676e207374696c6c206163746976650000000000000000000000600082015250565b60006150f06015836140b7565b91506150fb826150ba565b602082019050919050565b6000602082019050818103600083015261511f816150e3565b9050919050565b600081905092915050565b50565b6000615141600083615126565b915061514c82615131565b600082019050919050565b600061516282615134565b9150819050919050565b7f5472616e73666572206661696c65640000000000000000000000000000000000600082015250565b60006151a2600f836140b7565b91506151ad8261516c565b602082019050919050565b600060208201905081810360008301526151d181615195565b9050919050565b60006060820190506151ed6000830186614854565b6151fa60208301856141f3565b6152076040830184614854565b949350505050565b600061521a8261415e565b91506152258361415e565b925082820390508181111561523d5761523c614f16565b5b92915050565b600060608201905061525860008301866141f3565b6152656020830185614854565b61527260408301846141f3565b949350505050565b7f43616d706169676e206973206e6f7420696e2064726166742073746174757300600082015250565b60006152b0601f836140b7565b91506152bb8261527a565b602082019050919050565b600060208201905081810360008301526152df816152a3565b9050919050565b7f54617267657420616d6f756e74206d757374206265206772656174657220746860008201527f616e203000000000000000000000000000000000000000000000000000000000602082015250565b60006153426024836140b7565b915061534d826152e6565b604082019050919050565b6000602082019050818103600083015261537181615335565b9050919050565b7f446561646c696e65206d75737420626520696e20746865206675747572650000600082015250565b60006153ae601e836140b7565b91506153b982615378565b602082019050919050565b600060208201905081810360008301526153dd816153a1565b9050919050565b7f496e76616c69642063617465676f727900000000000000000000000000000000600082015250565b600061541a6010836140b7565b9150615425826153e4565b602082019050919050565b600060208201905081810360008301526154498161540d565b9050919050565b60008190508160005260206000209050919050565b60006020601f8301049050919050565b600082821b905092915050565b6000600883026154b27fffffffffffffffffffffffffffffffffffffffffffffffffffffffffffffffff82615475565b6154bc8683615475565b95508019841693508086168417925050509392505050565b6000819050919050565b60006154f96154f46154ef8461415e565b6154d4565b61415e565b9050919050565b6000819050919050565b615513836154de565b61552761551f82615500565b848454615482565b825550505050565b600090565b61553c61552f565b61554781848461550a565b505050565b5b8181101561556b57615560600082615534565b60018101905061554d565b5050565b601f8211156155b05761558181615450565b61558a84615465565b81016020851015615599578190505b6155ad6155a585615465565b83018261554c565b50505b505050565b600082821c905092915050565b60006155d3600019846008026155b5565b1980831691505092915050565b60006155ec83836155c2565b9150826002028217905092915050565b615605826140ac565b67ffffffffffffffff81111561561e5761561d6149aa565b5b6156288254614ee5565b61563382828561556f565b600060209050601f8311600181146156665760008415615654578287015190505b61565e85826155e0565b8655506156c6565b601f19841661567486615450565b60005b8281101561569c57848901518255600182019150602085019450602081019050615677565b868310156156b957848901516156b5601f8916826155c2565b8355505b6001600288020188555050505b505050505050565b600060e0820190506156e3600083018a614854565b81810360208301526156f58189614103565b905081810360408301526157098188614103565b90506157186060830187614854565b6157256080830186614854565b81810360a08301526157378185614103565b905061574660c0830184614863565b98975050505050505050565b7f4e6f2066756e647320746f2077697468647261772e0000000000000000000000600082015250565b60006157886015836140b7565b915061579382615752565b602082019050919050565b600060208201905081810360008301526157b78161577b565b9050919050565b7f5468652063616d706169676e20686173206e6f7420656e646564207965742e00600082015250565b60006157f4601f836140b7565b91506157ff826157be565b602082019050919050565b60006020820190508181036000830152615823816157e7565b9050919050565b7f446f6e6174696f6e20616d6f756e74206d75737420626520677265617465722060008201527f7468616e20300000000000000000000000000000000000000000000000000000602082015250565b60006158866026836140b7565b91506158918261582a565b604082019050919050565b600060208201905081810360008301526158b581615879565b9050919050565b7f43616d706169676e206973206e6f74207075626c697368656400000000000000600082015250565b60006158f26019836140b7565b91506158fd826158bc565b602082019050919050565b60006020820190508181036000830152615921816158e5565b9050919050565b7f43616d706169676e2068617320656e6465640000000000000000000000000000600082015250565b600061595e6012836140b7565b915061596982615928565b602082019050919050565b6000602082019050818103600083015261598d81615951565b9050919050565b600061599f8261415e565b91506159aa8361415e565b92508282019050808211156159c2576159c1614f16565b5b92915050565b6000610120820190506159de600083018c614854565b6159eb602083018b6141f3565b81810360408301526159fd818a614103565b90508181036060830152615a118189614103565b9050615a206080830188614854565b615a2d60a0830187614854565b81810360c0830152615a3f8186614103565b9050615a4e60e0830185614863565b615a5c610100830184614872565b9a9950505050505050505050565b600081905092915050565b6000615a80826140ac565b615a8a8185615a6a565b9350615a9a8185602086016140c8565b80840191505092915050565b6000615ab28285615a75565b9150615abe8284615a75565b91508190509392505050565b6000604082019050615adf6000830185614854565b615aec60208301846141f3565b9392505050565b600081519050919050565b600082825260208201905092915050565b6000615b1a82615af3565b615b248185615afe565b9350615b348185602086016140c8565b615b3d816140f2565b840191505092915050565b6000608082019050615b5d60008301876141f3565b615b6a60208301866141f3565b615b776040830185614854565b8181036060830152615b898184615b0f565b905095945050505050565b600081519050615ba38161401d565b92915050565b600060208284031215615bbf57615bbe613fe7565b5b6000615bcd84828501615b94565b91505092915050565b7f4e487b7100000000000000000000000000000000000000000000000000000000600052601260045260246000fd5b6000604082019050615c1a60008301856141f3565b615c276020830184614854565b939250505056fea2646970667358221220cd21738536cdffd24812ae16a06c46a4e0173252dd7236357addf74dabcdf1d664736f6c634300081b0033",
  "linkReferences": {},
  "deployedLinkReferences": {}
}